:020000040800F2
:10000000E83B002065180108F5130108F713010803
:10001000F9130108FB130108FD130108000000009B
:10002000000000000000000000000000FF130108B5
:100030000114010800000000031401080514010860
:10004000D9180108DD180108E1180108E5180108B0
:10005000E9180108ED18010839C60008F11801086F
:10006000F5180108F9180108FD180108011901081F
:1000700005190108091901080D19010811190108CC
:1000800015190108191901081D190108211901087C
:1000900025190108291901082D190108D51201088F
:1000A000A9DA0008311901083519010839190108C0
:1000B00079D5000815D70008BDD800083D190108FA
:1000C0004119010845190108491901084D1901088C
:1000D000511901089B6E0008036E00086B6D000843
:1000E00055190108591901085D19010811DB0008AB
:1000F0006119010865190108691901086D190108DC
:1001000071190108E513010835DA000875190108AD
:10011000791901087D190108651201080F07010806
:10012000B91201088119010885190108ED130108A8
:10013000C7120108891901088D19010891190108D0
:1001400095190108991901089D190108A1190108BB
:10015000A5190108A9190108AD190108230701080B
:10016000B1190108B5190108B9190108BD1901082B
:10017000C1190108C5190108C9190108CD190108DB
:10018000D1190108D51901084178007850EA0121F8
:10019000080080B27047C178827852EA0121427823
:1001A00052EA0121007850EA0121080070470170ED
:1001B000401C89B2090A0170401C70470170401C44
:1001C000090A0170401C090A0170401C090A0170EB
:1001D000401C7047002A06D00B780370491C401C55
:1001E000521E002AF8D170470170401C521E002A8E
:1001F000FAD1704710B4002303780C781B1B491CFC
:10020000401C521E002A01D0002BF5D0180010BC53
:10021000704700E0401C0278002A02D002788A422F
:10022000F8D100787047DFF85C1C0978C0B28842CA
:1002300015D3DFF8501C4978C0B2814201D30120A8
:100240000EE0DFF8401C8978C0B2884207D3DFF89F
:10025000341CC978C0B2814201D3012000E00020E3
:100260007047DFF8201C0979C0B2884223D3DFF839
:10027000141C4979C0B2814201D301201CE0DFF88F
:10028000041C8979C0B2884207D3DFF8F81BC9790A
:10029000C0B2814201D301200EE0DFF8E81B097AE9
:1002A000C0B2884207D3DFF8DC1B497AC0B2814272
:1002B00001D3012000E00020704738B5040000257C
:1002C000E07800281ED00123E26A14F13001607842
:1002D00001F0B7FD002814D10020E070E06A216A27
:1002E000401AA16988420DD2A07802280AD10123C0
:1002F000E06AA1690A1814F13001607801F0A1FDEB
:1003000000E001252800C0B232BD70B504000D0028
:100310000026E06A854213D02000FFF7CEFF0600DA
:10032000F6B2002E0CD101232A0014F130016078BE
:1003300001F069FD002802D05FF0FF350126E5627B
:100340003000C0B270BD38B504002000FFF7B5FF23
:100350000500EDB2002D3CD12078032831D1207961
:1003600001282ED14FF40072002114F13000FFF764
:100370003BFF4AF6552104F22E20FFF718FFDFF865
:10038000081B14F13000FFF719FFDFF8001B14F50C
:100390000570FFF713FF216914F50670FFF70EFFD4
:1003A000E16814F50770FFF709FFE069401CE0629F
:1003B0000123E26A14F13001607801F042FD00206F
:1003C00020710022002160780020C046002800D063
:1003D00001252800C0B232BD891E4269921E914299
:1003E00001D3002003E0826A408901FB00207047AE
:1003F0002DE9F0410C000568022C02D368698442A3
:1004000001D3012666E05FF0FF362878012804D08A
:100410005FD3032847D031D35BE0270017EB5707A2
:10042000286A10EB57212800FFF76FFF002851D1F1
:100430004FF40070B7FBF0F101FB1071481990F810
:1004400030807F1C286A10EB57212800FFF75DFFE2
:1004500000283FD14FF40070B7FBF0F101FB1071A1
:10046000481990F8300058EA0028E00702D55FEA02
:10047000181602E05FEA0856360D2BE0286A10EBEA
:1004800014212800FFF741FF002823D160004FF41A
:100490000071B0FBF1F202FB110250193030FFF78E
:1004A00073FE060016E0286A10EBD4112800FFF74F
:1004B0002CFF00280ED1A0004FF40071B0FBF1F228
:1004C00002FB110250193030FFF765FE06013609B4
:1004D00000E001263000BDE8F0812DE9F041040084
:1004E0000D0016000227022DC0F091806069854240
:1004F00080F08D802078012805D0C0F08880032806
:100500005FD044D383E0A84618EB5808206A10EB6C
:1005100058212000FFF7F9FE0700FFB2002F76D127
:100520004FF40070B8FBF0F101FB10810819303076
:1005300018F10108E90705D5017811F00F0151EA1A
:10054000061100E0310001700120E070206A10EB1C
:1005500058212000FFF7D9FE0700FFB2002F56D127
:100560004FF40070B8FBF0F101FB10810819303036
:10057000E90701D5310906E0017811F0F001320AEE
:1005800012F00F02114301700120E0703FE0206A79
:1005900010EB15212000FFF7B8FE0700FFB2002F77
:1005A00035D1310089B268004FF40072B0FBF2F32C
:1005B00003FB120318193030FFF7F9FD0120E0703A
:1005C00025E0206A10EBD5112000FFF79EFE070002
:1005D000FFB2002F1BD1A8004FF40071B0FBF1F265
:1005E00002FB110210193030FFF7D5FD000F60F348
:1005F0001F763100A8004FF40072B0FBF2F303FB4A
:10060000120318193030FFF7D9FD0120E0703800CF
:10061000C0B2BDE8F081F8B504000F001100002061
:100620002568022F02D36869874201D3022036E091
:10063000002909D05FF0FF322800FFF74EFFC0B25B
:10064000002801D0C0B22AE039002000FFF7D0FE18
:100650000600002E22D0012E01D102201FE016F14B
:10066000010F01D101201AE0002239002800FFF714
:1006700034FFC0B2002801D0C0B210E02869696917
:10068000891E884206D22869401C2861287950F0CA
:1006900001002871370068698742D5D30020F2BD78
:1006A0002DE9F04106000C003568002C07D1EF68F9
:1006B000002F02D06869874210D301270EE0210085
:1006C0003000FFF795FE022801D2012075E010F1FD
:1006D000010F72D0696988426FD32700286900280A
:1006E00001D1002069E05FF00008A7421BD117F19B
:1006F00001086869804501D35FF002084146300077
:10070000FFF776FE012802D010F1010F00D154E06E
:10071000002808D0E868022803D36969884200D21B
:1007200007005FF00008B8F1000F11D1B84618F1CA
:1007300001086869804505D35FF00208474501D28A
:1007400000203AE041463000FFF752FE002821D158
:100750005FF0FF3241462800FFF7BFFEC0B200281D
:1007600006D1002C04D0424621002800FFF7B5FE38
:10077000C0B2002818D1C5F80C806869801E2969AC
:10078000884202D32869401E2861287950F0010070
:10079000287111E0012802D010F1010F00D10CE006
:1007A000B845C4D1002008E0C0B2012802D15FF0F2
:1007B000FF3801E05FF001084046BDE8F0812DE917
:1007C000F04104000D002000FFF777FD002801D064
:1007D000012024E029002000FFF7FEFD0500E5626E
:1007E0004FF40072002114F13000FFF7FDFC14F10A
:1007F00030080127002600E0BE196089864207D232
:100800003B0072194146607801F01BFB0028F3D0D1
:100810006089864201D1002000E00120C0B2BDE81D
:10082000F0812DE9F04104000D002668B5F5001FA8
:1008300006D22020B5FBF0F101FB1051002901D0B8
:10084000022046E02561A768002F03D130780328F5
:1008500000DB776A002F08D168093189884201D30B
:10086000022036E0706AA0611FE070894FF40071C9
:1008700001FB00F801E0B5EB0805454510D3390050
:100880002000FFF7B5FD070017F1010F01D101208E
:100890001FE0022F02D370698742ECD3022018E0D8
:1008A00039003000FFF798FDA0616761A06900285A
:1008B00001D102200DE0A06910EB5520A0614FF49A
:1008C0000070B5FBF0F101FB105188193030E06188
:1008D0000020BDE8F0812DE9F04104000D002668FC
:1008E000206910F12007B7F5001F01D30020A06197
:1008F000A069002801D1042060E04FF40070B7FB2C
:10090000F0F101FB107100294DD1A069401CA061DC
:100910006069002807D178093189884243D30020D3
:10092000A06104204AE07089401E10EA572F3AD196
:1009300061692000FFF75CFD8046B8F1020F01D22B
:1009400002203BE018F1010F01D1012036E070696F
:10095000804521D3002D03D10020A06104202DE08B
:1009600061692000FFF79CFE8046B8F1000F01D1BD
:10097000072023E0B8F1010F01D102201EE018F199
:10098000010F01D1012019E041463000FFF717FFA8
:10099000002801D0012011E0C4F814804146300045
:1009A000FFF71AFDA06127614FF40070B7FBF0F16B
:1009B00001FB107188193030E0610020BDE8F08142
:1009C000F8B504000D00276800212000FFF729FF7B
:1009D000C0B200281BD10026A1693800FFF795FCA2
:1009E000C0B2002813D1E1690978E52903D0E16993
:1009F0000978002903D1761CAE4201D107E0002618
:100A000001212000FFF767FFC0B20028E4D0C0B288
:100A1000042800D10720C0B2F2BD70B504000D005B
:100A200015F11A00FFF7B0FB06002078032805D166
:100A300015F11400FFF7A8FB56EA0046300070BD20
:100A400070B504000D001600310089B215F11A00CE
:100A5000FFF7ADFB2078032805D1310C89B215F1E1
:100A60001400FFF7A4FB70BD70B504000D00042056
:100A70002668A16900292DD0A1693000FFF745FC47
:100A8000C0B2002826D1E1690A78D2B2002A01D189
:100A900004201FE0E169C97A11F03F01A171D2B2CF
:100AA000E52A10D0D2B22E2A0DD0C9B20F290AD011
:100AB000C9B231F02001082901D1012100E0002153
:100AC000C9B2A94206D000212000FFF704FFC0B23E
:100AD0000028CED0C0B2002801D00021A161C0B250
:100AE00070BD70B505002E6800212800FFF799FE43
:100AF0000400E4B2002C02D02000C0B229E0A969B1
:100B00003000FFF702FC0400E4B2002C1FD1E869BA
:100B10000078C0B2002801D1042418E0E869C07A46
:100B200010F03F00A871E869C07A000707D40B22D3
:100B300015F12001E869FFF75DFB002807D00021CF
:100B40002800FFF7C8FE0400E4B2002CD7D0200034
:100B5000C0B270BD70B50400266801212000FFF707
:100B60002FFF0500EDB2002D14D1A1693000FFF771
:100B7000CCFB0500EDB2002D0CD120220021E06954
:100B8000FFF732FB0B2214F12001E069FFF722FB93
:100B90000120F0702800C0B270BD38B5040025688F
:100BA000A1692800FFF7B1FBC0B2002804D1E169B8
:100BB000E5220A700121E970C0B232BD70B50400AF
:100BC0000D0000206872A06900282DD000200100CF
:100BD000FFE70B2813D2E269825C401CD2B2202AC4
:100BE000F7D0D2B2052A00D1E522092803D14B194A
:100BF0002E265E72491C4B195A72491CE9E74819A6
:100C000000214172E069C07A2872E0691C30FFF768
:100C1000C2FA2860E0691630FFF7B6FAE880E069AA
:100C20001830FFF7B1FAA88070BD2DE9F84F0D001C
:100C3000D5F8009010F120040B2220212000FFF7AE
:100C4000D3FA5FF0000846465FF0080A02E0082683
:100C50005FF00B0A18F8097018F10108FFB2212F94
:100C600006DA18EB09002860002E4FD106205AE062
:100C7000FFB22F2F02D0FFB25C2F0BD118F8090062
:100C80002F2803D018F809005C2802D118F10108B8
:100C9000F4E7E6E7FFB22E2F01D0564507D3BAF1AD
:100CA0000B0F02D0FFB22E2FD1D006203BE0380030
:100CB000C0B2FFF7B8FA002815D018F809B018F13B
:100CC00001085846C0B2FFF7CCFA002803D0BAF1A9
:100CD0000100864201D3062025E03755761C06F830
:100CE00004B0761CB6E7FFB23900DFF82405FFF741
:100CF00090FA002801D0062015E0FFB2B7F161009C
:100D00001A2800D2203F3755761CA3E72078E52823
:100D100001D105202070FFB2212F01DA042000E06C
:100D20000020E0720020BDE8F28F32B50400256893
:100D300002E00098401C0090009800782F28F8D01E
:100D4000009800785C28F4D00020A060009800781B
:100D5000202815D2802084F82B0000212000FFF7E6
:100D600060FD29E020694FF40071B0FBF1F202FB55
:100D70001102501910F130012800FFF74EFEA0605B
:100D800000A92000FFF751FFC0B2002814D12000B5
:100D9000FFF7A7FE94F82B10C0B2002806D0C0B20F
:100DA000042802D1490700D4052005E0490703D4EF
:100DB000A079C006D6D40520C0B232BD30B45FF0F1
:100DC000FF3102681300002A01D108001DE01C78E1
:100DD0005B1CE4B2212C02D3E4B23A2CF7D1E4B28A
:100DE0003A2C10D101241578303D0A2D05D2951CDE
:100DF0009D4202D11278B2F13004012C01DA2100B7
:100E00000360080001E00021080030BC704710B505
:100E100004000020E0705FF0FF30E0622000FFF788
:100E200074FA002801D004202BE004F22E20FFF7F2
:100E3000ABF94AF65521884201D0032021E094F80D
:100E40003000E92807D094F83000EB2803D094F85C
:100E50003000E82814D10322C5A114F16600FFF781
:100E6000C9F9002801D100200BE00522DFF8A41306
:100E700014F18200FFF7BEF9002801D1002000E044
:100E8000022010BD74180108525261417272416112
:100E9000F0B585B00F00150000213960FFF78EFF17
:100EA0000600002E01D50B205FE1DFF86C0350F83F
:100EB0002640002C01D10C2057E13C6015F0FE05C6
:100EC000207800280DD0607800F092FFC10708D488
:100ED000EDB2002D03D0400701D50A2045E10020E6
:100EE00043E1002020706670607800F072FFC10757
:100EF00001D5032039E1EDB2002D03D0400701D523
:100F00000A2032E1002529002000FFF780FF0600BB
:100F1000F6B2022E29D1002704E0002000A941F8F2
:100F200027007F1C042F0AD214EB071000F2EE10EA
:100F300001790029F1D00830FFF72DF9EEE70027FD
:100F4000002F00D07F1E00A850F82750002D05D09C
:100F500029002000FFF75BFF060000E00326F6B241
:100F6000022E02DB7F1C042FEDD3F6B2042E01D13A
:100F70000120FAE0F6B2022E01DB0D20F5E014F1BB
:100F80003B00FFF701F9B0F5007F01D00D20ECE048
:100F900014F14600FFF7F8F80700002F04D114F110
:100FA0005400FFF7F8F80700A76194F84000A0701C
:100FB000A078012804D0A078022801D00D20D4E028
:100FC000A078474394F83D0060816089002804D0F0
:100FD00060896189491E084201D00D20C5E014F1E5
:100FE0004100FFF7D1F8208120891021B0FBF1F2F8
:100FF00002FB1102002A01D00D20B6E014F14300DB
:10100000FFF7C2F80600002E04D114F15000FFF7DC
:10101000C2F8060014F13E00FFF7B6F880B20028CF
:1010200001D10D20A1E017FA80F1228911EB1211F4
:101030008E4201D20D2098E0721A6389B2FBF3F25E
:10104000002A01D10D2090E00026744B9A4200D274
:1010500003264FF6F6739A4200D2022640F6F67344
:101060009A4200D20126F6B2002E01D10D207CE07A
:10107000921C6261E56115FA80F020624819A06255
:10108000F6B2032E14D114F15A00FFF77DF80028B0
:1010900001D00D2069E02089002801D00D2064E0F6
:1010A00014F15C00FFF777F860626069800015E07A
:1010B0002089002801D10D2057E0206A381860628D
:1010C000F6B2022E02D16069400007E06069032198
:1010D0004843217D11F0010111EB5000A16900F29C
:1010E000FF10B1EB502F01D20D203EE05FF0FF303A
:1010F0002061E06080202071F6B2032E2DD114F122
:101100006000FFF741F8012827D1691C2000FFF794
:10111000FCF8002821D10020207104F22E20FFF7D6
:1011200033F84AF65521884217D114F13000FFF701
:1011300032F83B49884210D114F50570FFF72BF8BF
:101140003849884209D114F50670FFF724F8206168
:1011500014F50770FFF71FF8E0602670324800882A
:10116000401C31490880E080002005B0F0BD00003F
:101170004641540070B506000C000925002E12D01F
:10118000306800280FD03068007800280BD0B08875
:101190003168C988884206D13068407800F028FE5E
:1011A000C00700D40025EDB2002D01D1306800E069
:1011B000002020602800C0B270BD13B582B01400BA
:1011C0000398009000A8FFF7F9FD002801D50B2037
:1011D0001BE0114951F82010002901D000220A70AB
:1011E0000299002902D0029900220A700A49029A43
:1011F00041F82020E4B2002C01D1002005E00022BB
:1012000002A903A8FFF744FEC0B204B010BD00005D
:1012100044180108C818010890360020F6FFFF0F97
:101220005252614172724161983700202DE9F241BA
:101230008DB004001600002C01D10920F3E016F057
:101240003F063200D2B200A90DA8FFF721FE05002B
:10125000EDB2002D40F0E080009801900D9901A8BA
:10126000FFF763FD0500EDB2002D04D19DF82F00BE
:10127000000600D506251C2006424ED0EDB2002DFA
:1012800009D0EDB2042D03D101A8FFF763FC0500DE
:1012900056F0080609E09DF80A001121084201D025
:1012A000072502E0700700D50825EDB2002D44D1D6
:1012B000300742D508990098FFF7AFFB070000F010
:1012C000F5FD010008980E30FEF778FF0898202100
:1012D000C172002208990098FFF7B2FB002108981C
:1012E0001C30FEF76BFF00980121C170002F24D045
:1012F0000098D0F82C800022390001A8FFF78BF964
:101300000500EDB2002D18D141460098FEF7FDFF13
:1013100005000098791EC1600FE0EDB2002D0CD1E0
:101320009DF80A00C00601D5042506E0B00704D5E3
:101330009DF80A00C00700D50725EDB2002D08D1A1
:10134000300701D556F040060098C06A2062089820
:101350006062EDB2002D5FD108990098FFF75DFB48
:10136000A06008981C30FEF716FFE060009820602F
:101370000098C088A0802674002060740020E0617E
:10138000002060614FF40072002114F12800FEF784
:101390002BFFB00640D5E06800283DD0E0686061D2
:1013A000009840894FF4007101FB00F6A068E768DF
:1013B0000BE001002000FFF71BF8022800D20225F5
:1013C00010F1010F00D10125BF1BEDB2002D01D19D
:1013D000BE42EED3A061EDB2002D1DD14FF40071DD
:1013E000B7FBF1F202FB1172002A15D00100009840
:1013F000FEF7F2FF002801D102250DE010EB572087
:10140000E0610123E26914F128010098407800F0BE
:10141000FAFC002800D00125EDB2002D01D00020FB
:1014200020602800C0B20EB0BDE8F0812DE9F04781
:1014300082B0050016001F000C000020386000A9D3
:101440002800FFF797FEC0B2002804D1687C010095
:10145000C9B2002901D0C0B2CCE0287CC00701D4B9
:101460000720C7E0E8686969401AB04229D206003F
:1014700027E0C5F81C9068694FF40071B0FBF1F2E9
:1014800002FB1102D2F50078464500D2B046424632
:1014900068694FF40071B0FBF1F303FB11035819B5
:1014A00010F128012000FEF795FEB6EB080638681B
:1014B00018EB0000386018EB0404686918EB0000B2
:1014C0006861002E00F0958068694FF40071B0FBF0
:1014D000F1F202FB1102002ACDD168690099498915
:1014E000491E11EA5028B8F1000F16D1686900288A
:1014F00001D1A86803E0A9692800FEF779FF022856
:1015000003D202206874022074E010F1010F03D1AD
:101510000120687401206DE0A861A9690098FEF7B8
:101520005BFF8146B9F1000F03D1022068740220ED
:1015300060E018EB09095FEA562ABAF1000F30D0D3
:10154000009840891AEB0801884203D2009840892C
:10155000B0EB080A53464A4621000098407800F054
:1015600052FC002803D001206874012042E0287C4E
:10157000000611D5E869B0EB090050450CD24FF4D4
:10158000007215F12801E869B0EB09004FF400730F
:1015900003FB0040FEF71EFE4FF4007000FB0AF84C
:1015A00083E7E86948453FF464AF287C000611D51D
:1015B0000123EA6915F128010098407800F041FC08
:1015C000002803D001206874012013E0287C10F06B
:1015D0007F00287401234A4615F1280100984078BD
:1015E00000F011FC00283FF444AF01206874012092
:1015F00000E00020BDE8F6872DE9F04782B0050045
:1016000016001F000C000020386000A92800FFF71A
:10161000B1FDC0B2002804D1687C0100C9B2002924
:1016200001D0C0B23BE0287C800701D4072036E01F
:10163000686930186969884206D25FF0FF306969CD
:10164000461A01E0E868E860002E23D068694FF48C
:101650000071B0FBF1F202FB1102002A40F0A480FD
:10166000686900994989491E11EA5028B8F1000FAC
:1016700029D16869002807D1A868002808D100216D
:101680002800FFF70DF803E0A9692800FFF708F824
:10169000002806D1287C50F0400028740020BDE8C6
:1016A000F687012803D1022068740220F7E710F1C1
:1016B000010F03D1012068740120F0E7A861A96837
:1016C000002900D1A860287C000611D50123EA6911
:1016D00015F128010098407800F0B3FB002803D0F2
:1016E000012068740120DAE7287C10F07F0028745C
:1016F000A9690098FEF770FE8146B9F1000F03D189
:10170000022068740220CAE718EB09095FEA562A2A
:10171000BAF1000F31D0009840891AEB08018842D5
:1017200003D200984089B0EB080A53464A4621008C
:101730000098407800F085FB002803D001206874F1
:101740000120ACE7E869B0EB0900504510D24FF436
:101750000072E869B0EB09004FF4007101FB004131
:1017600015F12800FEF736FD287C10F07F00287464
:101770004FF4007000FB0AF834E0E869484511D0E6
:101780006869E96888420DD201234A4615F12801AB
:101790000098407800F037FB002803D001206874DF
:1017A00001207CE7C5F81C9068694FF40071B0FB1C
:1017B000F1F202FB1102D2F50078464500D2B046A4
:1017C0004246210068694FF40073B0FBF3FC0CFB48
:1017D000130C1CEB05002830FEF7FCFC287C50F0B5
:1017E00080002874B6EB0806386818EB00003860F3
:1017F00018EB0404686918EB00006861E86869691F
:101800008842BFF41FAF68691DE770B582B004005D
:1018100000A92000FFF7AEFCC0B2002842D1217C15
:1018200049063FD5207C00060FD50123E26914F15B
:1018300028010098407800F004FB002801D0012026
:1018400031E0207C10F07F00207400F02FFB0500B9
:10185000216A0098FEF759FDC0B2002822D1666ABD
:10186000F07A50F02000F072A26831002068FFF793
:10187000E7F8E16816F11C00FEF7A0FC290016F15C
:101880001600FEF79BFC002116F11200FEF78FFCFC
:1018900000980121C1700098FEF755FD217C11F0E0
:1018A000BF012174C0B276BD10B582B00400200023
:1018B000FFF7ABFFC0B2002808D100A92000FFF756
:1018C00059FCC0B2002801D100212160C0B216BD70
:1018D0002DE9F04182B004000D0000A92000FFF7BF
:1018E00049FC0600F6B2002E00D1667CF6B2002E4E
:1018F00002D03000C0B2B9E0E068A84203D2207C38
:10190000800700D4E568606900276761002D71D009
:10191000009949894FF4007202FB01F8002810D0A9
:10192000411EB1FBF8F16A1EB2FBF8F28A4208D3FD
:10193000401EB8F101018843606160692D1AA069F9
:1019400015E0A068002811D100212000FEF7A8FEB4
:10195000012803D102206074022087E010F1010FFA
:1019600003D101206074012080E0A060A061002804
:1019700001D13FE0A061A8450FD2B5EB0805616930
:1019800018EB01016161217C89071CD50100200051
:10199000FEF786FE00281AD1002561696918616189
:1019A0004FF40071B5FBF1F202FB1152002A21D075
:1019B00001000098FEF710FD0700002F18D102204B
:1019C0006074022052E001002000FEF711FD10F1CA
:1019D000010F03D101206074012047E0022803D3E6
:1019E000009949698842C5D30220607402203DE015
:1019F00017EB5527E0686169884205D26069E060AD
:101A0000207C50F04000207460694FF40071B0FBFE
:101A1000F1F202FB1102002A26D0E069874223D0AE
:101A2000207C000611D50123E26914F128010098F9
:101A3000407800F006FA002803D0012060740120ED
:101A400014E0207C10F07F00207401233A0014F190
:101A500028010098407800F0D6F9002803D0012032
:101A60006074012002E0E7613000C0B2BDE8F68199
:101A700032B582B00400002C01D1092036E00022EA
:101A800000A902A8FFF704FA0500EDB2002D26D147
:101A90000098206002992000FFF747F90500EDB299
:101AA000002D18D194F82B00000609D4A079C006A7
:101AB00005D5E1690098FEF7B0FFA06000E00525BC
:101AC000EDB2002D07D10098C088A0800021200031
:101AD000FEF7A7FE0500EDB2042D00D10525EDB2FD
:101AE000002D01D0002020602800C0B23EBD38B5D6
:101AF00004000D0000A92000FFF73CFBC0B2002845
:101B00001DD1002D04D100212000FEF78AFE16E031
:101B100000212000FEF7A8FFC0B2042800D1002059
:101B2000C0B200280BD129002000FFF747F80021A0
:101B30002000FEF7D0FEC0B2042800D10020C0B2C1
:101B400032BD2DE9F14386B00C001600002200A939
:101B500006A8FFF79DF90500EDB2002D6CD10098A5
:101B6000306000984069801E00990969884203D35B
:101B70000098006920605FE0002600980078012846
:101B800018D1022700980190390001A8FEF730FC17
:101B900010F1010F01D1012545E0012801D10225F5
:101BA00041E0002800D1761C7F1C009840698742E4
:101BB000EAD338E0009847690098D0F820805FF0B9
:101BC0000009B9F1000F09D141460098FEF79DFBCD
:101BD000050018F10108EDB2002D24D1009800781D
:101BE00002280BD1009819EB00003030FEF7CCFA38
:101BF000002800D1761C19F102090AE0009819EBBF
:101C000000003030FEF7C7FA000100D1761C19F150
:101C100004094FF400714846B0FBF1F909FB1109C2
:101C20007F1E002FCDD126600098066100980079B4
:101C300050F00100009908712800C0B207B0BDE85B
:101C4000F08338B5040000A92000FFF793FA0500DF
:101C5000EDB2002D04D1657C2800C0B2002802D06E
:101C60002800C0B252E0207C800701D407204DE05C
:101C70006069E168884247D26069002808D1002283
:101C8000A1682000FEF7C7FC05000020A06018E056
:101C9000A1692000FEF7ACFB002510F1010F00D177
:101CA0000125012800D10225EDB2002D09D10099AE
:101CB0004969884205D2A26901002000FEF7ABFC09
:101CC00005006069E060207C50F040002074EDB2B7
:101CD000002D12D1207C00060FD50123E26914F1FA
:101CE00028010098407800F0ACF8002801D00125C8
:101CF00003E0207C10F07F002074EDB2002D03D0B3
:101D000065742800C0B201E02800C0B232BD31B510
:101D100098B00024022200A918A8FFF7B9F805001E
:101D2000EDB2002D51D100980190189901A8FEF74D
:101D3000FCFF0500EDB2002D47D19DF82F000006F5
:101D400001D5062504E09DF80A00C00700D5072547
:101D5000EDB2002D20D108990098FEF75EFE040038
:101D60009DF80A00C00617D500980C900E9400212B
:101D70000CA8FEF756FD0500EDB2002D0CD1002198
:101D80000CA8FEF771FE0500EDB2002D00D107256D
:101D9000EDB2042D00D10025EDB2002D15D101A822
:101DA000FEF7FBFE0500EDB2002D07D1002C05D09B
:101DB0000022210001A8FEF72EFC0500EDB2002D47
:101DC00003D10098FEF7BFFA05002800C0B219B091
:101DD00030BD80B5C0B2002801D0012007E000F07E
:101DE00095F9C0B2002801D0012000E0002002BD1A
:101DF00010B5002400F00AFA012801D054F00204C2
:101E00002000C0B210BD70B50C0015001E0000F01F
:101E1000FDF9012801D0032012E0002E01D1042099
:101E20000EE033004FF400722900200000F062FE43
:101E300000F0F8FE00F0C4F9C0B20028FAD100208A
:101E400070BD70B50C0015001E0000F0DFF9012810
:101E500001D0032012E0002E01D104200EE0330057
:101E60004FF400722900200000F032FF01F019F851
:101E700000F0A6F9C0B20028FAD1002070BD10B45D
:101E800050F8041B81B102681218001D50F8043B81
:101E9000DC0744BFA9F10104E31852F8044B43F8EE
:101EA000044B091FF9D1EBE710BC704700B583B0B4
:101EB000002013490968C9061FD500A801F0C0FC1D
:101EC0009DF8000014309DF80110490551EA40606A
:101ED0009DF8021050EA01409DF80410C90289B231
:101EE00008439DF80510490189B208439DF8061082
:101EF000C9B24908C9B2084300E000200EBD00BFC6
:101F00000C28004000B583B001210D2001F0D3FD65
:101F10000C220821DFF8C80B01F0BCFE0C220921BD
:101F2000DFF8BC0B01F0B6FE0C220A21DFF8B00B83
:101F300001F0B0FE0C220B21DFF8A40B01F0AAFE89
:101F40000C220C21DFF8980B01F0A4FE0C220221D8
:101F5000DFF8900B01F09EFE4FF4706000900320BC
:101F60008DF8050002208DF8040000208DF8060091
:101F700001208DF8070000A9DFF8640B01F02CFEAA
:101F80000420009000A9DFF85C0B01F025FE4FF45F
:101F90008050009000208DF8070000A9DFF8400B6A
:101FA00001F01AFE0820009000208DF804000120A6
:101FB0008DF8070000A9DFF82C0B01F00DFE0121C0
:101FC0004FF4006001F097FD01215FF4800001F003
:101FD00072FD07BD10B590B004005FF07461DFF8CA
:101FE0000C0B01F070FF0021DFF8000B01F052FF35
:101FF000DFF8F80A01F088FE5FF000600090DFF87B
:10200000E80A0190029440200390002004900020F0
:1020100005904FF4806006904FF4805007904FF485
:1020200080400890002009905FF400300A9004205E
:102030000B9003200C905FF400000D905FF40010F3
:102040000E9000A9DFF8A40A01F0F9FE0122102188
:10205000DFF8980A01F047FF2021DFF8900A01F02D
:1020600026FF0121DFF8840A01F014FF10B010BD33
:1020700010B590B004005FF07461DFF8700A01F0F1
:1020800022FF0021DFF8640A01F004FFDFF85C0A98
:1020900001F03AFE5FF000600090DFF84C0A01901A
:1020A00002940020039000200490002005904FF43B
:1020B000806006904FF4805007904FF48040089065
:1020C000002009905FF440300A9004200B90032018
:1020D0000C905FF400000D905FF400100E9000A9CA
:1020E000DFF8080A01F0ABFE01221021DFF8FC093D
:1020F00001F0F9FE2021DFF8F40901F0D8FE0121FA
:10210000DFF8E80901F0C6FE10B010BD80B5002070
:102110008DF80000FFF7F6FE01F03CFF00F0A5F897
:102120008DF800009DF80000002802D09DF8000006
:1021300045E000F0BFF98DF800009DF80000002890
:1021400002D09DF800003AE0DFF8A40904210175EF
:10215000DFF89C0900210160DFF89409002141604B
:10216000DFF88C0900218160DFF884090021C1605B
:10217000DFF87C0900210161DFF8740901F016FF26
:10218000DFF8940A00F065FA8DF800009DF8000071
:10219000002808D1DFF8800AB0F85400000400F0ED
:1021A0007EFC8DF800009DF80000002805D14FF45A
:1021B000006000F013FC8DF800009DF8000002BDE7
:1021C00010B5042400F00DF80400E4B2042C01D191
:1021D000002005E0E4B2FF2C01D1022000E0012044
:1021E00010BD80B50020009000F010F801280BD140
:1021F00000A800F0BAFE002801D0FF2005E00098FA
:10220000400A10F00F0000E0FF2002BD80B5082159
:10221000DFF8D00801F033FD00281AD1DFF8FC09FF
:1022200000210170DFF8F80900780A2807DADFF8E2
:10223000F0090078401CDFF8E819087011E0DFF8B9
:10224000E00900780A280CD1DFF8680A0121017042
:1022500007E0DFF8CC0900210170DFF8580A0021FF
:102260000170DFF8500A007802BDF8B500208DF843
:1022700000000026002400270025DFF874087621DE
:102280000175DFF86C0800210160DFF864080021A7
:102290004160DFF85C0800218160DFF854084FF4EA
:1022A0000061C160DFF8480800210161DFF84008E3
:1022B00001F07CFE032001F092FE012001F08BFE74
:1022C000DFF8F40900210160DFF8EC09002141602A
:1022D000DFF8E40900218160DFF8DC090021C1603A
:1022E000DFF8D4094FF480610161DFF8CC0901F017
:1022F0007EFE00F0EAFE8DF800009DF80000002848
:1023000002D09DF80000D4E0DFF8AC094FF4D5719D
:102310000160DFF8A40908214160DFF89C09402131
:102320008160DFF894090021C160DFF88C094FF467
:1023300080610161DFF8800901F059FE00F0DFFEE5
:102340008DF800009DF80000002806D1DFF86C0928
:10235000012101605FF080451DE0DFF85C0900218C
:102360000160DFF8540937214160DFF84C09402152
:102370008160DFF844090021C160DFF83C094FF4B7
:1023800080610161DFF8300901F031FE372000F093
:10239000E1FE8DF80000DFF8200900210160DFF880
:1023A000180937214160DFF8100940218160DFF80A
:1023B00008090021C160DFF800094FF48061016164
:1023C000DFF8F40801F013FE372000F0C3FE8DF8AB
:1023D00000009DF80000002869D105E0002001F010
:1023E0001EFE0600F70F641C002F4ED14FF6FF7043
:1023F00084424AD2DFF8C00800210160DFF8B80843
:1024000037214160DFF8B00840218160DFF8A8087B
:102410000021C160DFF8A0084FF480610161DFF89E
:10242000980801F0E4FD372000F094FE8DF80000DC
:102430009DF80000002802D09DF8000039E0DFF888
:1024400080082843DFF870180860DFF86C0829213D
:102450004160DFF8640840218160DFF85C080021FA
:10246000C160DFF854084FF480610161DFF848086B
:1024700001F0BDFD00F0F1FE8DF800009DF80000B8
:102480000028ABD09DF8000013E04FF6FF708442A7
:1024900005D31B208DF800009DF8000009E016F020
:1024A0008046002E03D0DFF81408022101609DF859
:1024B0000000F2BD10B582B000240120ADF800008C
:1024C00001F090FD002803D125242000C0B2BFE018
:1024D000DFF8E8070068042839D0DFF8DC070021BE
:1024E0000160DFF8D40702214160DFF8CC07C0218A
:1024F0008160DFF8C4070021C160DFF8BC074FF43A
:1025000080610161DFF8B00701F071FD00F0C1FEEC
:102510000400E4B2002C02D02000C0B298E00020F9
:1025200001F07DFDDFF89C170860042001F077FDC5
:10253000DFF890174860082001F071FDDFF884177C
:1025400088600C2001F06BFDDFF87817C860DFF8B9
:102550006C07006800280ED0DFF8600700680128CB
:1025600009D0DFF858070068062804D0DFF84C07C8
:102570000068022823D1DFF8400700210160DFF85E
:10258000380703214160DFF8300740218160DFF820
:1025900028070021C160DFF820074FF48061016146
:1025A000DFF8140701F023FD00A9032000F098FED6
:1025B0000400E4B2002C02D02000C0B248E0DFF8F2
:1025C000FC060068042840D0DFF8FC06BDF80010C7
:1025D0000160BDF800000004DFF8DC160860DFF8D9
:1025E000D80609214160DFF8D006C0218160DFF8FC
:1025F000C8060021C160DFF8C0064FF480610161A8
:10260000DFF8B40601F0F3FC00F043FE0400E4B28E
:10261000002C02D02000C0B21AE0002001F0FFFC24
:10262000DFF8A8160860042001F0F9FCDFF89C161A
:102630004860082001F0F3FCDFF8901688600C2059
:1026400001F0EDFCDFF88416C86000242000C0B261
:1026500016BD2DE9D00300210024DFF860261268A2
:1026600080F85620DFF860261268A0F85420DFF8C2
:102670005C261268120E1400E4B2A2090270C4F3C0
:102680008302427014F003028270DFF84026126861
:10269000140CC470DFF834261268140A0471DFF8D1
:1026A0002C2614684471DFF824265268140EE4B214
:1026B0002201C280DFF814265268140CC288E4B2EA
:1026C0002309DBB21A43C28014F00F020272DFF852
:1026D000FC255268140AE4B2E2094272C4F3801283
:1026E0008272C4F34012C272C4F300120273002259
:1026F0004273DFF8C8251268002A04D0DFF8BC2531
:102700001268012A59D1E4B214F003029202026164
:10271000DFF8B82554680269E4B252EA8402026123
:10272000DFF8A8259268140E0269E4B2A309DBB2AF
:102730001A430261C4F3C202027514F00702427523
:10274000DFF888259268140CE4B262098275C4F33C
:102750008202C27514F0030252000276DFF86C2583
:102760009268140A027EE4B252EAD4120276026936
:10277000521C0023C0E91223D0E912670122037E14
:102780009B1C9A40D317A2FB068902FB079903FB07
:102790000699C0E91289012290F908309A40026531
:1027A000D0E91267026D0023A2FB068902FB07999C
:1027B00003FB0699C0E912892CE0DFF800251268B6
:1027C000022A27D1DFF804255468E4B214F03F024E
:1027D00012040261DFF8F4249268140E0269E4B274
:1027E00052EA04220261DFF8E4249268140C0269C0
:1027F000E4B222430261DFF8D4249268140A026929
:10280000521C5FF400235A430023C0E912234FF403
:1028100000720265C4F38012427614F03F02520047
:102820008276DFF8A8249468827EE4B252EAD41259
:10283000827614F07F02C276DFF89024D268140EFC
:10284000E4B2E2090277C4F341124277C4F3820290
:10285000827714F003029200C277DFF87024D26806
:10286000140CC27FE4B252EA9412C277C4F340124D
:1028700080F82020002280F8212014F0010280F846
:102880002220DFF84824D268140AE4B2E20980F872
:102890002320C4F3801280F82420C4F3401280F86F
:1028A0002520C4F3001280F82620C4F3810280F8AA
:1028B000272014F0030280F82820DFF81024D468C1
:1028C000E4B2620880F82920012280F82A20DFF88B
:1028D000F4231268140E80F82C40DFF8E823126805
:1028E000140CE4B22202C285DFF8D8231268140A5D
:1028F000C28DE4B22243C285DFF8C8231468E4B273
:1029000022060263DFF8BC235268140E026BE4B2A5
:1029100052EA04420263DFF8AC235268140C026BE3
:10292000E4B252EA04220263DFF898235268140AE0
:10293000026BE4B222430263DFF88823546880F814
:102940003440DFF880239268140E80F83540DFF8B9
:1029500074239268140CE4B222068263DFF86423C5
:102960009268140A826BE4B252EA04428263DFF88E
:1029700054239468826BE4B252EA04228263DFF843
:102980004423D268140E826BE4B222438263DFF8E0
:102990003423D268140C90F83C20E4B252EA1412AA
:1029A00080F83C20E4B214F00F021202C287DFF874
:1029B0001423D268140AC28FE4B22243C287DFF81C
:1029C0000423D468E4B2620880F84020012280F831
:1029D00041200800C0B2BDE8D003704710B5002404
:1029E000DFF8D8120968032903D127242000C0B2D8
:1029F00054E0DFF8C8120968002909D0DFF8BC12DA
:102A00000968012904D0DFF8B4120968022943D10A
:102A1000B0F5805F03D127242000C0B23EE0B0F5BE
:102A2000006F1DD1012000F0A7FC0400E4B2002CCF
:102A300032D12F48042101752D48002101602C4816
:102A4000002141602A480021816029484FF400613B
:102A5000C160274800210161254801F0A7FA1BE069
:102A6000002000F089FC0400E4B2002C14D12048BE
:102A7000042101751E48002101601D4800214160AC
:102A80001B48002181601A480021C16018480021BC
:102A90000161174801F08AFA2000C0B210BD10B5DC
:102AA0000024DFF814120860DFF80C0207214160EF
:102AB000DFF8040240218160DFF8FC010021C160E1
:102AC000DFF8F4014FF480610161DFF8EC0101F0FF
:102AD0008EFA072000F03EFB04002000C0B210BDBB
:102AE00000080240000C0240802C01405864024063
:102AF000503400202DE9F04104000D0016001F00A5
:102B00005FF00008DFF8D00400210170DFF8CC048A
:102B100000210160DFF8C80401210160DFF8C4046E
:102B20000021016065480068022802D14FF4007658
:102B300000E07543012140F22A3001F098FA0120AB
:102B400001F091FA06FB07F12000FFF791FA5A48CD
:102B5000066059481021416057484021816056481D
:102B60000021C16054484FF480610161524801F076
:102B70003EFA102000F0EEFA80465FFA88F8B8F1CD
:102B8000000F05D0002001F06EFA4046C0B240E0D0
:102B9000DFF854045FF0FF31016006FB07F0DFF857
:102BA00048144860DFF8400490218160DFF8380461
:102BB0000221C160DFF8300400210161DFF8280440
:102BC00001214161DFF8200401F033FA3A48056041
:102BD000394812214160384840218160364800213F
:102BE000C16035484FF480610161334801F0FFF95D
:102BF000122000F0AFFA80465FFA88F8B8F1000FB3
:102C000005D0002001F02FFA4046C0B201E0404656
:102C1000C0B2BDE8F081000090310020DB37002019
:102C2000DA37002038B500247FF0404500E06D1E03
:102C3000DFF81C05006800280BD1DFF8A00300684E
:102C4000002806D1DFF890030078002801D1002D7C
:102C5000EDD1DFF8FC04002101607FF0404500E089
:102C60006D1EDFF80C070068800401D5002DF7D138
:102C7000DFF86C030068012806D100F054F9040065
:102C8000DFF85C0300210160002D03D1E4B2002CC9
:102C900000D1042440F2FF5001F004FADFF83803B9
:102CA0000078002803D0DFF83003007801E020002E
:102CB000C0B232BDD9370020F8340020443700209C
:102CC000000010802C360020483700201C360020E1
:102CD0002DE9F04104000D0016001F005FF0000810
:102CE000DFF8F40200210170DFF8F002002101603A
:102CF000DFF8EC0201210160DFF8E8020021016049
:102D0000DFF870060068022802D14FF4007600E078
:102D10007543DFF8C8050660DFF8C0051021416083
:102D2000DFF8B80540218160DFF8B0050021C160FF
:102D3000DFF8A8054FF480610161DFF8A00501F01C
:102D400056F9102000F006FA80465FFA88F8B8F1CC
:102D5000000F05D0002001F086F94046C0B29EE089
:102D6000DFF8A00700680004DFF870150860DFF8DE
:102D70006C0537214160DFF8640540218160DFF890
:102D80005C050021C160DFF854054FF480610161EA
:102D9000DFF8480501F02BF9372000F0DBF9804619
:102DA0005FFA88F8B8F1000F05D0002001F05BF958
:102DB0004046C0B273E0DFF824050760DFF81C0569
:102DC00017214160DFF8140540218160DFF80C0510
:102DD0000021C160DFF804054FF480610161DFF874
:102DE000FC0401F004F9172000F0B4F980465FFA02
:102DF00088F8B8F1000F05D0002001F034F9404602
:102E0000C0B24CE0DFF8D4040560DFF8D00419212B
:102E10004160DFF8C80440218160DFF8C004002170
:102E2000C160DFF8B8044FF480610161DFF8AC04E1
:102E300001F0DDF8192000F08DF980465FFA88F87E
:102E4000B8F1000F05D0002001F00DF94046C0B2E6
:102E500025E065485FF0FF31016006FB07F062493D
:102E600048606148902181605F480021C1605E48F0
:102E7000002101615C48012141615B4801F0D9F802
:102E8000012140F22A3001F0F2F8012001F0EBF8C4
:102E900006FB07F12000FFF79DF84046C0B2BDE8F1
:102EA000F08138B500245FF0FF3500E06D1EDFF8DB
:102EB000A0020068002809D148480068002805D110
:102EC00045480078002801D1002DEFD1DFF88002BD
:102ED000002101605FF0FF3500E06D1EDFF8900417
:102EE0000068C00401D5002DF7D13D4800680128D5
:102EF00005D100F018F80400394800210160002DC8
:102F000003D1E4B2002C00D1042440F2FF5001F0C0
:102F1000C9F831480078002802D02F48007801E035
:102F20002000C0B232BD10B50024DFF8A807002190
:102F30000160DFF8A0070C214160DFF8980740210D
:102F40008160DFF890070021C160DFF888074FF447
:102F500080610161DFF87C0701F049F80C2000F086
:102F6000F9F804002000C0B210BD38B504000025F7
:102F7000002C03D126252800C0B22BE0DFF8840501
:102F800000680004DFF84C170860DFF848070D21DF
:102F90004160DFF8400740218160DFF838070021F9
:102FA000C160DFF830074FF480610161DFF824076A
:102FB00001F01DF80D2000F0CDF80500EDB2002D58
:102FC00002D02800C0B205E0002001F028F82060FF
:102FD0002800C0B232BD0000D83700205037002092
:102FE0004C3700202C2C01406834002080B54FF471
:102FF000807001F05AF800280CD0DFF8E0060021BC
:1030000001704FF4807001F05BF8DFF8D406012105
:10301000016041E0022001F048F8002807D00220BA
:1030200001F04EF8DFF8B4060221017034E0082008
:1030300001F03BF8002807D0082001F041F8DFF844
:103040009C060421017027E0202001F02EF80028C2
:1030500007D0202001F034F8DFF880060621017047
:103060001AE0102001F021F8002807D0102001F00C
:1030700027F8DFF86806052101700DE04FF40070B5
:1030800001F013F8002807D04FF4007001F018F891
:10309000DFF848060721017000214CF23A3000F0B9
:1030A000E6FFDFF83806007802BD80B5DFF83406A9
:1030B0000068000108D52648012101605FF0046125
:1030C000DFF8240600F0FFFE01BD38B500245FF4F0
:1030D000803500E06D1E002D04D0802000F0D7FF69
:1030E0000028F7D0002D03D103242000C0B205E052
:1030F00040F2FF5000F0D6FF2000C0B232BD10B544
:1031000000245FF48031DFF8C805006803E0491E41
:10311000DFF8BC05006810F0450F01D10029F6D199
:10312000002901D0410706D50324042000F0BAFF8E
:103130002000C0B20AE0400606D50024402000F07E
:10314000B1FF2000C0B201E02000C0B210BD0000FD
:103150005437002038B5050000248548006801E098
:103160008348006810F0450FFAD0410706D50324C4
:10317000042000F097FF2000C0B26DE0C00706D524
:103180000124012000F08EFF2000C0B264E000F0B6
:1031900042FFEDB2A84203D010242000C0B25BE091
:1031A00040F2FF5000F07EFF002000F038FFDFF813
:1031B0003C15084202D12000C0B24DE0002801D5E4
:1031C0001C2049E0410001D5092045E0810001D5DE
:1031D0000A2041E0C10001D50B203DE0010101D5ED
:1031E0000C2039E0410101D50D2035E0C10101D5A8
:1031F0000E2031E0010201D50F202DE0410201D562
:10320000102029E0810201D5112025E0C10201D55D
:10321000122021E0010301D513201DE0410301D557
:10322000142019E0810301D5152015E0C10301D553
:10323000162011E0010401D517200DE0410401D54D
:10324000182009E0810401D5192005E0000701D507
:103250001A2001E02000C0B232BD10B50024DFF812
:103260007004006802E0DFF86804006810F0450FA1
:10327000F9D0400706D50324042000F013FF2000F6
:10328000C0B205E040F2FF5000F00CFF2000C0B2D9
:1032900010BD10B50024DFF83804006802E0DFF844
:1032A0003004006810F0450FF9D0410706D503241B
:1032B000042000F0F7FE2000C0B20EE0C00706D5E3
:1032C0000124012000F0EEFE2000C0B205E040F233
:1032D000FF5000F0E7FE2000C0B210BDF83400201F
:1032E00070B506000C000025DFF8E403006802E07A
:1032F000DFF8DC03006810F0450FF9D0410706D570
:103300000325042000F0CEFE2800C0B22EE0C00746
:1033100006D50125012000F0C5FE2800C0B225E039
:1033200000F079FEF6B2B04203D010252800C0B2FA
:103330001CE040F2FF5000F0B5FE002000F06FFEF0
:1033400010F4604F04D1000C20802800C0B20DE0C2
:10335000810401D5132009E0410401D5102005E0C6
:10336000000401D50F2001E02800C0B270BD0000AC
:10337000342C01404437002030B583B004000025D0
:1033800000A80021002206C00838002000F047FEF7
:10339000800103D50E252800C0B2B2E000A959482B
:1033A000006880B200F0B0F80500EDB2002D02D048
:1033B0002800C0B2A5E0E4B2012C51D1019840032D
:1033C0004AD5504800680004DFF808130860DFF8A9
:1033D000040337214160DFF8FC0240218160DFF8FF
:1033E000F4020021C160DFF8EC024FF4806101615A
:1033F000DFF8E00200F0FBFD3720FFF7ABFE050031
:10340000EDB2002D02D02800C0B27AE0DFF8C4028D
:1034100002210160DFF8BC0206214160DFF8B4023E
:1034200040218160DFF8AC020021C160DFF8A40216
:103430004FF480610161DFF89C0200F0D8FD0620A6
:10344000FFF788FE0500EDB2002D02D02800C0B2C3
:1034500057E02800C0B254E025252800C0B250E053
:103460000198C0034AD5274800680004DFF86412B9
:103470000860DFF8600237214160DFF85802402120
:103480008160DFF850020021C160DFF848024FF48C
:1034900080610161DFF83C0200F0A9FD3720FFF7F1
:1034A00059FE0500EDB2002D02D02800C0B228E080
:1034B000DFF8200200210160DFF8180206214160D8
:1034C000DFF8100240218160DFF808020021C160AE
:1034D000DFF800024FF480610161DFF8F80100F0CD
:1034E00086FD0620FFF736FE0500EDB2002D02D066
:1034F0002800C0B205E02800C0B202E0252528005F
:10350000C0B23EBD483700207CB50C000025002627
:1035100000A80021002206C008386E48082101607A
:103520006C48102141606B4840218160694800214E
:10353000C16068484FF480610161664800F057FD42
:103540001020FFF707FE0600F6B2002E02D0300072
:10355000C0B2BBE06648006800045E4908605D4890
:10356000372141605B48402181605A480021C16099
:1035700058484FF480610161564800F038FD37200B
:10358000FFF7E8FD0600F6B2002E02D03000C0B210
:103590009CE051485FF0FF3101604F4808214160D5
:1035A0004D48302181604C480221C1604A480021C9
:1035B0000161494801214161474800F03AFD454811
:1035C000002101604348332141604248402181602D
:1035D00040480021C1603F484FF4806101613D488F
:1035E00000F005FD3320FFF7B5FD0600F6B2002E12
:1035F0000ED03000C0B269E05FF4001000F047FD6B
:10360000002805D000F02CFD00A941F825006D1C14
:103610002F48006840F22A610842EDD0082000F0EF
:1036200036FD002806D0082000F03CFD04263000BE
:10363000C0B24BE0022000F02AFD002806D0022094
:1036400000F030FD02263000C0B23FE0202000F044
:103650001EFD002806D0202000F024FD06263000A4
:10366000C0B233E04FF4007000F011FD002807D025
:103670004FF4007000F016FD07263000C0B225E0C0
:1036800040F2FF5000F00EFD0098009911F47F41C8
:10369000090251EA00600099090A11F47F410843C8
:1036A000009950EA116060600198019911F47F411E
:1036B000090251EA00600199090A11F47F410843A7
:1036C000019950EA116020603000C0B276BD000060
:1036D000342C0140F834002068340020D837002012
:1036E00050370020006402405864024008E0FFFDAB
:1036F0004837002080B594480078012803D09348CB
:103700000068C00613D5012000F0FEFC9048CA21D5
:1037100001608F48532101608C48006850F08000A0
:103720008A490860894800684006FBD5FFE701BD6B
:1037300080B58648006830F080008449086000F059
:103740007FFD8348FF21016001BD10B50400FFF734
:10375000D1FF00200021080021780A2291FBF2F11C
:1037600011F00F0122780A2303FB112212F00F023D
:1037700050EA015050EA024061780A2291FBF2F1CE
:1037800011F0010162780A2303FB112212F00F02EB
:1037900050EA013050EA0220A1780A2291FBF2F1AE
:1037A00011F00301A2780A2303FB112212F00F0289
:1037B00050EA01101043E17811F0070150EA41305E
:1037C00064490860FFF7B4FF10BD10B50400FFF7AF
:1037D00091FF00200021080021790A2291FBF2F1DB
:1037E00011F0030122790A2303FB112212F00F02C8
:1037F00050EA015050EA024061790A2291FBF2F14D
:1038000011F0070162790A2303FB112212F00F0263
:1038100050EA013050EA0220A1790A2291FBF2F12C
:1038200011F00701A2790A2303FB112212F00F0203
:1038300050EA0110104348490860FFF779FF10BDB6
:1038400030B444490968444A1268C1F303530A2456
:10385000C1F3034504FB03530370C1F300330A248F
:10386000C1F3032504FB03534370C1F301130A247E
:1038700011F00F0504FB03538370490B11F007018E
:10388000C170C2F301510A23C2F3034403FB014197
:103890000171C2F302310A23C2F3032403FB014185
:1038A0004171C2F302110A2312F00F0203FB01213E
:1038B000817130BC704710B5002401215FF0805049
:1038C00000F009F921480068C0063BD400F022FC52
:1038D000012000F04BF800E0641C412000F03BF9AF
:1038E000002803D11E488442F6D12BE01B48006813
:1038F00030F44070194908604FF4807000F0C0F84F
:10390000012000F0D4F800F09BFC0F480121017069
:10391000FFF7F0FE1348006830F0400011490860DE
:1039200010481049096801600F48FF2101600E48E6
:10393000006850F4FE000C490860FFF7F9FE012012
:1039400000F0B0FC10BD0000DE3700200C28004065
:10395000242800400428004000280040703802401D
:10396000C02709000828004010280040DFF838125E
:1039700000220A70DFF8301200220A70C0B201285B
:1039800002D0042805D009E0DFF81C0201210170F3
:1039900004E0DFF8140205210170FFE77047F0B47E
:1039A000002100220023022400250226DFF8F07106
:1039B0003F6817F00C073900002904D0042906D00D
:1039C000082908D035E0DFF8E411016034E0DFF8C1
:1039D000E011016030E0DFF8CC110968C1F38055D7
:1039E000DFF8C011096811F03F06002D0BD0DFF899
:1039F000C011B1FBF6F1DFF8AC211268C2F38812F6
:103A000002FB01F30AE0DFF8A411B1FBF6F1DFF8E5
:103A100094211268C2F3881202FB01F3DFF88411CB
:103A20000968C1F30141491C4C00B3FBF4F101608A
:103A300002E0DFF878110160DFF86411096811F025
:103A4000F0010909DFF86C218A5C0168D14041600E
:103A50005349096811F4E051890ADFF858218A5C5A
:103A60004168D14081604E49096811F46041490BB9
:103A7000DFF840218A5C4168D140C160F0BC7047EA
:103A8000002110F44072B2F5407F08D14449096822
:103A900031F4F811484A02401143414A1160424949
:103AA00009680005000D08433F4908607047434915
:103AB000C0B208607047C9B2002905D04049096802
:103AC00008433F49086005E03D49096831EA0000C4
:103AD0003B4908607047C9B2002905D039490968D7
:103AE00008433849086005E03649096831EA0000B2
:103AF000344908607047C9B2002905D032490968C5
:103B000008433149086005E02F49096831EA00009F
:103B10002D4908607047C9B2002905D02B490968B2
:103B200008432A49086005E02849096831EA00008D
:103B3000264908607047C9B2002905D024490968A0
:103B400008432349086005E02149096831EA00007B
:103B50001F490860704710B4002200230021C0B242
:103B60004409E4B22200012A02D10C490B6806E0A4
:103B7000022A02D10C490B6801E016490B68C0B259
:103B800010F01F0233FA02F0C00701D5012100E056
:103B900000210800C0B210BC70470000003802408D
:103BA0000838024004380240703802400024F40013
:103BB00000127A0020010020FFFCFF0F3C0E47425C
:103BC0003038024040380240443802402038024039
:103BD000243802407438024030B40022002300240C
:103BE00000252A0047E0012393400C681C409C42BA
:103BF00040D1036803241500EDB26D00AC40A3432F
:103C0000036003680C791500EDB26D00AC402343EE
:103C100003600B79012B02D00B79022B1AD1836838
:103C200003241500EDB26D00AC40A34383608368AC
:103C30004C791500EDB26D00AC40234383604368BE
:103C400001249440A343436043688C799440A4B218
:103C500023434360C36803241500EDB26D00AC40FC
:103C6000A343C360C368CC791500EDB26D00AC40CE
:103C70002343C360521C102AB5D330BC70470022C6
:103C8000006989B2084201D0012200E00022100040
:103C9000C0B27047F0B400230024D2B211F007057F
:103CA000EDB2AD00AA40130089B2CA1010EB820237
:103CB00089B2CD1010EB85052D6A0F2611F007078C
:103CC000FFB2BF00BE40B543156289B2CA1010EB07
:103CD0008202126A1A43140089B2C91010EB8100E3
:103CE0000462F0BC704750F8041B61B150F8042B1B
:103CF000D30744BFA9F101039A18002342F8043BFB
:103D0000091FFAD1EFE770470168490849000160CF
:103D10000021016000214160002181600021C1601B
:103D20000021016121214161DFF8FC11884204D1A9
:103D3000DFF8F8013D21016080E0DFF8F4118842EE
:103D400005D1DFF8E8014FF47461016076E0DFF837
:103D5000E411884205D1DFF8D4015FF474110160E9
:103D60006CE0DFF8D411884205D1DFF8C0015FF0C4
:103D70007461016062E0DFF8C411884205D1DFF8A8
:103D8000C001DFF8C011016058E0DFF8BC118842C3
:103D900005D1DFF8AC01DFF8B41101604EE0DFF8C7
:103DA000B011884205D1DFF89801DFF8A811016051
:103DB00044E0DFF8A411884204D161485FF03D512E
:103DC00001603BE0DFF89411884203D164483D2153
:103DD000016033E06349884204D161484FF4746163
:103DE00001602BE06049884204D15D485FF47411A2
:103DF000016023E05D49884204D159485FF0746155
:103E000001601BE05A49884203D15A484D4901607C
:103E100014E05949884203D156484C4901600DE0ED
:103E20005649884203D153484A49016006E0544943
:103E3000884203D14F485FF03D510160704710B494
:103E4000002203681A004F4B1A400B68CC682343CA
:103E50004C6923438C692343CC6923430C6A234375
:103E60004C6A23438C6A23434C6B23438C6B234360
:103E70001A4302604269D208D200CB6A0C6B23431A
:103E80001A4342610A6942604A6882608968C16077
:103E900010BC7047C9B2002904D0016851F001017B
:103EA000016003E00168490849000160704700298A
:103EB00004D0016851F02001016003E0016831F095
:103EC000200101607047254A904201D22E4800E04F
:103ED0002E488A0003D52E4A1140C16002E02C4AC8
:103EE0001140816070470B060BD5D2B2002A04D076
:103EF000436953F08003436103E0436933F0800377
:103F0000436180290ED0D2B2002A05D0026811F098
:103F10001E011143016005E0026811F01E0132EA42
:103F2000010101607047000010600240086002401B
:103F300028600240406002405860024070600240C9
:103F40000C6002403D00002088600240400F0020CD
:103F5000A060024000003D20B860024010640240B2
:103F600008640240286402404064024058640240F1
:103F7000706402400C64024088640240A064024005
:103F8000B86402403F801CF00060024000640240C0
:103F90007D0F7D0F80B501214FF40060FFF7CBFD51
:103FA00000214FF40060FFF7C6FD01BD0021464A25
:103FB00012681100454A1140027D83681A43436824
:103FC0001A43C3681A4303681A4300691043014344
:103FD0003D48016070473E49C0B2086070473D49A6
:103FE000086070473B48006810F0030070470021EC
:103FF000394A03681360394A12681100C90AC902B4
:10400000426883681A43C3681A4300691043014336
:1040100032480160704732480068C0B2704781B0D2
:10402000002100912F49081800900098006801B005
:10403000704700212C4A0368136042682B4B1A60BA
:104040002B4A1268110031F0F7018268C3681A43E5
:1040500003691A43406910430143254801607047D2
:104060002448006870472449C0B208607047C9B24C
:10407000002905D02149096808432049086005E066
:104080001E49096831EA00001C4908607047002198
:104090001B4A1268024201D0012100E00021080001
:1040A000C0B270471749086070470021144A12686F
:1040B000024201D0012100E000210800C0B2704797
:1040C0001049086070470000042C01400081FFFF88
:1040D000A0802542002C0140082C01400C2C0140FE
:1040E000102C0140142C0140242C0140282C0140AC
:1040F0002C2C0140802C01408C8525423C2C014019
:10410000342C0140382C01400149C0B2086070478E
:1041100020000E4238B50020009000240025DFF872
:10412000F001CA210160DFF8E8015321016000F0CD
:104130005DF8002801D1002551E0DFF8AC01002135
:104140000160DFF8A80142F201110160DFF8A0016F
:10415000006810F00700DFF898110860DFF8B4017C
:10416000006810F004040098401C00900098B0F51E
:10417000803F01D0002CF1D0DFF8980100684007A3
:1041800001D400252BE0DFF868010468DFF8600146
:1041900000210160DFF85C014FF6FF710160DFF87C
:1041A0005801DFF858110160DFF854010021016067
:1041B000DFF8500100210160DFF84C0100210160AF
:1041C000DFF8500100210160DFF8400100210160AB
:1041D00000F036F8002801D1002500E00125DFF8C5
:1041E0003001FF2101602800C0B232BD81B0002043
:1041F000009000200021DFF81C21126852061BD419
:10420000DFF810015FF0FF310160DFF8080100689E
:1042100010F040010098401C00900098B0F5803FDD
:1042200001D00029F1D0DFF8EC000068400601D58C
:10423000012002E0002000E00120C0B201B0704780
:1042400081B00020009000200021DFF8C420CA23A4
:104250001360DFF8BC2053231360DFF8B820126826
:1042600032F0A002DFF8AC301A60DFF8A800006876
:1042700010F020010098401C00900098B0F5003F1D
:1042800001D00029F1D0DFF88C000068800601D54C
:10429000012000E00020DFF87810FF220A60C0B2A1
:1042A00001B07047DFF87010CA220A60DFF86810AA
:1042B00053220A60C0B2002808D0DFF8340000683A
:1042C00050F02000DFF82810086007E0DFF8200039
:1042D000006810F0DF00DFF818100860DFF8380021
:1042E000FF210160704700000028004004280040C2
:1042F000082800401428004010280040FF007F00DC
:10430000182800401C280040202800404028004079
:10431000242800400C2800402428004000F5E070CC
:104320000268914203D343689A18914202D380688D
:104330000028F5D17047DFF82007016899B94FF4DC
:104340008031816004224FF4805141604FF0FF3191
:10435000C160016104214161DFF80017C1F8BC218F
:10436000DFF8FC1601600120704701F1080313F02B
:10437000070305D001F10803C3F1080303F00703A5
:104380005918D21A8161C26042F001034B60511882
:1043900028224A60DFF8C0160969C16170472DE91B
:1043A000F84F044601F1080010F0070005D001F1B4
:1043B0000800C0F1080000F0070000EB010B02F15B
:1043C000080010F0070005D002F10800C0F1080055
:1043D00000F007008618A6EB0B00A0EB030803EB28
:1043E0000B0743F00300CBF80400B74228BF01F0ED
:1043F000EFF93079C00758BF01F0EAF9B8F1100FB2
:1044000038BF01F0E5F9A069864207D1E068404471
:10441000E060A76140F0010078605AE1606986427F
:1044200008D1A0684044A060676140F00101796054
:10443000C0514EE1706800F00301012940F0AD80E9
:10444000C0084FEAC00920283BD2D6F808A0F5687A
:104450000090AE4208BF01F0BBF9564508BF01F01D
:10446000B7F970680099C008C000B0EBC10F18BF61
:1044700001F0AEF9009804EBC00000F128018A4574
:1044800008D021698A45C0F08480DAF80C10B14266
:1044900040F07F80554506D1009A20680121914067
:1044A0008843206077E02830854205D02069854226
:1044B0006FD3A868B0426CD1CAF80C50C5F808A0F8
:1044C00069E0F568D6F818A0B5420CD0B06821694B
:1044D000884223D3C168B14204BFA968B1421DD14B
:1044E000C560A8601CE006F11400056835B906F146
:1044F00010000568A5B101E00846056805F1140142
:104500000A68002A02BF05F110010A68002AF3D1E7
:104510002169884202D30021016001E001F058F9CD
:10452000BAF1000F37D0F06904EB800000F5987005
:1045300001688E4209D10560280014D1F2696068D3
:10454000012191408843606025E02069824508D3BD
:10455000DAF81000B04214BFCAF81450CAF810506C
:1045600001E001F035F9B5B12069854211D3C5F8F4
:1045700018A0316929B1814226BF29618D6101F0FE
:1045800027F9706938B12169884202D36861856171
:1045900001E001F01DF94E44C84470684008400035
:1045A00070604FEAD80548F00100786048F807804D
:1045B000202D21D204EBC50000F12806B146B8F148
:1045C000100F38BF01F004F9206820FA05F1C9077F
:1045D00004D40121A9400843206006E0B0682169A5
:1045E00088422CBF814601F0F3F8B760C9F80C701F
:1045F000C7F80890FE606CE05FEA182008BF002151
:1046000023D0B0F5803F28BF1F211ED2A0F58071B6
:10461000090C01F008018840A0F58052120C02F04C
:1046200004029040A0F580431B0CC1F10E0103F081
:104630000203891AC91A984001EBD030C11D28FA2B
:1046400001F101F0010101EB4001F96100227A6101
:104650003A6104EB8100626822FA01F300F5987078
:10466000DB0706D4012303FA01F1114361600760FF
:104670001CE01F2900680EBF00214908C1F1190183
:1046800008FA01F100E010464268D208D200424523
:1046900010D0CA0F00EB820202F1100349001A6821
:1046A000002AF0D121698B4211D31F60B861FF60ED
:1046B000BF600EE022698168904228BF914206D314
:1046C000CF608760B960F8600020B86101E001F058
:1046D0007FF80BF10800BDE8F28F2DE9F04F054699
:1046E000DFF87403006883B0884608B9FFF723FE3B
:1046F000DFF86403806800EB08012F31401E21EAD7
:104700000000804580F0A581D5F8B81141B1D5F8F9
:10471000B0218018824280F09C818142C0F0998152
:1047200001F05AF800281EBF0446076814F1010F73
:1047300000F08F81D5F8B0013818C5F8B001D5F870
:10474000B411814238BF0146C5F8B411A86968BBED
:10475000286908B1844200D22C61C5F8C041C5F86F
:10476000C4710020C5F8CC012021BB4800686862F4
:104770004FF0FF302862284600F128020830D2604E
:104780009260491EF8D1B548854203D1A7F12802AD
:10479000214625E055F8040CC00805EBC000A0F147
:1047A00008013819401AA0F1280219E005F5E07156
:1047B000084600E08068B8B142680368D2189442A5
:1047C000F8D1027B12070FD4AA699A420CD346682B
:1047D00033449A4208D2B9194160E868A9693A1885
:1047E0002846FFF7C2FD1FE12869844238BF2C61CB
:1047F0000846391900E0806880B102688A42FAD11F
:10480000017B09070AD40460434641687918416076
:104810002846214603B0BDE8F04FC0E5AE693146F9
:104820002846FFF77BFD41680068081801902F3883
:1048300000F1080111F0070105D000F10801C1F1F4
:10484000080101F0070101EB000906F110008145A4
:1048500038BFB14609F10800009004F1080109F1E0
:10486000180A4FF0000BA7F1280011F0070105D03E
:1048700004F10801C1F1080101F007010A19401A09
:10488000AA61E86040F00101516080182821416070
:1048900071480069E861009810F0070018BF00F047
:1048A00097FF1B20C9F8040005F5E071B1E80C5032
:1048B0000098A0E80C50C5F8C041C5F8C471C5F80F
:1048C000CCB10098C5F8C801019800E08A460722DB
:1048D000CAF804200AF104010A1D0BF1010B8242FF
:1048E000F4D3BBF1020FB8BF00F072FFB14500F086
:1048F0009B80A9EB060081194FEAD0094A6852084B
:1049000052004A6040F0010171608051B9F1200FFE
:104910001FD205EBC90101F128042746102838BF32
:1049200000F056FF286820FA09F1C90705D40121D3
:1049300001FA09F10843286006E0A0682969884265
:104940002CBF074600F044FFA660FE60B760F4602D
:104950006AE0010A08BF002223D0B1F5803F28BFDA
:104960001F221ED2A1F58072120C02F008029140A3
:10497000A1F580531B0C03F004039940A1F580447A
:10498000240CC2F10E0204F00204D21A121BA14040
:1049900002EBD131CA1D20FA02F202F0010202EB51
:1049A0004102F26100237361336105EB82016B68A0
:1049B00023FA02F401F59871E40705D40120904030
:1049C000184368600E601CE01F2A09680EBF0022B1
:1049D0005208C2F1190200FA02F200E019464B68CF
:1049E000DB08DB00834210D0D30F01EB830303F11C
:1049F000100452002368002BF0D12869844211D39F
:104A00002660B161F660B6600EE02A69886891425E
:104A100028BF904206D3C6608E60B060F16000206F
:104A2000B06101E000F0D4FEE868804511D2A0EB4F
:104A30000800E86040F00100A96908EB0102AA61E2
:104A4000506048F00300486003B001F10800BDE881
:104A5000F08F002000F02BBCE03400204C2300201D
:104A60006859883C2DE9F84F044688460026C8F16D
:104A7000000B5FEA182008BF002123D0B0F5803F6B
:104A800028BF1F211ED2A0F58071090C01F008017A
:104A90008840A0F58052120C02F004029040A0F56C
:104AA00080431B0CC1F10E0103F00203891AC91ADD
:104AB000984001EBD030C11D28FA01F101F001014D
:104AC00001EB400104EB8100D0F8300130B31F2925
:104AD0000EBF00224A08C2F1190208FA02F20023AE
:104AE00000E052004568ED08ED00A5EB08055D45C6
:104AF00003D206465FEA050B0CD045694FEAD27E29
:104B000000EB8E00002D00691CBF85422B4600285B
:104B1000E7D1184600283AD1002E3AD1012088402A
:104B20004000414208436168084000F05F81414213
:104B30000840411E080B00F0100021FA00F2510954
:104B400001F00801CA40930803F00403DA40550855
:104B500005F002050818EA401818C2F3400E284470
:104B6000704422FA0EF1081804EB8000D0F83001EE
:104B70000DE008464168C908C900A1EB0801594584
:104B80003CBF8B46064601690029F2D140690028E6
:104B9000F0D1002E00F02A81A068A0EB0800834528
:104BA00080F0248120698642C0F01E817068C008B0
:104BB00008EB0B09C00008EB0605484518BF00F0DC
:104BC00007FEAE4280F01081F768D6F818A0B74211
:104BD0000CD0B0682169884223D3C168B14204BFB8
:104BE000B968B1421DD1C760B8601CE006F114007D
:104BF000076837B906F110000768A7B101E0084659
:104C0000076807F114010A68002A02BF07F11001C2
:104C10000A68002AF3D12169884202D30021016089
:104C200001E000F0D5FDBAF1000F38D0F06904EBD7
:104C3000800000F5987001688E4209D10760380045
:104C400014D1F2696068012191408843606026E0D8
:104C50002069824508D3DAF81000B04214BFCAF8C0
:104C60001470CAF8107001E000F0B2FDBFB1206905
:104C7000874212D3C7F818A0306930B12169884241
:104C800026BF3861876100F0A3FD706938B12169E2
:104C9000884202D37861876101E000F099FDBBF1A1
:104CA000100F09D249F00300706009EB060041685B
:104CB00041F00101416096E048F0030070604BF064
:104CC000010068604BF805B04FEADB0020281DD2D8
:104CD00004EBC00101F12807216821FA00F2BB466C
:104CE000D20705D4012202FA00F00843206006E052
:104CF000B868216988422CBF834600F069FDBD6019
:104D0000CBF80C50C5F808B0EF606CE05FEA1B20F0
:104D100008BF002123D0B0F5803F28BF1F211ED23D
:104D2000A0F58071090C01F008018840A0F58052BF
:104D3000120C02F004029040A0F580431B0CC1F15C
:104D40000E0103F00203891AC91A984001EBD03012
:104D5000C11D2BFA01F101F0010101EB4001E961F4
:104D600000226A612A6104EB8100626822FA01F381
:104D700000F59870DB0706D4012303FA01F1114313
:104D8000616005601CE01F2900680EBF0021490812
:104D9000C1F119010BFA01F100E010464268D20896
:104DA000D2005A4510D0CA0F00EB820202F1100364
:104DB00049001A68002AF0D121698B4211D31D6085
:104DC000A861ED60AD600EE022698168904228BF65
:104DD000914206D3CD608560A960E8600020A8619B
:104DE00001E000F0F5FC07E100F0F2FC01E12DE943
:104DF000F84F04468846606841420840411E080B4F
:104E000000F01000C1404A0902F00802D1408B08AE
:104E100003F00403D9404D0805F002051018E940DD
:104E20001818C1F3400628443018F140081804EB64
:104E30008000D0F830014168C908C9000646A1EBDE
:104E4000080A09E008464168C908C900A1EB080141
:104E500051453CBF8A46064601690029F2D14069A6
:104E60000028F0D120698642C0F0C1807068C00877
:104E700008EB0A09C00008EB060B484518BF00F014
:104E8000A7FC5E4580F0B380F768B569B7420CD0E7
:104E9000B0682169884223D3C168B14204BFB968B0
:104EA000B1421DD1C760B8601CE006F1140007686C
:104EB00037B906F110000768A7B101E00846076896
:104EC00007F114010A68002A02BF07F110010A68FD
:104ED000002AF3D12169884202D30021016001E058
:104EE00000F076FC002D34D0F06904EB800000F572
:104EF000987001688E4209D10760380011D1F269BB
:104F00006068012191408843606022E02069854209
:104F100005D32869B04214BF6F612F6101E000F032
:104F200057FCB7B12069874211D3BD61306930B1F8
:104F30002169884226BF3861876100F049FC7069A9
:104F400038B12169884202D37861876101E000F0BD
:104F50003FFCBAF1100F09D249F00300706009EB71
:104F60000600416841F0010141603FE048F0030064
:104F700070604AF00100CBF804004AF80BA0D4F8A6
:104F800008804FEAD805202D28BF00F021FCB8F199
:104F9000000F27D0D4F81490009504EBC50000F161
:104FA00028052F46B8F1100F38BF00F011FC20681B
:104FB000009920FA01F1C90705D4009A0121914016
:104FC0000843206006E0A868216988422CBF074694
:104FD00000F0FEFBC5F80890C7F80C90C9F80870FF
:104FE000C9F80C50C4F808A0C4F814B004E000F0EC
:104FF000EFFB0020BDE8F28F06F10800BDE8F28F5C
:105000002DE9F04F83B00546C046C046DFF8B847EB
:10501000F52D80F001810B2D31BF102705F10B001C
:10502000C008C7002068FE08F04010F0030F42D00F
:10503000C04300F00100861904EBC60000F1280807
:10504000F700D8F808506868C008C000B84218BF18
:1050500000F0BEFBD5F80890454508BF00F0B8FB4E
:105060004D4508BF00F0B4FB6868C008C000B842F6
:1050700018BF00F0ADFBC84505D120680121B14043
:10508000884320600DE02069814508D3D9F80C00E1
:10509000A84204D1C8F80890C9F80C8001E000F0DB
:1050A00097FB47F00300686078190835416841F0C4
:1050B00001014160F8E0A168B94280F0BF8000289A
:1050C00000F0A180012505FA06F149004A42B040EE
:1050D0001143084041420840411E080B00F01000F7
:1050E000C1404A0902F00802D1408B0803F00403D2
:1050F000D9404E0806F002061018F1401818C1F306
:1051000040083018404421FA08F101EB000804EB94
:10511000C80000F128094FEAC80AD9F80860706889
:10512000C008C000504518BF00F052FBD6F808B0C8
:105130004E4508BF00F04CFB5E4508BF00F048FB41
:105140007068C008C000504518BF00F041FBD94549
:1051500005D1206805FA08F1884320600DE0206938
:10516000834508D3DBF80C00B04204D1C9F808B07D
:10517000CBF80C9001E000F02BFB47F003007060CF
:10518000AAEB0708B819019048F0010141600198A5
:1051900048F80080A7684FEAD70ABAF1200F28BF65
:1051A00000F016FB47B3CDF800A004EBCA00D4F81A
:1051B000149000F1280AD346102F38BF00F008FBE6
:1051C0002068009920FA01F1C90705D4009905FA71
:1051D00001F10843206007E0DAF8080021698842FD
:1051E0002CBF834600F0F4FACAF80890CBF80C9074
:1051F000C9F808B0C9F80CA0C4F8088006F1080581
:105200000198606150E06068C0B339462046FFF7FE
:10521000EEFD050012D047E015F1400F28BF4FF01A
:10522000FF370BD205F10B00C008C700606828B13A
:1052300039462046FFF716FC050035D1A168B94272
:105240001CD3CA1B6069102A0AD339186161A26095
:1052500042F001034B60525047F0030141600AE005
:105260000022A260626141F00302426009184A68AC
:1052700042F001024A6000F1080515E0E06887424B
:105280000DD2C01BA169E0607A18A26140F0010054
:10529000506001F1080547F00300486004E039461A
:1052A0002046FFF71AFA0546C046C046284603B016
:1052B000BDE8F08F00B970472DE9F047A0F1080470
:1052C000C046C046DFF8005528698442C0F07582A8
:1052D000616801F00302012A00F06F82CA084FEAF8
:1052E000C20808EB0409CA0737D4226811F0030F7B
:1052F00000F0658251420C1990448442C0F05D82F6
:1053000069698C4200F0D880D608202E70D2D4F87B
:105310000CA0A768544508BF00F05AFABC4208BF69
:1053200000F056FA6068C008C000B0EBC60F18BFA6
:1053300000F04EFA05EBC60000F128018F4205D0BF
:1053400029698F4251D3F968A1424ED1BA453DD166
:1053500028680121B140884328604C4580F02D82A7
:10536000D9F80400C10740F12882810700F17A8151
:10537000A969894540F0B580E868AC614044E860BF
:1053800040F00101616069698C4202D100216961CC
:10539000A960E969814280F01282DFF83004006878
:1053A00008B9FEF7C8FFA969002900F00882E8687B
:1053B000292824BF2846FEF7B1FFE869E96888423A
:1053C00080F0FD814FF0FF30E861F8E12830824540
:1053D00006D02869824508D3DAF80800A04204D133
:1053E000C7F80CA0CAF80870B7E700F0F1F9B4E705
:1053F000E768A669A7420BD0A168814222D3C8689A
:10540000A04204BFB868A0421CD1CF60B9601BE0C5
:1054100004F114010F6837B904F110010F689FB14E
:1054200001E011460F6807F114021368002B02BF58
:1054300007F110021368002BF3D1814202D3002040
:10544000086001E000F0C4F9002E86D0E06905EBA9
:10545000800000F5987001688C4209D1076038001F
:1054600011D1E2696868012191408843686074E75E
:105470002869864205D33069A04214BF776137613D
:1054800001E000F0A5F9002F3FF467AF28698742DB
:10549000ABD3BE61216929B1814226BF39618F61D9
:1054A00000F096F9606900283FF457AF29698842F7
:1054B0009BD37861876150E799F8040000F00300FE
:1054C00003287FF44AAFC5F80880D9F804004008E3
:1054D0004000C9F8040048F00100606048F804800A
:1054E0006DE16969894508D1A8686C614044A8608C
:1054F00040F001016160005161E1C008C0004FEA65
:10550000D00A8044BAF1200F36D2D9F80C70D9F8FD
:105510000860B94508BF00F05BF9B14508BF00F06D
:1055200057F9D9F80400C008C000B0EBCA0F18BF83
:1055300000F04EF905EBCA0000F128018E4206D0BA
:1055400029698E42C0F08180F16849457DD1B7421A
:1055500006D12868012101FA0AF18843286076E023
:105560002830874205D0286987426ED3B8684845FD
:105570006BD1F760BE606AE0D9F80C70D9F818609A
:105580004F450DD0D9F808002969884223D3C16856
:10559000494504BFB96849451DD1C760B8601CE0E2
:1055A00009F11400076837B909F110000768A7B1BD
:1055B00001E00846076807F114010A68002A02BFE3
:1055C00007F110010A68002AF3D12969884202D341
:1055D0000021016001E000F0FBF8002E37D0D9F87F
:1055E0001C0005EB800000F59870016889450AD120
:1055F0000760380012D1D9F81C2068680121914059
:105600008843686023E02869864205D330694845AD
:1056100014BF7761376101E000F0DAF8BFB12869A3
:10562000874212D3BE61D9F8101029B1814226BF3A
:1056300039618F6100F0CCF8D9F8140038B12969CC
:10564000884202D37861876101E000F0C1F848F038
:105650000100606048F80480686984420BD1C5F895
:105660000880ACE040084000C9F8040048F00100A0
:10567000606048F804804FEAD807202F22D205EB5B
:10568000C70000F128094E46B8F1100F38BF00F0EE
:105690009FF8286820FA07F1C90704D40121B9400E
:1056A0000843286007E0D9F80800296988422CBF20
:1056B000064600F08DF8C9F80840F460A660C4F80A
:1056C0000C907CE05FEA182008BF002123D0B0F5E1
:1056D000803F28BF1F211ED2A0F58071090C01F068
:1056E00008018840A0F58052120C02F0040290409C
:1056F000A0F580431B0CC1F10E0103F00203891ACF
:10570000C91A984001EBD030C11D28FA01F101F00F
:10571000010101EB4001E16100226261226105EBC0
:1057200081006A6822FA01F300F59870DB0706D45D
:10573000012303FA01F11143696004601CE01F2991
:1057400000680EBF00214908C1F1190108FA01F1F2
:1057500000E010464268D208D200424510D0CA0F7D
:1057600000EB820202F1100349001A68002AF0D10E
:1057700029698B4211D31C60A061E460A4600EE033
:105780002A698168904228BF914206D3CC60846028
:10579000A160E0600020A06101E000F019F8286A33
:1057A000401E28620BD1D5F8C80100E080680028AF
:1057B000FCD14FF0FF30286201E000F009F8C0464C
:1057C000C046BDE8F08700004C230020E0340020F4
:1057D000012000F017B800000749086808B1002050
:1057E00070470648C008C00008600549C908C900DC
:1057F000091A0160704700BF80370020EF3B00208E
:10580000E85B002080B5C046C046024A110018205F
:10581000ABBEFBE72600020000B583B0012140F2D9
:10582000FF10FEF748F903208DF8050000208DF8E1
:10583000070003208DF80400F320009000A9DFF892
:10584000000CFEF7C9F90320009000A9DFF8100D45
:10585000FEF7C2F93F20009000A9DFF8E80BFEF741
:10586000BBF94FF4F860009000A9DFF8DC0BFEF7FD
:10587000B3F900208DF804004FF4C050009000A947
:10588000DFF8BC0BFEF7A8F93C20009000A9DFF878
:10589000BC0BFEF7A1F94FF4FC40009000A9DFF823
:1058A000B00BFEF799F94EF28030009000A9DFF8B6
:1058B000A40BFEF791F940F60840009000A9DFF82C
:1058C000980BFEF789F901208DF8040001208DF86E
:1058D0000600DFF8880B4FF400510180DFF87C0BE5
:1058E0004FF400410180DFF8740B4FF480410180D8
:1058F0004FF46040009000A9DFF8640CFEF76CF9EB
:105900004FF4E070009000A9DFF8440BFEF764F953
:105910007020009000A9DFF83C0BFEF75DF9002035
:105920008DF806004FF40140009000A9DFF8100B3D
:10593000FEF752F94FF49E50009000A9DFF8200CBA
:10594000FEF74AF94020009000A9DFF8000BFEF7AF
:1059500043F94FF40060009000A9DFF8EC0AFEF76D
:105960003BF941F60C40009000A9DFF8E80AFEF789
:1059700033F9E720009000A9DFF8DC0AFEF72CF9E4
:1059800002208DF8040007220921DFF8B40AFEF78F
:1059900081F907220A21DFF8A80AFEF77BF907221E
:1059A0000221DFF89C0AFEF775F907220321DFF8D0
:1059B000900AFEF76FF907220A21DFF8A40BFEF721
:1059C00069F907220B21DFF8980BFEF763F908222B
:1059D0000621DFF8700AFEF75DF908220721DFF8DB
:1059E000640AFEF757F905220321DFF8740BFEF76E
:1059F00051F905220421DFF8680BFEF74BF9052267
:105A00000521DFF85C0BFEF745F90C220021DFF8D9
:105A1000540BFEF73FF90C220121DFF8480BFEF78B
:105A200039F90C220421DFF83C0BFEF733F90C2284
:105A30000521DFF8300BFEF72DF90C220721DFF8E6
:105A4000240BFEF727F90C220821DFF8180BFEF7CC
:105A500021F90C220921DFF80C0BFEF71BF90C22AF
:105A60000A21DFF8000BFEF715F90C220B21DFF8F5
:105A7000F40AFEF70FF90C220C21DFF8E80AFEF712
:105A800009F90C220D21DFF8DC0AFEF703F90C22DC
:105A90000E21DFF8D00AFEF7FDF80C220F21DFF807
:105AA000C40AFEF7F7F80C220021DFF8A009FEF780
:105AB000F1F80C220121DFF89409FEF7EBF80C2233
:105AC0000721DFF88809FEF7E5F80C220821DFF846
:105AD0007C09FEF7DFF80C220921DFF87009FEF7D8
