:020000040800F2
:10800000E0090020D19E0008A19D0008A39D000862
:10801000A59D0008A79D0008A99D0008000000007C
:10802000000000000000000000000000AB9D000800
:10803000AD9D000800000000AF9D0008B19D000844
:10804000119F0008159F0008199F00081D9F000838
:10805000219F0008259F0008299F00082D9F0008E8
:10806000319F0008359F0008399F00083D9F000898
:10807000419F0008459F0008499F00084D9F000848
:10808000519F0008559F0008599F00085D9F0008F8
:10809000619F0008659F0008699F00086D9F0008A8
:1080A000719F0008759F0008799F00087D9F000858
:1080B000819F0008859F0008899F00088D9F000808
:1080C000919F0008959F0008999F00089D9F0008B8
:1080D000A19F0008E58300086F830008E98200087B
:1080E000B19F0008B59F0008B99F0008BD9F000818
:1080F000C19F0008C59F0008C99F0008CD9F0008C8
:10810000D19F0008D59F0008D99F0008DD9F000877
:10811000E19F0008E59F0008819D0008ED9F000891
:10812000F19F0008F59F0008F99F0008FD9F0008D7
:1081300001A0000805A0000809A000080DA0000883
:1081400011A0000815A0000819A000081DA0000833
:1081500021A0000825A0000829A000082DA00008E3
:1081600031A0000835A0000839A000083DA0000893
:1081700041A0000845A0000849A000084DA0000843
:1081800051A0000855A000082DE9F04101215FF43D
:10819000C02000F093FA0121102000F09DFADFF8D2
:1081A000B843DFF8B8032060DFF8B4030078C0F309
:1081B0008000C0B2002807D05FF4E130A061012048
:1081C000DFF8A01308700BE0DFF89C03DFF89C13C6
:1081D000C27B51F82210A161807BDFF88813087000
:1081E000DFF88C03A060DFF88C0360605FF000654F
:1081F000E560DFF8840360615FF0FA5020610020E1
:108200006084002084F82400002084F825002000E9
:1082100000F0B0FADFF86413200000F06DFBDFF827
:108220006063DFF860033060DFF83C43DFF83C73E5
:10823000E07A57F82000B061DFF84C83A07A88F824
:108240000000DFF84803B060DFF844037060F560B9
:10825000DFF840037061DFF840033061DFF83C0372
:10826000F0614020308402207084002086F82400D1
:10827000002086F82500300000F07CFA18F1020199
:10828000300000F039FBDFF81863DFF818033060C6
:10829000607B57F82000B061DFF80C73207B3870EA
:1082A000DFF80803B060DFF808037060002086F88C
:1082B0002400002086F82500F560DFF8F8027061E0
:1082C0005FF03D503061DFF8F002F0614FF48070F4
:1082D000308401207084300000F04CFAB91C30006A
:1082E00000F00AFBBDE8F08138B5DFF86C422000F1
:1082F00000F03DFB0100080080B2002832D0DFF81A
:10830000BC020068C00405D54FF48050DFF8B022ED
:10831000108004E04FF48050DFF8A8221080DFF8CE
:108320004452DFF8A422C9B2280000F079FBDFF83C
:108330009C221178002905D0DFF8941208700020E3
:10834000107013E0010089B2002906D0020092B239
:10835000A91C200000F08EFA08E0A91C200000F003
:10836000CBFA03E08549200000F0C6FA31BD38B5EC
:10837000834C200000F0FBFA0100080080B20028C6
:108380002BD08E480068C00404D54FF480508C4A2E
:10839000108003E04FF480508A4A10807A4D8A4A58
:1083A000C9B2280000F03CFB884A1178002904D0AB
:1083B000884908700020107013E0010089B200297C
:1083C00006D0020092B2A91C200000F053FA08E087
:1083D000A91C200000F090FA03E07F49200000F083
:1083E0008BFA31BD38B56E4C200000F0C0FA0100A8
:1083F000080080B200282BD070480068C00404D563
:108400004FF480506E4A108003E04FF480506D4A64
:108410001080654D6C4AC9B2280000F001FB6B4A20
:108420001178002904D06D4908700020107013E005
:10843000010089B2002906D0020092B2A91C2000D6
:1084400000F018FA08E0A91C200000F055FA03E03B
:108450006349200000F050FA31BD70B505002E7957
:10846000F6B2360929794FF60F7001400902687992
:108470000A18A8790002E97943189818411E0020CB
:108480000024F6B2002E02D00C2E0CD017E089B2D8
:10849000F02906DA9BB292B20721A81C00F047FB34
:1084A00000E001240CE089B2102906D2DBB2D2B27E
:1084B0000721A81C00F056FB00E0012400E0012485
:1084C000A978002901D1002006E0E4B2002C03D0F5
:1084D0000221280000F0CDFAC0B280B270BD70B5A4
:1084E0000679F6B23609002102794FF60F710A407B
:1084F00012024179521881790902C379CB1899186F
:10850000491E00240025F6B2002E02D00C2E05D004
:1085100009E089B2F02900DA324C04E089B210296E
:1085200000D2114CFFE7002C03D1022100F0A1FA88
:1085300005E09BB292B2811C200000F0E1FAEDB29E
:10854000002D04D027490A6822F000420A60C0B218
:1085500080B270BD000000005005002000480040BF
:10856000D80500203800002000000E08509E0008AA
:108570002860024058600240400F00103A0000207E
:10858000780500200044004040010020886002403F
:10859000A0600240400F002000003D20001002407B
:1085A000A005002000100140480200204064024065
:1085B000B864024000003D10000002401404024074
:1085C0001A0402401804024004000020D4050020D0
:1085D000D5050020D605002042010020D705002047
:1085E0004A020020C805002010B40021002100210B
:1085F000022100210221DFF85021116811F00C0145
:10860000002904D0042906D0082908D02BE0DFF87F
:108610004011016029E0DFF83C11016025E0DFF83E
:108620002C412168C1F38051236813F03F030029D6
:1086300008D0DFF82011B1FBF3F32168C1F38811F2
:108640004B4307E0DFF80811B1FBF3F32168C1F3F6
:1086500088114B432168C1F30141491C4900B3FB18
:10866000F1F1016001E03A490160116811F0F00197
:108670000909394B595C0468CC404460116811F415
:10868000E051890A595C4468CC408460116811F457
:108690006041490B595C4268CA40C26010BC7047D7
:1086A000C9B2002904D02D490A681043086004E0CB
:1086B0002A490A6832EA000008607047C9B20029F6
:1086C00004D027490A681043086004E024490A6876
:1086D00032EA000008607047C9B2002904D021497D
:1086E0000A681043086004E01E490A6832EA000084
:1086F00008607047C9B2002904D01B490A681043BA
:10870000086004E018490A6832EA0000086070470F
:10871000C9B2002904D015490A681043086004E072
:1087200012490A6832EA000008607047C9B200299D
:1087300004D00F490A681043086004E00C490A6835
:1087400032EA0000086070470838024004380240EE
:108750000024F40000127A00240000203038024087
:10876000403802404438024010380240203802406D
:108770002438024030B593B00400A06800F03CFA01
:10878000A06800F039FA206800F046FBE068049029
:108790002068001D05900020079000200890002010
:1087A00009904FF480650A9500200B9000200C90F2
:1087B00000200D9000200E9000200F9000201090BF
:1087C000002011900020129004A9A06800F0B4FAD3
:1087D0004020079004A9606800F0AEFAA0690090FC
:1087E00094F82400042805DA94F824000003ADF876
:1087F000060002E00020ADF8060094F825000228EB
:1088000002D1ADF808500BE094F82500012804D1FE
:108810004FF4C060ADF8080002E00020ADF8080099
:10882000BDF80800002803D10020ADF8040003E0E3
:108830004FF48050ADF804000020ADF80C000C207F
:10884000ADF80A006946206800F037FB206880898F
:1088500050F00400216888812068808950F0080069
:10886000216888812068808950F4005021688881BF
:1088700013B030BD70B504000D001600608C0228E6
:1088800004D1218CE0690183C04606E0608C012898
:1088900003D1218CE0694183C046606800684008CC
:1088A000400061680860206801884FF6BF70014091
:1088B000206801802169606800F068FAB6B26068DB
:1088C00046606068C5602068808A50F0800021683A
:1088D00088822068808950F008002168888160685B
:1088E000006850F00100616808602068808950F0DD
:1088F00040002168888170BD38B504000D00608C8F
:10890000022804D1218CE0694183C04606E0608CD6
:10891000012803D1218CE0690183C046A06800686A
:1089200040084000A16808606169A06800F02EFA64
:108930002068808A50F040002168888244F2080054
:10894000A1684860A068C560A068006850F0010098
:10895000A16808602068808950F010002168888133
:108960002068808950F004002168888131BD2B493E
:10897000026812880A600A78520620D50268928935
:1089800052061CD501680A884FF6BF710A4001687B
:108990000A8001688A894FF6BF710A4001688A819E
:1089A00001688A8A4FF67F710A4001688A824168AD
:1089B0000968490849004068016000202CE0096806
:1089C0000268928912F01002114224D0016889884D
:1089D00001688A894FF6FB710A4001688A81016843
:1089E0008A894FF6EF710A4001688A8101688A8A94
:1089F0004FF6BF710A4001688A8281680968490898
:108A000049008268116044F2080180684068091AD0
:108A1000080080B200E0002070470000D005002070
:108A200070B5040016000025C9B2A01C00F0B0FA11
:108A300000281BD12078A178884204D0A078002893
:108A400014D100E008363079002807D03079E17879
:108A50008842F7D120003168884705003079002826
:108A600004D10121200000F004F80500280080B2A4
:108A700070BD10B50524C278803AC2700171210022
:108A8000C9B2801C00F0A4FA2000C0B210BD81B0B1
:108A90000CE0521E03788DF80130401C03788DF8ED
:108AA0000030401CBDF800300B80891C13009BB2C5
:108AB000002BEED101B07047F8B50400002500206E
:108AC000DFF82061300000F095FA070027712800D8
:108AD000C0B2305C2900C9B2214448712800451C4D
:108AE0003900C0B2C9B28842F1D1FF1CBF1C3900A5
:108AF000C9B2A01C00F06CFAFFB2380080B2F2BD1F
:108B000070B50C0015001E00320092B2E11CADB22F
:108B100000EB4500FFF7BBFF7600A670761D310025
:108B200089B2200000F054FA3000C0B270BD70B5B8
:108B300005000C0000262C4992B211EB42011A00EC
:108B400092B22000C0B22844FFF7A1FFE4B2002C8B
:108B500005D008263100C9B2280000F039FA3000EB
:108B6000C0B270BD2DE9F04705000C0090461F0013
:108B700000261F48007810F0010000280BD0E4B256
:108B8000002C05D008263100C9B2280000F020FAD8
:108B90003000C0B223E0DFF85490484600F0A8FA55
:108BA000DFF850A05FFA88F81AEB4801FFB23A00EC
:108BB00092B22000C0B22844FFF769FF72B6514656
:108BC000484600F073FA62B6E4B2002C05D00826DD
:108BD0003100C9B2280000F0FBF93000C0B2BDE896
:108BE000F087000050030020C805002000000E0898
:108BF000D8050020500400200168490849000160A0
:108C00000021016000214160002181600021C160DC
:108C10000021016121214161DFF89011884204D1D6
:108C20003D20DFF88C11086085E0DFF8881188426C
:108C300005D14FF47460DFF8781108607BE0DFF84D
:108C40007811884205D15FF47410DFF86411086070
:108C500071E0DFF86811884205D15FF07460DFF8D9
:108C60005011086067E0DFF85811884205D1DFF83D
:108C70005401DFF8541108605DE0DFF850118842BC
:108C800005D1DFF84C01DFF84011086053E0DFF850
:108C90004411884205D1DFF84001DFF82C1108604B
:108CA00049E0DFF83811884205D15FF03D50DFF828
:108CB000181108603FE0DFF82811884204D13D20F8
:108CC000DFF82011086036E0DFF81C11884205D17A
:108CD0004FF47460DFF80C1108602CE0DFF80C1121
:108CE000884204D15FF474103E49086023E0404993
:108CF000884204D15FF074603A4908601BE03D4946
:108D0000884203D12F483C49086014E03B4988421F
:108D100003D12F48384908600DE03949884203D112
:108D20002D483549086006E03649884203D15FF096
:108D30003D5031490860704710B400220368324A40
:108D400013400C68CA6814434A6914438A6914437F
:108D5000CA6914430A6A14434A6A14438A6A144368
:108D60004A6B14438A6B1443234303604369DB0853
:108D7000DB00CC6A0A6B1443234343610A694260F7
:108D80004A6882608968C16010BC7047144A90428A
:108D900001D21E4A00E01E4A880003D51D4801404A
:108DA000D16002E01B4801409160704710600240B2
:108DB0000860024028600240406002405860024063
:108DC000706002403D0000200C600240886002405C
:108DD000400F0020A060024000003D20B86002402B
:108DE000106402400864024028640240406402406B
:108DF00058640240706402400C640240886402407F
:108E0000A0640240B86402403F801CF00060024051
:108E1000006402407D0F7D0F80B55649884208D11D
:108E200001211020FFF782FC00211020FFF77EFCBB
:108E300042E0514988420AD101215FF40030FFF736
:108E400067FC00215FF40030FFF762FC34E04B491F
:108E500088420AD101215FF48020FFF759FC0021EC
:108E60005FF48020FFF754FC26E0454988420AD190
:108E700001215FF40020FFF74BFC00215FF400208C
:108E8000FFF746FC18E03F4988420AD101215FF410
:108E90008010FFF73DFC00215FF48010FFF738FCE5
:108EA0000AE03949884207D101212020FFF73EFC22
:108EB00000212020FFF73AFC01BD38B584B0050041
:108EC0000C000020002000200020A0890028298A12
:108ED00031F44051E08801432982A9892B4801409F
:108EE000A28820890243608902431143A981A98A8B
:108EF00031F44071A0890143A9826846FFF774FBF1
:108F00001C48854202D02048854201D1039900E0E7
:108F10000299A889000406D5192041432068400021
:108F2000B1FBF0F205E01920414320688000B1FB5D
:108F3000F0F26420B2FBF0F109010B001B09642080
:108F400000FB1322A889000408D5D0003230642227
:108F5000B0FBF2F010F00700014307E010013230DF
:108F60006422B0FBF2F010F00F000143298105B03C
:108F700030BD0000001001400044004000480040A7
:108F8000004C00400050004000140140F3E9FFFF96
:108F900010B40300FF2004000AE0E4B21A78544041
:108FA00022005B1C04000848805C44400748805C49
:108FB0000A00511E002AF0D1E4B2C0B250EA0420E7
:108FC00080B210BC70470000A8990008A89A000859
:108FD00038B504000D00A91E2000FFF7D9FF0100DD
:108FE000090A04EB050202F8021C04EB050101F872
:108FF000010C31BD020000200100481C515C002919
:10900000FAD17047B0F1006F21D03F49884220D09B
:109010003E4988421FD03E4988421ED03D49884281
:109020001DD03D4988421CD03C4988421BD03C4958
:1090300088421AD03B49884219D03B49884218D00F
:109040003A49884217D03A49884216D017E00020A2
:1090500017E0082015E0102013E0182011E0202070
:109060000FE028200DE030200BE0382009E0402000
:1090700007E0482005E0502003E0582001E05FF0C1
:10908000FF30704780B5FFF7BDFF022100F06DF89B
:1090900002BD80B572B600F053F8264800F0C5F85E
:1090A00001BD80B500F05AF862B601BDF8B5050003
:1090B0000E004024204F387810F00100002816D10F
:1090C000FFF7E7FF2800FFF7DDFF08E03168280021
:1090D00000F08BF88DF800002D1D361D641E002C4D
:1090E000F4D1FFF7DEFF387850F002003870F1BDA0
:1090F000124A402104E003681360001D121D491E3E
:109100000029F8D1704700000040000800800008E6
:1091100000C0000800000108000002080000040868
:10912000000006080000080800000A0800000C08FB
:1091300000000E08F3000100D805002050040020B4
:10914000DFF824010068002807D5DFF82001DFF8E8
:1091500020110160DFF81C1101607047DFF8080181
:10916000016851F000410160704770B504000020B3
:1091700008200800C0B2002801D100260EE0080037
:10918000C0B2012802D14FF4807607E0C9B20229AB
:1091900002D14FF4007601E04FF4407600F06EF813
:1091A0000100C9B208291ED12F4D286830F4407043
:1091B0002860286806432E60286830F0F800286090
:1091C000286854F0020404432C60286850F480306E
:1091D000286000F053F8296831F0020129602968FD
:1091E00031F0F8012960C0B270BD70B504000D0007
:1091F000082000F043F80100C9B2082913D11A4E23
:10920000306830F440703060306850F40070306086
:10921000306850F001003060256000F02FF83168B0
:10922000490849003160C0B270BD134908607047F9
:10923000082011480168C90301D5012010E0016828
:10924000C90601D505200BE0016811F0EF0F01D030
:10925000062005E00068800701D5072000E008200F
:10926000C0B2704700000000103C0240043C0240C5
:1092700023016745AB89EFCD0C3C024080B5082047
:109280008DF80000FFF7D4FF8DF8000003E0FFF732
:10929000CFFF8DF800009DF800000128F7D09DF861
:1092A000000002BD2DE9FE438F4C200000F03EF986
:1092B0008E4D280000F03AF98D4E300000F036F95E
:1092C0008C4800F033F98C4F380000F02FF9DFF8AC
:1092D0002C82404600F02AF9DFF82492484600F03C
:1092E00025F9012140F2FF10FFF7DAF903208DF88C
:1092F000050000208DF8070001208DF804000020F3
:109300008DF806004FF4807000906946200000F050
:109310008FF94FF4805000906946280000F088F9DA
:10932000402000906946380000F082F94FF4006058
:1093300000906946404600F07BF90C200090694699
:10934000484600F075F902208DF804000722092133
:10935000200000F0C1F907220A21200000F0BCF92A
:1093600007220221200000F0B7F907220321200084
:1093700000F0B2F907220A21280000F0ADF9072217
:109380000B21280000F0A8F908220621300000F087
:10939000A3F908220721300000F09EF940F20C608A
:1093A00000906946200000F043F94FF440600090BF
:1093B0006946280000F03CF9C02000906946300062
:1093C00000F036F9BDE8F7831FB501211020FFF743
:1093D00075F90920ADF800000020ADF8020042F256
:1093E000D00001900020ADF8080000208DF80A00A0
:1093F000444C6946200000F099F90021200000F05B
:10940000CAF901220121200000F0F0F90121200019
:1094100000F0CFF900203C4908801FBD80B53B48D3
:109420003B4908604FF4806000F0ECF901208DF8B2
:1094300003001B208DF8000006208DF8010001209C
:109440008DF80200684600F0E2F936208DF8000041
:1094500004208DF8010000208DF80200684600F01D
:10946000D6F927208DF8000006208DF80100002095
:109470008DF80200684600F0CAF926208DF8000039
:1094800006208DF8010000208DF80200684600F0EB
:10949000BEF925208DF8000006208DF8010000207F
:1094A0008DF80200684600F0B2F901BD80B50121D7
:1094B0005FF40010FFF7F4F801215FF48000FFF77C
:1094C000EFF8FFF7EFFEFEF75FFEFFF7A7FF4FF69F
:1094D000FF701049086000200F49086005200F49FF
:1094E000086001BD000000000000024000040240CE
:1094F00000080240000C024000100240001402402C
:10950000001C0240001000401010004000800008C5
:1095100008ED00E014E000E018E000E010E000E0FA
:1095200080B5FFF7C3FFFFF74FFF01BD80B5374997
:10953000884208D101210120FFF7DCF80021012039
:10954000FFF7D8F860E03249884208D101210220B3
:10955000FFF7D0F800210220FFF7CCF854E02D49A6
:10956000884208D101210420FFF7C4F8002104201B
:10957000FFF7C0F848E02849884208D101210820B7
:10958000FFF7B8F800210820FFF7B4F83CE02349C2
:10959000884208D101211020FFF7ACF800211020EB
:1095A000FFF7A8F830E01E49884208D101212020A9
:1095B000FFF7A0F800212020FFF79CF824E01949CC
:1095C000884208D101214020FFF794F80021402073
:1095D000FFF790F818E01449884208D10121802053
:1095E000FFF788F800218020FFF784F80CE00F498E
:1095F000884209D101214FF48070FFF77BF80021E8
:109600004FF48070FFF776F801BD000000000240C3
:109610000004024000080240000C0240001002401A
:109620000014024000180240001C024000200240CA
:10963000F0B4002200220022002349E0012414FAA1
:1096400003F20D681540954241D1032502681E00C2
:10965000F6B2760015FA06F6B243026006680F7994
:109660001A00D2B2520097403E4306600A79012A9E
:1096700002D00A79022A1AD182681E00F6B2760058
:1096800015FA06F6B243826086684F791A00D2B2A4
:10969000520097403E43866042689C4032EA040490
:1096A000446042688C799C40A4B222434260C46802
:1096B0001A00D2B25200954034EA0505C560C4686C
:1096C000CD791A00D2B2520095402C43C4605B1C85
:1096D000102BB3D3F0BC704770B400230023D2B278
:1096E00011F00703DBB29B009A400B009BB2DB102A
:1096F00000EB83040B009BB2DB1000EB83031D6ABD
:109700000F2611F00703DBB29B009E40B543256294
:109710000B009BB2DB1000EB83031B6A1A4389B278
:10972000C91000EB8100026270BC704710B40022C7
:109730000488274B98420ED02B4A90420BD0B0F1B0
:10974000804F08D0234A904205D0234A904202D04D
:10975000224A904204D14FF68F7214404A88144333
:109760001F4A904207D01F4A904204D04FF6FF4252
:1097700014400A89144304804A68C2620A88028538
:10978000984202D0184A904201D1897A018601217B
:10979000818210BC7047C9B2002904D0018851F001
:1097A0008001018004E002884FF67F710A40028048
:1097B0007047C9B2002904D0018851F0010101802D
:1097C00004E002884FF6FE710A40028070470000F4
:1097D000000001400004004000080040000C004070
:1097E000001000400014004000040140D2B2002AE2
:1097F00003D082891143818103E0828932EA010129
:10980000818170471A4908431A490860704700214E
:1098100000210F23C17800291FD01649096811F4CF
:10982000E061D1F5E061090AD1F10402DBB20B413C
:10983000417811FA02F281780B401A4312010E4965
:109840000378CA540121027812F01F0291400B4A9A
:109850000078401142F8201009E00121027812F04E
:109860001F029140064A0078401142F820107047CC
:109870000000FA050CED00E000E400E000E100E08B
:1098800080E100E080B53C48016851F4700101605E
:109890003A49086850F0010008600020384A10601A
:1098A0000A68384802400A603748384A1060086839
:1098B00030F48020086000203549086000F005F889
:1098C0005FF000603349086001BD82B00020019064
:1098D000002000902949086850F48030086008682A
:1098E00010F4003000900198401C0190009800286E
:1098F00003D10198B0F5A06FF1D10868800302D5BB
:109900000120009001E000200090009801282FD154
:109910002148026852F0805202602048026852F4E6
:1099200080420260164802680260026852F40042F7
:109930000260026852F4A0520260194A134B1A6086
:109940000A6852F080720A600A689201FCD540F2FF
:109950000561144A11600168890889000160016885
:1099600051F002010160016811F00C010829FAD1DF
:1099700002B070470000000088ED00E000380240AF
:1099800008380240FFFFF6FE103000240438024081
:109990000C38024008ED00E0403802400070004002
:1099A00008544007003C024000C1814001C0804192
:1099B00001C0804100C1814001C0804100C181409F
:1099C00000C1814001C0804101C0804100C181408F
:1099D00000C1814001C0804100C1814001C080417F
:1099E00001C0804100C1814001C0804100C181406F
:1099F00000C1814001C0804100C1814001C080415F
:109A000001C0804100C1814000C1814001C080414E
:109A100001C0804100C1814001C0804100C181403E
:109A200000C1814001C0804101C0804100C181402E
:109A300000C1814001C0804100C1814001C080411E
:109A400001C0804100C1814000C1814001C080410E
:109A500001C0804100C1814001C0804100C18140FE
:109A600000C1814001C0804100C1814001C08041EE
:109A700001C0804100C1814001C0804100C18140DE
:109A800000C1814001C0804101C0804100C18140CE
:109A900000C1814001C0804100C1814001C08041BE
:109AA00001C0804100C1814000C0C101C30302C2A6
:109AB000C60607C705C5C404CC0C0DCD0FCFCE0E0E
:109AC0000ACACB0BC90908C8D81819D91BDBDA1A7E
:109AD0001EDEDF1FDD1D1CDC14D4D515D71716D6EE
:109AE000D21213D311D1D010F03031F133F3F2325E
:109AF00036F6F737F53534F43CFCFD3DFF3F3EFECE
:109B0000FA3A3BFB39F9F83828E8E929EB2B2AEA3D
:109B1000EE2E2FEF2DEDEC2CE42425E527E7E626AD
:109B200022E2E323E12120E0A06061A163A3A2621D
:109B300066A6A767A56564A46CACAD6DAF6F6EAE8D
:109B4000AA6A6BAB69A9A86878B8B979BB7B7ABAFD
:109B5000BE7E7FBF7DBDBC7CB47475B577B7B6766D
:109B600072B2B373B17170B05090915193535292DD
:109B700096565797559594549C5C5D9D5F9F9E5E4D
:109B80005A9A9B5B99595898884849894B8B8A4ABD
:109B90004E8E8F4F8D4D4C8C44848545874746862D
:109BA000824243834181804038B51D4801681D4889
:109BB000006800F049F8FFF7B3FC4FF480541A4DE9
:109BC0002C804FF40060194908800420184908804F
:109BD00008201849088062B600F072F803E008888F
:109BE0000888401E088014490868C0F340700028A7
:109BF000F9D0086830F00050086010490888002843
:109C0000EDD10F480068C00402D52000288002E092
:109C100020000C4A10804FF47A7008800888E2E730
:109C20000000002000000E081A0402401A1402402E
:109C30001A1C0240181C0240C805002034000020F5
:109C4000140402401804024070B40022194B10E0C2
:109C5000B0FBF3F4B0FBF3F503FB1500164DE4B2D3
:109C60002C5D164D1600F6B2AC550A24B3FBF4F386
:109C7000521C1400E4B2082CEADB104B2020140024
:109C8000E4B21855521C08E01000C0B2084410F8A5
:109C9000090C1400E4B21855521C1000C0B208445C
:109CA00010F8090C0028EFD10020D2B2985470BCF3
:109CB000704700BF80969800E09E00085003002087
:109CC00010B501215FF08050FEF7F8FC0A480168EA
:109CD00051F48071016001215FF48020FEF7E0FC07
:109CE000064C206850F400702060012000F008F855
:109CF00020680007FCD510BD0070004004700040D3
:109D0000C0B201490860704720000E4230B40025FF
:109D100013E050F8042BD30744BFA9F101039A18AC
:109D2000091F042942F8045BFAD213468C0744BF8A
:109D300015809B1CC90748BF1D7050F8041B0029E3
:109D4000E7D130BC704730B501688468421841687B
:109D500002EB5103C90703D54C4401E0491C05D16E
:109D60009A420AD012F9011B12F8015B002904F88B
:109D7000015BF3D4491EF7D5F2E70C3030BD00008B
:109D80000548018891F0010101800448016851F003
:109D9000005101607047000010100040C80500200D
:109DA0007047FEE7FEE7FEE7FEE770477047704743
:109DB000704700004170706C69636174696F6E2058
:109DC00076312E302E302030372E30312E32303258
:109DD00032207777772E696E746D6173682E727595
:109DE0000000000010B5074979441831064C7C4446
:109DF000163404E00A68081D114488470146A14250
:109E0000F8D110BD2C000000480000004EF688512B
:109E1000CEF20001086840F470000860BFF34F8F75
:109E2000BFF36F8F4FF00070E1EE100A7047000033
:109E3000DDFEFFFFA4050000380000200000000048
:109E400007FFFFFF14020000560000000000002082
:109E5000C012000080250000004B000000E100005F
:109E600000C20100008403000008070000100E007B
:109E70000120C046002801D0FFF7B4FFAFF30080F7
:109E80000020AFF30080FFF78FFE00F000F800F035
:109E900001B800000746384600F002F8FBE7000072
:109EA00080B5AFF30080024A11001820ABBEFBE77B
:109EB000260002000548014603B4684680F309887D
:109EC000AFF30080FFF7A2FFFFF7D2FFA5EDF5FE8D
:109ED000014880470148004785980008B59E000862
:109EE000303132333435363738390000FFF758BF58
:109EF000FFF757BFFFF756BFFFF755BFFFF754BF38
:109F0000FFF753BFFFF752BFFFF751BFFFF750BF37
:109F1000FFF7FEBFFFF7FEBFFFF7FEBFFFF7FEBF75
:109F2000FFF7FEBFFFF7FEBFFFF7FEBFFFF7FEBF65
:109F3000FFF7FEBFFFF7FEBFFFF7FEBFFFF7FEBF55
:109F4000FFF7FEBFFFF7FEBFFFF7FEBFFFF7FEBF45
:109F5000FFF7FEBFFFF7FEBFFFF7FEBFFFF7FEBF35
:109F6000FFF7FEBFFFF7FEBFFFF7FEBFFFF7FEBF25
:109F7000FFF7FEBFFFF7FEBFFFF7FEBFFFF7FEBF15
:109F8000FFF7FEBFFFF7FEBFFFF7FEBFFFF7FEBF05
:109F9000FFF7FEBFFFF7FEBFFFF7FEBFFFF7FEBFF5
:109FA000FFF7FEBFFEF71EBAFEF7E1B9FEF79CB958
:109FB000FFF7FEBFFFF7FEBFFFF7FEBFFFF7FEBFD5
:109FC000FFF7FEBFFFF7FEBFFFF7FEBFFFF7FEBFC5
:109FD000FFF7FEBFFFF7FEBFFFF7FEBFFFF7FEBFB5
:109FE000FFF7FEBFFFF7FEBFFFF7CABEFFF7FEBFDA
:109FF000FFF7FEBFFFF7FEBFFFF7FEBFFFF7FEBF95
:10A00000FFF7FEBFFFF7FEBFFFF7FEBFFFF7FEBF84
:10A01000FFF7FEBFFFF7FEBFFFF7FEBFFFF7FEBF74
:10A02000FFF7FEBFFFF7FEBFFFF7FEBFFFF7FEBF64
:10A03000FFF7FEBFFFF7FEBFFFF7FEBFFFF7FEBF54
:10A04000FFF7FEBFFFF7FEBFFFF7FEBFFFF7FEBF44
:10A05000FFF7FEBFFFF7FEBF08B49D0008DF8400D6
:10A060000803FD00045B84000810FD0004B98A00A9
:10A070000811F1000D0102030401020304060708A0
:03A0800009E803E9
:02000004080EE4
:10000000080000000A000A000A00010401040104BB
:0400000508009ED180
:00000001FF
