:020000040800F2
:10000000D03B0020490B0108290A01082B0A0108EE
:100010002D0A01082F0A0108310A0108000000001A
:10002000000000000000000000000000330A01088A
:10003000350A010800000000370A0108390A0108E2
:10004000BD0B0108C10B0108C50B0108C90B010854
:10005000CD0B0108D10B010875BD0008D50B0108B7
:10006000D90B0108DD0B0108E10B0108E50B0108C4
:10007000E90B0108ED0B0108F10B0108F50B010874
:10008000F90B0108FD0B0108010C0108050C010822
:10009000090C01080D0C0108110C0108BD0901082B
:1000A000150C0108190C01081D0C0108210C010890
:1000B000250C0108290C01082D0C0108310C010840
:1000C000350C0108390C01083D0C0108410C0108F0
:1000D000450C0108576C0008BF6B0008276B00082F
:1000E000490C01084D0C0108510C0108550C010880
:020000040801F1
:1000000050F0006001494860D7E70000342E00201E
:10001000D02F0020943600207448006830F400404F
:10002000724908607148006830F480406F49086088
:100030006E48006830F480306C4908606B48406856
:1000400030F4801069494860704780B500F0A6F828
:100050006748408E00EE100AB8EE400A6348D0EDC3
:10006000240AB4EE600AF1EE10FA0CD55F4800687D
:1000700030F400405D4908605C48006830F480401E
:100080005A49086054E05A48808E00EE100AB8EED3
:10009000400A5648D0ED240AB4EE600AF1EE10FA98
:1000A00046D452480068C0F3C030002805D04F48FD
:0400B0000303000046
:02000004080AE8
:1000000001040000000000000000000000000000EB
:1000100000000000000000000000000000000000E0
:1000200000000000000000000000000000000000D0
:1000300000000000000000000000000000000000C0
:1000400000000000000000000000000000000000B0
:1000500000000000000000000000000000000000A0
:100060000000000000000000000000000000000090
:100070000000000000000000000000000000000080
:100080000000000000000000000000000000000070
:100090000000000000000000000000000000000060
:02000004080CE6
:1000000001040104010400000000000000000000E1
:1000100000000000000000000000000000000000E0
:1000200000000000000000000000000000000000D0
:1000300000000000000000000000000000000000C0
:1000400000000000000000000000000000000000B0
:1000500000000000000000000000000000000000A0
:100060000000000000000000000000000000000090
:100070000000000000000000000000000000000080
:100080000000000000000000000000000000000070
:100090000000000000000000000000000000000060
:02000004080EE4
:10000000080000000A000A000A0001048813E8033F
:100010000A00E903A10F0100000000000000000039
:1000200000001400010000000000000000000000BB
:10003000D007140032009600140096000000803FA4
:100040000000803F0000803F0000803F0000803FB4
:100050000000803F0000803F0000803F0000803FA4
:100060000000803F0000803F0000803F3763BF42B8
:10007000682FB93E4F3BBC3DC800C80000080004D3
:10008000C800C800C800C8000000C800C8000104BB
:100090000104010401000000CDCC4C3D00401C4691
:1000A0000000C8430000A042000020400000404083
:1000B0000000A0410000003F000000000000000020
:0400000508010B499A
:00000001FF
