:020000040800F2
:10800000F0090020E59D0008B59C0008B79C000819
:10801000B99C0008BB9C0008BD9C00080000000043
:10802000000000000000000000000000BF9C0008ED
:10803000C19C000800000000C39C0008C59C00080B
:10804000259E0008299E00082D9E0008319E0008EC
:10805000359E0008399E00083D9E0008419E00089C
:10806000459E0008499E00084D9E0008519E00084C
:10807000559E0008599E00085D9E0008619E0008FC
:10808000659E0008699E00086D9E0008719E0008AC
:10809000759E0008799E00087D9E0008819E00085C
:1080A000859E0008899E00088D9E0008919E00080C
:1080B000959E0008999E00089D9E0008A19E0008BC
:1080C000A59E0008A99E0008AD9E0008B19E00086C
:1080D000B59E0008138400088F83000807830008FA
:1080E000C59E0008C99E0008CD9E0008D19E0008CC
:1080F000D59E0008D99E0008DD9E0008E19E00087C
:10810000E59E0008E99E0008ED9E0008F19E00082B
:10811000F59E0008F99E0008959C0008019F000844
:10812000059F0008099F00080D9F0008119F000887
:10813000159F0008199F00081D9F0008219F000837
:10814000259F0008299F00082D9F0008319F0008E7
:10815000359F0008399F00083D9F0008419F000897
:10816000459F0008499F00084D9F0008519F000847
:10817000559F0008599F00085D9F0008619F0008F7
:10818000659F0008699F0008BFF34F8FDFF82C142C
:108190000A6812F4E062DFF8280402430A60BFF3C1
:1081A0004F8F00BFFDE72DE9F04101215FF4C020B2
:1081B00000F0BCFA0121102000F0C6FADFF80444F8
:1081C000DFF804042060DFF804040078C0F38000C6
:1081D000C0B2002807D05FF4E130A0610120DFF8D1
:1081E000F01308700BE0DFF8EC03DFF8EC13C27B50
:1081F00051F82210A161807BDFF8D4130870DFF8FA
:10820000DC03A060DFF8D80360605FF00065E56024
:10821000DFF8D00360615FF0FA50206100206084D5
:10822000002084F82400002084F82500200000F0BD
:10823000C9FADFF8B413200000F086FBDFF8AC6366
:10824000DFF8AC033060DFF88C43DFF88C73E07A42
:1082500057F82000B061DFF89C83A07A88F800000E
:10826000DFF89403B060DFF894037060F560DFF826
:1082700090037061DFF88C033061DFF88C03F061EC
:108280004020308402207084002086F824000020E2
:1082900086F82500300000F095FA18F10201300050
:1082A00000F052FBDFF86463DFF864033060607B4A
:1082B00057F82000B061DFF85C73207B3870DFF87E
:1082C0005803B060DFF854037060002086F8240083
:1082D000002086F82500F560DFF8440370615FF048
:1082E0003D503061DFF83C03F0614FF48070308422
:1082F00001207084300000F065FAB91C300000F0F5
:1083000023FBBDE8F08138B5DFF8B842200000F06B
:1083100056FB0100080080B2002832D0DFF80803C5
:108320000068C00405D54FF48050DFF800231080AA
:1083300004E04FF48050DFF8F8221080DFF890520C
:10834000DFF8F022C9B2280000F092FBDFF8E82243
:108350001178002905D0DFF8E412087000201070B1
:1083600014E0010089B2002906D0020092B2A91CD3
:10837000200000F0A7FA09E0A91C200000F0E4FAB0
:1083800004E0DFF86412200000F0DEFA31BD38B5F9
:10839000DFF85842200000F012FB0100080080B214
:1083A000002831D0DFF880020068C00405D54FF402
:1083B0008050DFF87822108004E04FF48050DFF81E
:1083C000702210808B4DDFF86C22C9B2280000F0BB
:1083D0004FFBDFF864221178002905D0DFF8601226
:1083E00008700020107013E0010089B2002906D047
:1083F000020092B2A91C200000F064FA08E0A91C57
:10840000200000F0A1FA03E08E49200000F09CFA61
:1084100031BD38B57D4C200000F0D1FA01000800D4
:1084200080B200282BD080480068C00404D54FF4E7
:1084300080507E4A108003E04FF480507C4A1080C8
:10844000744D7C4AC9B2280000F012FB7A4A1178B8
:10845000002904D07C4908700020107013E001004E
:1084600089B2002906D0020092B2A91C200000F0B7
:1084700029FA08E0A91C200000F066FA03E073491D
:10848000200000F061FA31BD70B505002E79F6B21A
:10849000360929794FF60F700140090268790A18E8
:1084A000A8790002E97943189818411E0020002499
:1084B000F6B2002E02D00C2E0CD017E089B2F029B3
:1084C00006DA9BB292B20721A81C00F058FB00E02C
:1084D00001240CE089B2102906D2DBB2D2B2072106
:1084E000A81C00F067FB00E0012400E00124A9784B
:1084F000002901D1002006E0E4B2002C03D00221C3
:10850000280000F0DEFAC0B280B270BD70B5067906
:10851000F6B23609002102794FF60F710A401202B5
:108520004179521881790902C379CB189918491EEB
:1085300000240025F6B2002E02D00C2E05D009E052
:1085400089B2F02900DA424C04E089B2102900D245
:10855000204CFFE7002C03D1022100F0B2FA05E025
:108560009BB292B2811C200000F0F2FAEDB2002D15
:1085700004D037490A6822F000420A60C0B280B2D3
:1085800070BD80B53348A52101705A214170A521E5
:1085900081705A21C170FFF7F7FD042002BD2D48FC
:1085A0000021017000214170002181700021C17003
:1085B0000021017100214171704700000CED00E0C5
:1085C0000400FA056005002000480040E80500208E
:1085D0004800002000000E08649D0008286002404A
:1085E00058600240400F00104A000020880500201B
:1085F000004400405001002088600240A06002401A
:10860000400F002000003D2000100240B005002077
:10861000001001405802002040640240B86402404B
:1086200000003D1000000240140402401A04024001
:10863000180402400C000020E4050020E50500209D
:10864000E605002052010020E70500205A02002024
:10865000D80500200000002010B4002100210021D6
:10866000022100210221DFF83421116811F00C01F0
:10867000002904D0042906D0082908D02BE0DFF80F
:108680002411016029E0DFF82011016025E0DFF806
:1086900010412168C1F38051236813F03F03002982
:1086A00008D0DFF80411B1FBF3F32168C1F388119E
:1086B0004B4307E0DFF8EC10B1FBF3F32168C1F3A3
:1086C00088114B432168C1F30141491C4900B3FBA8
:1086D000F1F1016001E033490160116811F0F0012E
:1086E0000909324B595C0468CC404460116811F4AC
:1086F000E051890A595C4468CC408460116811F4E7
:108700006041490B595C4268CA40C26010BC704766
:10871000C9B2002904D026490A681043086004E061
:1087200023490A6832EA000008607047C9B200298C
:1087300004D020490A681043086004E01D490A6813
:1087400032EA000008607047C9B2002904D01A4913
:108750000A681043086004E017490A6832EA00001A
:1087600008607047C9B2002904D014490A68104350
:10877000086004E011490A6832EA000008607047A6
:10878000C9B2002904D00E490A681043086004E009
:108790000B490A6832EA0000086070470838024056
:1087A000043802400024F40000127A003400002053
:1087B00030380240403802404438024020380240FD
:1087C0002438024030B593B00400A06800F03CFAB1
:1087D000A06800F039FA206800F046FBE0680490D9
:1087E0002068001D059000200790002008900020C0
:1087F00009904FF480650A9500200B9000200C90A2
:1088000000200D9000200E9000200F90002010906E
:10881000002011900020129004A9A06800F0B4FA82
:108820004020079004A9606800F0AEFAA0690090AB
:1088300094F82400042805DA94F824000003ADF825
:10884000060002E00020ADF8060094F8250002289A
:1088500002D1ADF808500BE094F82500012804D1AE
:108860004FF4C060ADF8080002E00020ADF8080049
:10887000BDF80800002803D10020ADF8040003E093
:108880004FF48050ADF804000020ADF80C000C202F
:10889000ADF80A006946206800F037FB206880893F
:1088A00050F00400216888812068808950F0080019
:1088B000216888812068808950F40050216888816F
:1088C00013B030BD70B504000D001600608C022896
:1088D00004D1218CE0690183C04606E0608C012848
:1088E00003D1218CE0694183C0466068006840087C
:1088F000400061680860206801884FF6BF70014041
:10890000206801802169606800F068FAB6B260688A
:1089100046606068C5602068808A50F080002168E9
:1089200088822068808950F008002168888160680A
:10893000006850F00100616808602068808950F08C
:1089400040002168888170BD38B504000D00608C3E
:10895000022804D1218CE0694183C04606E0608C86
:10896000012803D1218CE0690183C046A06800681A
:1089700040084000A16808606169A06800F02EFA14
:108980002068808A50F040002168888244F2080004
:10899000A1684860A068C560A068006850F0010048
:1089A000A16808602068808950F0100021688881E3
:1089B0002068808950F004002168888131BD2B49EE
:1089C000026812880A600A78520620D502689289E5
:1089D00052061CD501680A884FF6BF710A4001682B
:1089E0000A8001688A894FF6BF710A4001688A814E
:1089F00001688A8A4FF67F710A4001688A8241685D
:108A00000968490849004068016000202CE00968B5
:108A10000268928912F01002114224D001688988FC
:108A200001688A894FF6FB710A4001688A810168F2
:108A30008A894FF6EF710A4001688A8101688A8A43
:108A40004FF6BF710A4001688A8281680968490847
:108A500049008268116044F2080180684068091A80
:108A6000080080B200E0002070470000E005002010
:108A700070B5040016000025C9B2A01C00F0B0FAC1
:108A800000281BD12078A178884204D0A078002843
:108A900014D100E008363079002807D03079E17829
:108AA0008842F7D1200031688847050030790028D6
:108AB00004D10121200000F004F80500280080B254
:108AC00070BD10B50524C278803AC27001712100D2
:108AD000C9B2801C00F0A4FA2000C0B210BD81B061
:108AE0000CE0521E03788DF80130401C03788DF89D
:108AF0000030401CBDF800300B80891C13009BB275
:108B0000002BEED101B07047F8B50400002500201D
:108B1000DFF82061300000F095FA07002771280087
:108B2000C0B2305C2900C9B2214448712800451CFC
:108B30003900C0B2C9B28842F1D1FF1CBF1C390054
:108B4000C9B2A01C00F06CFAFFB2380080B2F2BDCE
:108B500070B50C0015001E00320092B2E11CADB2DF
:108B600000EB4500FFF7BBFF7600A670761D3100D5
:108B700089B2200000F054FA3000C0B270BD70B568
:108B800005000C0000262C4992B211EB42011A009C
:108B900092B22000C0B22844FFF7A1FFE4B2002C3B
:108BA00005D008263100C9B2280000F039FA30009B
:108BB000C0B270BD2DE9F04705000C0090461F00C3
:108BC00000261F48007810F0010000280BD0E4B206
:108BD000002C05D008263100C9B2280000F020FA88
:108BE0003000C0B223E0DFF85490484600F0A8FA05
:108BF000DFF850A05FFA88F81AEB4801FFB23A009C
:108C000092B22000C0B22844FFF769FF72B6514605
:108C1000484600F073FA62B6E4B2002C05D008268C
:108C20003100C9B2280000F0FBF93000C0B2BDE845
:108C3000F087000060030020D805002000000E0827
:108C4000E80500206004002001684908490001602F
:108C50000021016000214160002181600021C1608C
:108C60000021016121214161DFF89011884204D186
:108C70003D20DFF88C11086085E0DFF8881188421C
:108C800005D14FF47460DFF8781108607BE0DFF8FD
:108C90007811884205D15FF47410DFF86411086020
:108CA00071E0DFF86811884205D15FF07460DFF889
:108CB0005011086067E0DFF85811884205D1DFF8ED
:108CC0005401DFF8541108605DE0DFF8501188426C
:108CD00005D1DFF84C01DFF84011086053E0DFF800
:108CE0004411884205D1DFF84001DFF82C110860FB
:108CF00049E0DFF83811884205D15FF03D50DFF8D8
:108D0000181108603FE0DFF82811884204D13D20A7
:108D1000DFF82011086036E0DFF81C11884205D129
:108D20004FF47460DFF80C1108602CE0DFF80C11D0
:108D3000884204D15FF474103E49086023E0404942
:108D4000884204D15FF074603A4908601BE03D49F5
:108D5000884203D12F483C49086014E03B498842CF
:108D600003D12F48384908600DE03949884203D1C2
:108D70002D483549086006E03649884203D15FF046
:108D80003D5031490860704710B400220368324AF0
:108D900013400C68CA6814434A6914438A6914432F
:108DA000CA6914430A6A14434A6A14438A6A144318
:108DB0004A6B14438A6B1443234303604369DB0803
:108DC000DB00CC6A0A6B1443234343610A694260A7
:108DD0004A6882608968C16010BC7047144A90423A
:108DE00001D21E4A00E01E4A880003D51D480140FA
:108DF000D16002E01B480140916070471060024062
:108E00000860024028600240406002405860024012
:108E1000706002403D0000200C600240886002400B
:108E2000400F0020A060024000003D20B8600240DA
:108E3000106402400864024028640240406402401A
:108E400058640240706402400C640240886402402E
:108E5000A0640240B86402403F801CF00060024001
:108E6000006402407D0F7D0F80B55649884208D1CD
:108E700001211020FFF784FC00211020FFF780FC67
:108E800042E0514988420AD101215FF40030FFF7E6
:108E900069FC00215FF40030FFF764FC34E04B49CB
:108EA00088420AD101215FF48020FFF75BFC00219A
:108EB0005FF48020FFF756FC26E0454988420AD13E
:108EC00001215FF40020FFF74DFC00215FF400203A
:108ED000FFF748FC18E03F4988420AD101215FF4BE
:108EE0008010FFF73FFC00215FF48010FFF73AFC91
:108EF0000AE03949884207D101212020FFF740FCD0
:108F000000212020FFF73CFC01BD38B584B00500EE
:108F10000C000020002000200020A0890028298AC1
:108F200031F44051E08801432982A9892B4801404E
:108F3000A28820890243608902431143A981A98A3A
:108F400031F44071A0890143A9826846FFF784FB90
:108F50001C48854202D02048854201D1039900E097
:108F60000299A889000406D51920414320684000D1
:108F7000B1FBF0F205E01920414320688000B1FB0D
:108F8000F0F26420B2FBF0F109010B001B09642030
:108F900000FB1322A889000408D5D00032306422D7
:108FA000B0FBF2F010F00700014307E0100132308F
:108FB0006422B0FBF2F010F00F000143298105B0EC
:108FC00030BD000000100140004400400048004057
:108FD000004C00400050004000140140F3E9FFFF46
:108FE00010B40300FF2004000AE0E4B21A785440F1
:108FF00022005B1C04000848805C44400748805CF9
:109000000A00511E002AF0D1E4B2C0B250EA042096
:1090100080B210BC70470000B8980008B8990008EA
:1090200038B504000D00A91E2000FFF7D9FF01008C
:10903000090A04EB050202F8021C04EB050101F821
:10904000010C31BD020000200100481C515C0029C8
:10905000FAD17047B0F1006F21D03F49884220D04B
:109060003E4988421FD03E4988421ED03D49884231
:109070001DD03D4988421CD03C4988421BD03C4908
:1090800088421AD03B49884219D03B49884218D0BF
:109090003A49884217D03A49884216D017E0002052
:1090A00017E0082015E0102013E0182011E0202020
:1090B0000FE028200DE030200BE0382009E04020B0
:1090C00007E0482005E0502003E0582001E05FF071
:1090D000FF30704780B5FFF7BDFF022100F06DF84B
:1090E00002BD80B572B600F053F8264800F0C5F80E
:1090F00001BD80B500F05AF862B601BDF8B50500B3
:109100000E004024204F387810F00100002816D1BE
:10911000FFF7E7FF2800FFF7DDFF08E031682800D0
:1091200000F08BF88DF800002D1D361D641E002CFC
:10913000F4D1FFF7DEFF387850F002003870F1BD4F
:10914000124A402104E003681360001D121D491EED
:109150000029F8D170470000004000080080000896
:1091600000C0000800000108000002080000040818
:10917000000006080000080800000A0800000C08AB
:1091800000000E08F3000100E80500206004002044
:10919000DFF824010068002807D5DFF82001DFF898
:1091A00020110160DFF81C1101607047DFF8080131
:1091B000016851F000410160704770B50400002063
:1091C00008200800C0B2002801D100260EE00800E7
:1091D000C0B2012802D14FF4807607E0C9B202295B
:1091E00002D14FF4007601E04FF4407600F06EF8C3
:1091F0000100C9B208291ED12F4D286830F44070F3
:109200002860286806432E60286830F0F80028603F
:10921000286854F0020404432C60286850F480301D
:10922000286000F053F8296831F0020129602968AC
:1092300031F0F8012960C0B270BD70B504000D00B6
:10924000082000F043F80100C9B2082913D11A4ED2
:10925000306830F440703060306850F40070306036
:10926000306850F001003060256000F02FF8316860
:10927000490849003160C0B270BD134908607047A9
:10928000082011480168C90301D5012010E00168D8
:10929000C90601D505200BE0016811F0EF0F01D0E0
:1092A000062005E00068800701D5072000E00820BF
:1092B000C0B2704700000000103C0240043C024075
:1092C00023016745AB89EFCD0C3C024080B50820F7
:1092D0008DF80000FFF7D4FF8DF8000003E0FFF7E2
:1092E000CFFF8DF800009DF800000128F7D09DF811
:1092F000000002BD7CB5012140F2FF10FFF708FA23
:1093000003208DF8050000208DF8070001208DF85E
:10931000040000208DF806004FF480700090784C17
:109320006946200000F00CF94FF480500090754D14
:109330006946280000F004F9402000906946724810
:1093400000F0FEF84FF40060009069466F4800F0AE
:10935000F7F80C20009069466D4800F0F1F8022003
:109360008DF8040007220921200000F03DF90722B2
:109370000A21200000F038F907220221200000F025
:1093800033F907220321200000F02EF907220A21D9
:10939000280000F029F907220B21280000F024F909
:1093A0005C4E08220621300000F01EF90822072139
:1093B000300000F019F940F20C600090694620007E
:1093C00000F0BEF84FF4406000906946280000F0BD
:1093D000B7F8C02000906946300000F0B1F873BDC6
:1093E0001FB501211020FFF7A1F90920ADF80000F9
:1093F0000020ADF8020042F2D00001900020ADF84C
:10940000080000208DF80A00434C6946200000F057
:1094100015F90021200000F046F901220121200069
:1094200000F06CF90121200000F04BF900203B49CD
:1094300008801FBD80B53A483A4908604FF4806003
:1094400000F068F901208DF803001B208DF8000062
:1094500006208DF8010001208DF80200684600F01A
:109460005EF936208DF8000004208DF80100002000
:109470008DF80200684600F052F927208DF80000B0
:1094800006208DF8010000208DF80200684600F0EB
:1094900046F926208DF8000006208DF801000020F6
:1094A0008DF80200684600F03AF925208DF800009A
:1094B00006208DF8010000208DF80200684600F0BB
:1094C0002EF901BD80B501215FF40010FFF720F9EE
:1094D00001215FF48000FFF71BF9FFF70BFFFEF798
:1094E00062FEFFF7A7FF4FF6FF700F4908600020EC
:1094F0000E49086005200E49086001BD000000000B
:10950000000002400004024000100240001402402B
:10951000001C0240000802400010004010100040F3
:109520000080000808ED00E014E000E018E000E032
:1095300010E000E080B5FFF7C5FFFFF751FF01BD68
:10954000F0B4002200220022002349E0012414FA92
:1095500003F20D681540954241D1032502681E00B3
:10956000F6B2760015FA06F6B243026006680F7985
:109570001A00D2B2520097403E4306600A79012A8F
:1095800002D00A79022A1AD182681E00F6B2760049
:1095900015FA06F6B243826086684F791A00D2B295
:1095A000520097403E43866042689C4032EA040481
:1095B000446042688C799C40A4B222434260C468F3
:1095C0001A00D2B25200954034EA0505C560C4685D
:1095D000CD791A00D2B2520095402C43C4605B1C76
:1095E000102BB3D3F0BC704770B400230023D2B269
:1095F00011F00703DBB29B009A400B009BB2DB101B
:1096000000EB83040B009BB2DB1000EB83031D6AAD
:109610000F2611F00703DBB29B009E40B543256285
:109620000B009BB2DB1000EB83031B6A1A4389B269
:10963000C91000EB8100026270BC704710B40022B8
:109640000488274B98420ED02B4A90420BD0B0F1A1
:10965000804F08D0234A904205D0234A904202D03E
:10966000224A904204D14FF68F7214404A88144324
:109670001F4A904207D01F4A904204D04FF6FF4243
:1096800014400A89144304804A68C2620A88028529
:10969000984202D0184A904201D1897A018601216C
:1096A000818210BC7047C9B2002904D0018851F0F2
:1096B0008001018004E002884FF67F710A40028039
:1096C0007047C9B2002904D0018851F0010101801E
:1096D00004E002884FF6FE710A40028070470000E5
:1096E000000001400004004000080040000C004061
:1096F000001000400014004000040140D2B2002AD3
:1097000003D082891143818103E0828932EA010119
:10971000818170471A4908431A490860704700213F
:1097200000210F23C17800291FD01649096811F4C0
:10973000E061D1F5E061090AD1F10402DBB20B412D
:10974000417811FA02F281780B401A4312010E4956
:109750000378CA540121027812F01F0291400B4A8B
:109760000078401142F8201009E00121027812F03F
:109770001F029140064A0078401142F820107047BD
:109780000000FA050CED00E000E400E000E100E07C
:1097900080E100E080B53C48016851F4700101604F
:1097A0003A49086850F0010008600020384A10600B
:1097B0000A68384802400A603748384A106008682A
:1097C00030F48020086000203549086000F005F87A
:1097D0005FF000603349086001BD82B00020019055
:1097E000002000902949086850F48030086008681B
:1097F00010F4003000900198401C0190009800285F
:1098000003D10198B0F5A06FF1D10868800302D5AB
:109810000120009001E000200090009801282FD145
:109820002148026852F0805202602048026852F4D7
:1098300080420260164802680260026852F40042E8
:109840000260026852F4A0520260194A134B1A6077
:109850000A6852F080720A600A689201FCD540F2F0
:109860000561144A11600168890889000160016876
:1098700051F002010160016811F00C010829FAD1D0
:1098800002B070470000000088ED00E000380240A0
:1098900008380240FFFFF6FE103000240438024072
:1098A0000C38024008ED00E04038024000700040F3
:1098B00008544007003C024000C1814001C0804183
:1098C00001C0804100C1814001C0804100C1814090
:1098D00000C1814001C0804101C0804100C1814080
:1098E00000C1814001C0804100C1814001C0804170
:1098F00001C0804100C1814001C0804100C1814060
:1099000000C1814001C0804100C1814001C080414F
:1099100001C0804100C1814000C1814001C080413F
:1099200001C0804100C1814001C0804100C181402F
:1099300000C1814001C0804101C0804100C181401F
:1099400000C1814001C0804100C1814001C080410F
:1099500001C0804100C1814000C1814001C08041FF
:1099600001C0804100C1814001C0804100C18140EF
:1099700000C1814001C0804100C1814001C08041DF
:1099800001C0804100C1814001C0804100C18140CF
:1099900000C1814001C0804101C0804100C18140BF
:1099A00000C1814001C0804100C1814001C08041AF
:1099B00001C0804100C1814000C0C101C30302C297
:1099C000C60607C705C5C404CC0C0DCD0FCFCE0EFF
:1099D0000ACACB0BC90908C8D81819D91BDBDA1A6F
:1099E0001EDEDF1FDD1D1CDC14D4D515D71716D6DF
:1099F000D21213D311D1D010F03031F133F3F2324F
:109A000036F6F737F53534F43CFCFD3DFF3F3EFEBE
:109A1000FA3A3BFB39F9F83828E8E929EB2B2AEA2E
:109A2000EE2E2FEF2DEDEC2CE42425E527E7E6269E
:109A300022E2E323E12120E0A06061A163A3A2620E
:109A400066A6A767A56564A46CACAD6DAF6F6EAE7E
:109A5000AA6A6BAB69A9A86878B8B979BB7B7ABAEE
:109A6000BE7E7FBF7DBDBC7CB47475B577B7B6765E
:109A700072B2B373B17170B05090915193535292CE
:109A800096565797559594549C5C5D9D5F9F9E5E3E
:109A90005A9A9B5B99595898884849894B8B8A4AAE
:109AA0004E8E8F4F8D4D4C8C44848545874746861E
:109AB000824243834181804038B5FEF770FD1D48E6
:109AC00001681D48006800F049F8FFF733FD4FF4C6
:109AD00000601A4908804FF48054194D2C800420EE
:109AE0001849088008201849088062B600F072F80A
:109AF00003E008880888401E088014490868C0F3FD
:109B000040700028F9D0086830F000500860104913
:109B100008880028EDD10F480068C00402D5200055
:109B2000288002E020000C4A10804FF47A700880F0
:109B30000888E2E70800002000000E081A1402401E
:109B40001A0402401A1C0240181C0240D8050020CA
:109B500044000020140402401804024070B40022A3
:109B6000194B10E0B0FBF3F4B0FBF3F503FB150069
:109B7000164DE4B22C5D164D1600F6B2AC550A2413
:109B8000B3FBF4F3521C1400E4B2082CEADB104BD4
:109B900020201400E4B21855521C08E01000C0B296
:109BA000084410F8090C1400E4B21855521C1000B7
:109BB000C0B2084410F8090C0028EFD10020D2B23E
:109BC000985470BC704700BF80969800F49D0008C0
:109BD0006003002010B501215FF08050FEF7A6FD64
:109BE0000A48016851F48071016001215FF480200E
:109BF000FEF78EFD064C206850F4007020600120B6
:109C000000F008F820680007FCD510BD0070004087
:109C100004700040C0B201490860704720000E4245
:109C200030B4002513E050F8042BD30744BFA9F14A
:109C300001039A18091F042942F8045BFAD213465B
:109C40008C0744BF15809B1CC90748BF1D7050F886
:109C5000041B0029E7D130BC704730B50168846827
:109C60004218416802EB5103C90703D54C4401E097
:109C7000491C05D19A420AD012F9011B12F8015B66
:109C8000002904F8015BF3D4491EF7D5F2E70C3044
:109C900030BD00000548018891F0010101800448B1
:109CA000016851F000510160704700001010004041
:109CB000D80500207047FEE7FEE7FEE7FEE77047A5
:109CC00070477047704700004170706C6963617441
:109CD000696F6E2076312E302E302030372E3031A5
:109CE0002E32303232207777772E696E746D617341
:109CF000682E72750000000010B5074979441831CC
:109D0000064C7C44163404E00A68081D1144884758
:109D10000146A142F8D110BD2C000000480000000F
:109D20004EF68851CEF20001086840F470000860D9
:109D3000BFF34F8FBFF36F8F4FF00070E1EE100A4B
:109D400070470000DDFEFFFFA40500004800002072
:109D50000000000007FFFFFF140200006600000083
:109D600008000020C012000080250000004B000009
:109D700000E1000000C201000084030000080700A9
:109D800000100E000120C046002801D0FFF7B4FFEC
:109D9000AFF300800020AFF30080FFF78DFE00F0EE
:109DA00000F800F001B800000746384600F002F85D
:109DB000FBE7000080B5AFF30080024A11001820D5
:109DC000ABBEFBE7260002000548014603B4684627
:109DD00080F30988AFF30080FFF7A2FFFFF7D2FFFF
:109DE000A5EDF5FE0148804701480047959700081A
:109DF000C99D0008303132333435363738390000E8
:109E0000FFF758BFFFF757BFFFF756BFFFF755BF24
:109E1000FFF754BFFFF753BFFFF752BFFFF751BF24
:109E2000FFF750BFFFF7FEBFFFF7FEBFFFF7FEBF14
:109E3000FFF7FEBFFFF7FEBFFFF7FEBFFFF7FEBF56
:109E4000FFF7FEBFFFF7FEBFFFF7FEBFFFF7FEBF46
:109E5000FFF7FEBFFFF7FEBFFFF7FEBFFFF7FEBF36
:109E6000FFF7FEBFFFF7FEBFFFF7FEBFFFF7FEBF26
:109E7000FFF7FEBFFFF7FEBFFFF7FEBFFFF7FEBF16
:109E8000FFF7FEBFFFF7FEBFFFF7FEBFFFF7FEBF06
:109E9000FFF7FEBFFFF7FEBFFFF7FEBFFFF7FEBFF6
:109EA000FFF7FEBFFFF7FEBFFFF7FEBFFFF7FEBFE6
:109EB000FFF7FEBFFFF7FEBFFEF7ABBAFEF767BACC
:109EC000FEF721BAFFF7FEBFFFF7FEBFFFF7FEBFA9
:109ED000FFF7FEBFFFF7FEBFFFF7FEBFFFF7FEBFB6
:109EE000FFF7FEBFFFF7FEBFFFF7FEBFFFF7FEBFA6
:109EF000FFF7FEBFFFF7FEBFFFF7FEBFFFF7CABECB
:109F0000FFF7FEBFFFF7FEBFFFF7FEBFFFF7FEBF85
:109F1000FFF7FEBFFFF7FEBFFFF7FEBFFFF7FEBF75
:109F2000FFF7FEBFFFF7FEBFFFF7FEBFFFF7FEBF65
:109F3000FFF7FEBFFFF7FEBFFFF7FEBFFFF7FEBF55
:109F4000FFF7FEBFFFF7FEBFFFF7FEBFFFF7FEBF45
:109F5000FFF7FEBFFFF7FEBFFFF7FEBFFFF7FEBF35
:109F6000FFF7FEBFFFF7FEBFFFF7FEBF08C89C006C
:109F7000080D85000803FD00048984000810FD0019
:109F800004098B000811FD000483850008B0F1006E
:0F9F90000D010203040102030406070809E80398
:02000004080EE4
:10000000080000000A000A000A00010401040104BB
:0400000508009DE56D
:00000001FF
