:020000040800F2
:100000000004002039460008453900084739000837
:10001000493900084B3900084D390008000000003C
:100020000000000000000000000000004F39000840
:10003000513900080000000053390008F118000889
:100040004741000847410008474100084741000870
:10005000474100084741000847410008573A000857
:1000600047410008D13A0008493B00083F3A0008E0
:100070004741000847410008474100084741000840
:100080004741000847410008474100084741000830
:100090004741000847410008474100084741000820
:1000A0004741000847410008474100084741000810
:1000B000213A000855390008474100084741000827
:1000C00047410008474100084741000847410008F0
:1000D00047410008170D0008C3140008F71700086F
:1000E00047410008474100084741000847410008D0
:1000F00047410008474100084741000847410008C0
:10010000474100084741000863390008474100089B
:100110004741000847410008D1390008474100081D
:10012000474100084741000847410008474100088F
:1001300070B500F0AEFC00F053F900F049FB00F0A0
:100140000FFD00F099FA00F092FF00F05FF8DFF881
:10015000C449E06DC10701D5022100E00021C0F3D0
:100160008000002800D0491CC9B2002903D0022910
:1001700011D023D31DE0DFF8A059DFF8A06996F86D
:10018000FE0095F8FE10884205D196F8FF0095F81C
:10019000FF1088420DD0DFF880592946DFF87C092E
:1001A00000F0B8FF2946DFF8780900F0B3FF00F04F
:1001B0002DF894F85C00C00713D570BDDFF85C69BA
:1001C00000231A464FF48071304600F0A3FE01234D
:1001D00000224FF48071304600F09CFE00F047FF93
:1001E000E7E700F044F900F096F900F0D1F900F0EB
:1001F000F3F901F019F801F0D9F900F05CF800F01A
:1002000089F801F06DFBBDE870400CE270B5DFF8D5
:100210000449E06D80088000E065DFF80459DFF8EC
:10022000FC684FF48071304601F074FB00284FF4F5
:100230008071284618D001F06DFB002804D0E06DD5
:1002400040F00300E06570BD2946304600F062FFD3
:100250004FF48071304601F05DFB00282AD0E06D3C
:1002600040F00100E06570BD01F054FB00280FD0A4
:100270003146284600F04EFF4FF48071284601F0C9
:1002800049FB002816D0E06D40F00200E06570BD2B
:1002900096F8FE0095F8FE10884205D196F8FF000A
:1002A00095F8FF10884205D031462846BDE87040D9
:1002B00000F030BF70BD10B58CB0DFF86848204644
:1002C00001F03EFCDFF860080090DFF86008019064
:1002D00000200290082003900020049080200590C8
:1002E0004FF4807006904FF48060079020200890B3
:1002F000002009900A9000A9204601F096FC0121F7
:10030000204601F0ADFC01220221204601F0B3FCA1
:100310000CB010BD10B586B00020009001208DF803
:10032000040000208DF805004FF40020029000200A
:10033000039008208DF81000DFF8F44700A920464C
:1003400001F0C0FC052301220B21204601F002FD33
:10035000052302220C21204601F0FCFC0523032288
:100360000A21204601F0F6FC052304221946204606
:1003700001F0F0FC05231A460621204601F0EAFCB4
:10038000052306220F21204601F0E4FC0523072265
:100390000821204601F0DEFC052308220E2120461C
:1003A00001F0D8FC0121204601F0B5FC01212046D6
:1003B00001F0A6FC204601F0B9FC204601F0BBFC90
:1003C0000028FAD1204601F0BBFC204601F0BDFC1C
:1003D0000028FAD10121204601F0FAFC06B010BD38
:1003E00010B588B0DFF84C47204601F001FD002031
:1003F00004904BF68030ADF814000020ADF81600E4
:100400008DF8180004A9204601F060FDDFF804070C
:10041000002141856020ADF800000120ADF8020008
:100420000846ADF806000220ADF808000420ADF83B
:1004300004000846ADF80A004FF48070ADF80C00D7
:100440000846ADF80E0000A9204601F05BFD08212A
:10045000204601F00CFE0020A0860121204601F07C
:10046000D6FD0121204601F0DEFD08B010BD00B52B
:1004700087B04FF0804001F0BBFC04A801F0BEFD46
:100480004FF6FF70ADF814001720ADF810000020F3
:10049000ADF81600ADF8120004A94FF0804001F04D
:1004A00015FD00214FF0804001F0D5FD0022012113
:1004B0004FF0804001F0C5FD00200090ADF806002F
:1004C00000A94FF0804001F01DFD00214FF0804059
:1004D00001F0CDFD002202214FF0804001F0B1FD7E
:1004E00000200090ADF8060000A94FF0804001F018
:1004F0003DFD00214FF0804001F0C0FD00220421AD
:100500004FF0804001F09DFD01214FF0804001F04F
:100510007EFD07B000BD10B588B00020009040F609
:100520005F10ADF804000020ADF806008DF808005B
:10053000DFF8044600A9204601F0C8FC012120464E
:1005400001F089FD00220121204601F07AFD702092
:10055000ADF80C000120ADF80E004FF49660ADF838
:1005600012000220ADF8140003A9204601F0CAFCD5
:100570000821204601F07BFD4021204601F086FD48
:100580000121204601F043FD0020208208B010BD6B
:1005900010B584B00C20ADF800000020ADF80200CA
:1005A0004FF41840ADF804000020ADF806008DF8B7
:1005B0000800DFF8884500A9204601F087FC0020EC
:1005C0002082A08401221146204601F03AFD00213C
:1005D000204601F01CFD1FBD10B584B0DFF860455A
:1005E000204601F005FC0C20ADF800000020ADF81D
:1005F000020048F6FF70ADF804000020ADF80600D8
:100600008DF8080000A9204601F060FC002020823F
:10061000A08401221146204601F013FD002120464E
:1006200001F0F5FC1FBD00B583B00421002001F0EE
:10063000D2FD0121084601F0CEFD0321022001F088
:10064000CAFD00208DF8040001208DF8060010205E
:10065000009008208DF8050000A801F0D3FD0A20C5
:1006600000900C208DF8050000A801F0CBFDDFF80C
:10067000D4041021016007BD80B500214FF0006057
:1006800001F02BFE4FF4A06001F0F4FD0B208DF87B
:10069000000000208DF801008DF8020001208DF887
:1006A000030000A801F0EBFD1C208DF800000120E4
:1006B0008DF8010000208DF8020001208DF8030064
:1006C00000A801F0DCFD1D208DF8000001208DF850
:1006D000010000208DF8020001208DF8030000A821
:1006E00001F0CDFD32208DF8000001208DF80100D1
:1006F00000208DF8020001208DF8030000A801F011
:10070000BEFD36208DF8000001208DF8010000208C
:100710008DF8020001208DF8030000A801F0AFFD64
:1007200025208DF8000001208DF801008DF80200D1
:100730008DF8030000A801F0A2FD26208DF800002E
:1007400001208DF8010002208DF8020001208DF8B3
:10075000030000A801F093FD27208DF80000012080
:100760008DF8010003208DF8020001208DF80300B0
:1007700000A801F084FD07208DF8000000208DF80E
:10078000010001208DF802008DF8030000A801F09F
:1007900076FD09208DF8000000208DF80100022070
:1007A0008DF8020001208DF8030000A801F067FD1C
:1007B0000A208DF8000000208DF8010003208DF83C
:1007C000020001208DF8030000A801F058FD01BDD2
:1007D000F8B50121DC4801F0D2FC0420ADF800009E
:1007E00003208DF8020014208DF8030000A9D748DB
:1007F00001F06CFCD64C4FF4017120460161C046FB
:100800004FF40170ADF8000003208DF802001820AD
:100810008DF8030000A9204601F058FC4FF48161D7
:1008200020460161C0464FF48160ADF8000004200D
:100830008DF8030003208DF8020000A9204601F086
:1008400045FC022120464161C0460220ADF800006F
:1008500003208DF8020010208DF8030000A9204627
:1008600001F034FC4FF40040ADF8000003208DF897
:10087000020010208DF8030000A9204601F026FC9C
:10088000B44D202128460161C0462020ADF800006B
:1008900003208DF8020010208DF8030000A92846DF
:1008A00001F014FC012120460161C0460120ADF891
:1008B000000003208DF8020010208DF8030000A92D
:1008C000204601F003FC4FF4805120460161C046F0
:1008D0004FF48056ADF8006003208DF80200102020
:1008E0008DF8030000A9204601F0F0FB4FF476706C
:1008F000ADF8000003208DF8020014208DF80300ED
:1009000000A9284601F0E2FB4FF40050ADF80000CA
:1009100003208DF8020004208DF8030000A928466A
:1009200001F0D4FBADF8006003208DF80200142024
:100930008DF80300884E00A9304601F0C7FB142053
:100940008DF803004FF4E050ADF8000000A92846F0
:1009500001F0BCFB04208DF803001020ADF800006E
:1009600000A9204601F0B2FB0220ADF8000000A96A
:10097000284601F0ABFB0820ADF8000000A9304686
:1009800001F0A4FBE020ADF8000000208DF803008A
:1009900000A9204601F09AFB0120ADF800000020DC
:1009A0008DF8030000A9284601F090FB3720ADF830
:1009B000000000208DF8030000A9304601F086FBFE
:1009C0004FF48077ADF8007018208DF803000320F5
:1009D0008DF8020000A9204601F078FB4FF4006179
:1009E00020460161C0464FF40060ADF800000320CE
:1009F0008DF8020010208DF8030000A9204601F0B8
:100A000065FB394630460161C046ADF800700320F1
:100A10008DF8020004208DF8030000A9304601F093
:100A200055FB4FF4007130464161C0464FF40070F1
:100A3000ADF8000003208DF8020014208DF80300AB
:100A400000A9304601F042FB802130460161C046DA
:100A50008020ADF8000003208DF8020004208DF8FE
:100A6000030000A9304601F031FB4FF480412846D5
:100A70000161C0464FF48040ADF8000003208DF8BE
:100A8000020014208DF8030000A9284601F01EFB87
:100A9000F1BD80B501F036FC4FF4803001F04BFC25
:100AA00001F063FC012833D1102001F057FD022032
:100AB00001F04CFD002001F088FC002001F093FCC7
:100AC0004FF4806001F088FC4FF480214FF48030B7
:100AD00001F064FC012001F069FC392001F009FDFE
:100AE0000028FAD0022001F064FC01F069FC08281B
:100AF000FBD10121084601F0C5FC0121174801F096
:100B0000D7FC012144F63D20BDE8044001F0C5BCFE
:100B1000FEE70000B8040020B803002000F007083A
:100B200000F80708080002404C2401401805002086
:100B300000240140002C014000040040000C004053
:100B40000010004000040140000230000014014089
:100B500000080140000C0140001001401B0006008D
:100B60001FB5924800F5807101224A800022A0F84A
:100B700000211046888040F63540488101204875A4
:100B80004FF4E130009010460190ADF80800ADF848
:100B90000C000C20ADF80A00854C00A9204601F09D
:100BA0007FFDA08A40F04000A082A08940F00400B0
:100BB000A081A08940F00800A081A08940F0100029
:100BC000A081A08940F40050A0817A4800214170A2
:100BD000017000F068F81FBD38B5764C60780028C9
:100BE00026D12078002823D0002020706F4D284681
:100BF00001F074FF002815D0B5F80401002811D0C9
:100C00006D48C168890604D50022202101F0B1FA9F
:100C100003E00122202101F0ACFA00F00AF80120E3
:100C2000607031BD002060702070BDE831403AE056
:100C300031BD30B58BB0614C206C40084000206461
:100C40005F4D284600F07CFF5E48009057480190B9
:100C500010210291B0F8040103900020049080203C
:100C60000590002006900790089009900A9000A92E
:100C7000284600F0DAFF4E4801884FF6BF72114057
:100C80000180818A41F080018182216841F47041B4
:100C90002160296841F001012960818941F040010A
:100CA00081810BB030BD30B58BB0444C606D4008D5
:100CB00040006065444D284600F042FF41480090E6
:100CC0003A48019000200290FF20039000200490F9
:100CD00080200590002006900790089009900A90C7
:100CE00000A9284600F0A1FF3848018941F04001E1
:100CF0000181216841F470212160296841F00101DE
:100D00002960018841F010010180018841F004014F
:100D100001800BB030BD80B5254801880091009955
:100D200049061AD58189490617D501884FF6BF7241
:100D300011400180818911408181818A4FF67F7243
:100D4000114081821E480168490849000160FFF78F
:100D5000AAFF18480021417001BD0099C90623D59A
:100D60008189C90620D5818881894FF6FB7211409F
:100D7000818181894FF6EF7211408181818A4FF61E
:100D8000BF72114081820E484169490849004161A2
:100D90008069C0F1FF00C0B20449A1F80001054814
:100DA000012101700021417001BD00007000002090
:100DB00000380140FC060020000C01400400024005
:100DC0004400024004380140580002400C38014001
:100DD00070B50446DFF828534FF40066200601D4AE
:100DE0006E6000E02E600A2000F038F8600601D442
:100DF0006E6000E02E600A2000F030F8A00601D4FA
:100E00006E6000E02E600A2000F028F8E00601D4B1
:100E10006E6000E02E600A2000F020F8200701D468
:100E20006E6000E02E600A2000F018F8600701D420
:100E30006E6000E02E600A2000F010F8A00701D4D8
:100E40006E6000E02E600A2000F008F8E00701D490
:100E50006E6000E02E600A20BDE87040014600E0B0
:100E6000491EC9B20029FBD1A5494FF480620A602E
:100E7000430000E05B1EDBB2002BFBD14A6000E0C8
:100E8000401EC0B20028FBD1704738B59D4C206889
:100E9000000501D5802500E000250A20FFF7DEFFD0
:100EA0002068000501D545F040050A20FFF7D6FF70
:100EB0002068000501D545F020050A20FFF7CEFF88
:100EC0002068000501D545F010050A20FFF7C6FF90
:100ED0002068000501D545F008050A20FFF7BEFF90
:100EE0002068000501D545F004050A20FFF7B6FF8C
:100EF0002068000501D545F002050A20FFF7AEFF86
:100F00002068000501D545F001050A20FFF7A6FF7E
:100F1000284632BDF8B504460D4616461F4600F079
:100F200062F800F073F80120FFF752FF0020FFF78E
:100F30004FFF00F058F800F069F80620FFF748FF6F
:100F400000F051F800F062F8002F03D00A20FFF7FC
:100F50003FFF02E00220FFF73BFF3046FFF738FF7C
:100F600003E0305DFFF734FF761CB6B2AE42F8D333
:100F7000BDE8F14037E0F8B504460D4616461F4679
:100F800000F044F80A2000E0401EFDD1002F03D0FD
:100F90000B20FFF71DFF02E00320FFF719FF30468B
:100FA000FFF716FF0A2000E0401EFDD10A2000E0F6
:100FB000401EFDD1012000F044F80A2000E0401E50
:100FC000FDD103E0FFF761FF3055761CB6B2AE42AB
:100FD000F8D30A2000E0401EFDD100F004F8002004
:100FE000BDE8F2402DE00A2000E0401EFDD144485B
:100FF0004FF4805101604FF4806101604FF4006153
:1010000001600A2000E0401EFDD170470A2000E088
:10101000401EFDD10A2000E0401EFDD138484FF4AB
:10102000006101604FF4806141600A2100E0491EC7
:10103000FDD14FF4805141600A2000E0401EFDD1F7
:10104000704780B503218DF80210002803D11420C9
:101050008DF8030002E004208DF803004FF40060D7
:10106000ADF8000000A9284801F030F801BD70B5C6
:101070000024264DE86D20F00C00E865244E234640
:101080001A464FF480713046FFF775FF4FF48071B8
:10109000304600F03FFC00282BD0012322464FF4BD
:1010A00080713046FFF767FF4FF48071304600F0E3
:1010B00031FC002804D0E86D40F00C00E8651DE02C
:1010C00023461A464FF480713046FFF723FF4FF452
:1010D0008071304600F01EFC002804D0E86D40F01E
:1010E0000400E8650AE0FE21304600F013FC0446E7
:1010F00004E0FE21304600F00DFC0446204670BDA1
:10110000100C0140080C0140000C0140B804002004
:10111000B803002070B582B004460D46402601F0A9
:1011200027FA352001F07BFA204601F02AFA8DF8E3
:101130000000002E08E055F8041B204601F040FA9C
:101140008DF80000241D761EF5D173BD3249402272
:1011500004E050F8043B41F8043B521EF9D17047BB
:101160002DE9FC4780468A4691462C4C2546284668
:10117000FFF7ECFF284E37460AEB0700401B05E05F
:1011800018F8011B00F8011BA9F101095FFA89F9A0
:10119000B9F1000FF4D1FE21304600F0BBFBADF8F1
:1011A00004009DF805008DF800009DF804008DF8FE
:1011B0000100BDF80000A6F8FE0072B6DFF86080FE
:1011C00039464046FFF7A6FF4FF48071304600F0E5
:1011D000A1FB002804D139462846FFF79BFF03E016
:1011E00029464046FFF796FF62B60E48016841F077
:1011F0000101016000231A464FF480712046FFF779
:1012000089FE012300224FF48071204602B0BDE820
:10121000F047FFF77FBE00000407002000F007083A
:1012200000F80708B80400201FB500220221CA48B0
:1012300000F09FFFC94800F58071C94A13784B80C0
:1012400052788A750022A0F80021104688800A2072
:10125000488102204875887D0FF2243151F8200022
:10126000009010460190ADF80800ADF80C000C207D
:10127000ADF80A00BB4C00A9204601F011FAA08A83
:1012800040F04000A082A08940F00400A081A08925
:1012900040F00800A081A08940F01000A081A08942
:1012A00040F40050A081B04800214170017000F06E
:1012B000CBF81FBD30B585B0A84C04F20210A84D84
:1012C000017D6A78914213D0697801750FF2B020E0
:1012D00050F82100009000200190ADF80800ADF812
:1012E0000C000C20ADF80A0000A99E4801F0D8F9C6
:1012F000B4F802012978884202D02878A4F80201C3
:1013000005B030BD80B500214FF0804000F07FFE79
:101310004FF08040818C914AB2F80A2151188186A1
:10132000018A4FF6FD72114001820122022100F074
:1013300088FE01214FF08040BDE8044000F067BE08
:1013400080B5002202214FF0804000F07AFE4FF07D
:101350008040018A4FF6FD7211400182BDE80140D4
:1013600037E070B5804C6078002831D120780028B3
:101370002ED000202070794D05F58076284601F0AA
:10138000ADFB00281BD0B088002818D0724DE8684B
:10139000C00705D500220121284600F0EAFE04E03E
:1013A00001221146284600F0E4FE012202212846CF
:1013B00000F0DFFEFFF7A6FF0120607070BD002087
:1013C00060702070A5F80001B080BDE870403BE07F
:1013D00070BD30B58BB0654CE06F40084000E067F1
:1013E000634800905D48019010210291B0F804011B
:1013F0000390002004908020059000200690079024
:10140000089009900A905B4D00A9284600F00DFC59
:10141000544801884FF6BF7211400180818941F024
:1014200008018181818A41F080018182216841F037
:1014300070612160296841F001012960818941F0D2
:10144000400181810BB030BD30B58BB0002202214C
:10145000414800F08EFE454CA06E40084000A0665A
:10146000454D284600F06CFB414800903B480190F8
:1014700000200290FF20039000200490802005901F
:10148000002006900790089009900A9000A928462D
:1014900000F0CBFB3948018941F04001018121680E
:1014A00041F470012160296841F00101296001883F
:1014B00041F010010180018841F0040101800BB06E
:1014C00030BD80B5274801880091009949061AD59A
:1014D0008189490617D501884FF6BF7211400180F6
:1014E000818911408181818A4FF67F72114081820A
:1014F00021484169490849004161FFF7A5FF1A48A1
:101500000021417001BD0099C90623D58189C90612
:1015100020D5818881894FF6FB72114081818189B4
:101520004FF6EF7211408181818A4FF6BF721140F0
:101530008182114801684908490001604068C0F192
:10154000FF00C0B20549A1F8000107480121017060
:101550000021417001BD0000000801408801002009
:1015600000F0070800440040FE060020040002408E
:1015700004440040800002406C0002400C440040E3
:10158000B004000060090000C012000080250000C7
:10159000004B00000096000000E1000000C20100C6
:1015A00000840300A08E080000100E001FB500226A
:1015B0004FF40041B54800F0DCFDB54800F58071FE
:1015C000B44A93784B80D2788A750022A0F8002123
:1015D000104688800A20488103204875887D0FF2D4
:1015E000D42151F82000009010460190ADF8080079
:1015F000ADF80C000C20ADF80A00A74C00A920465D
:1016000001F04EF8A08A40F04000A082A08940F08E
:101610000400A081A08940F00800A081A08940F0CA
:101620001000A081A08940F40050A0819B480021B7
:101630004170017000F0A1F81FBD80B500214FF08E
:10164000804000F0E4FC4FF08040818C904AB2F87A
:101650000A2151180187018A4FF6FB72114001825D
:101660000122042100F0EDFC01214FF08040BDE893
:10167000044000F0CCBC80B5002204214FF0804033
:1016800000F0DFFC4FF08040018A4FF6FB72114002
:101690000182BDE8014036E038B5804C6078002812
:1016A00030D1207800282DD000202070784D284699
:1016B00001F014FA00281FD0B5F8040100281BD04F
:1016C000724DE868C00406D500224FF480512846C8
:1016D00000F04FFD05E001224FF48051284600F054
:1016E00048FD01224FF40041284600F042FDFFF77B
:1016F000A4FF0120607031BD002060702070BDE843
:1017000031403AE031BD30B58BB0654CA06940083E
:101710004000A061634D284600F012FA6248009034
:101720005B48019010210291B0F804010390002061
:101730000490802005900020069007900890099062
:101740000A9000A9284600F070FA534801884FF625
:10175000BF7211400180818A41F08001818221683D
:1017600041F0F0012160296841F00101296081897F
:1017700041F0400181810BB030BD30B58BB000220B
:101780004FF40041414800F0F4FC454CE06A400849
:101790004000E062454D284600F0D2F942480090F2
:1017A0003B48019000200290FF200390002004900D
:1017B00080200590002006900790089009900A90DC
:1017C00000A9284600F031FA3948018941F040016A
:1017D0000181216841F470612160296841F00101B3
:1017E0002960018841F010010180018841F0040165
:1017F00001800BB030BD80B5274801880091009969
:1018000049061AD58189490617D501884FF6BF7256
:1018100011400180818911408181818A4FF67F7258
:10182000114081821F480168490849000160FFF7A3
:10183000A4FF1A480021417001BD0099C90623D5B3
:101840008189C90620D5818881894FF6FB721140B4
:10185000818181894FF6EF7211408181818A4FF633
:10186000BF72114081820F484169490849004161B6
:101870008069C0F1FF00C0B20549A1F80001074826
:10188000012101700021417001BD000000080140EC
:10189000A002002000F007080048004000070020D8
:1018A000040002401C000240044800403000024096
:1018B0000C480040B004000060090000C0120000A5
:1018C00080250000004B00000096000000E10000B1
:1018D00000C2010000840300A08E080000100E006A
:1018E0000A4840F6B83141608160032101607047C9
:1018F000064840F6B8314160816003210160044828
:10190000016841F0020101607047000010E000E052
:10191000B804002010B4FF22134609E010F8014B70
:1019200054400FF21C02A25C5A400FF21413E35C05
:101930000C46611E002CF1D143EA022010BC704716
:1019400000C1814001C0804101C0804100C181408F
:1019500001C0804100C1814000C1814001C080417F
:1019600001C0804100C1814000C1814001C080416F
:1019700000C1814001C0804101C0804100C181405F
:1019800001C0804100C1814000C1814001C080414F
:1019900000C1814001C0804101C0804100C181403F
:1019A00000C1814001C0804101C0804100C181402F
:1019B00001C0804100C1814000C1814001C080411F
:1019C00001C0804100C1814000C1814001C080410F
:1019D00000C1814001C0804101C0804100C18140FF
:1019E00000C1814001C0804101C0804100C18140EF
:1019F00001C0804100C1814000C1814001C08041DF
:101A000000C1814001C0804101C0804100C18140CE
:101A100001C0804100C1814000C1814001C08041BE
:101A200001C0804100C1814000C1814001C08041AE
:101A300000C1814001C0804101C0804100C181409E
:101A400000C0C101C30302C2C60607C705C5C4045E
:101A5000CC0C0DCD0FCFCE0E0ACACB0BC90908C8CE
:101A6000D81819D91BDBDA1A1EDEDF1FDD1D1CDCBE
:101A700014D4D515D71716D6D21213D311D1D0102E
:101A8000F03031F133F3F23236F6F737F53534F41E
:101A90003CFCFD3DFF3F3EFEFA3A3BFB39F9F8388E
:101AA00028E8E929EB2B2AEAEE2E2FEF2DEDEC2C7E
:101AB000E42425E527E7E62622E2E323E12120E0EE
:101AC000A06061A163A3A26266A6A767A56564A4DE
:101AD0006CACAD6DAF6F6EAEAA6A6BAB69A9A8684E
:101AE00078B8B979BB7B7ABABE7E7FBF7DBDBC7C3E
:101AF000B47475B577B7B67672B2B373B17170B0AE
:101B0000509091519353529296565797559594549D
:101B10009C5C5D9D5F9F9E5E5A9A9B5B995958980D
:101B2000884849894B8B8A4A4E8E8F4F8D4D4C8CFD
:101B3000448485458747468682424383418180406D
:101B4000016849084900016000210160416081602D
:101B5000C1604E49884205D14D48016841F00F01EE
:101B6000016070474B49884205D14948016841F0FE
:101B7000F001016070474849884205D14448016836
:101B800041F47061016070474449884205D1404882
:101B9000016841F47041016070474149884205D1B4
:101BA0003B48016841F47021016070473D4988421B
:101BB00005D13748016841F47001016070473A4926
:101BC000884205D13248016841F070610160704778
:101BD0003649884205D13648016841F00F0101605D
:101BE00070473449884205D13148016841F0F0011D
:101BF000016070473049884205D12D48016841F4A1
:101C00007061016070472D49884205D128480168FC
:101C100041F47041016070472949884204D1244849
:101C2000016841F470210160704702686FF30E1281
:101C30008B681A430B6A1A430B691A434B691A43A0
:101C40008B691A43CB691A434B6A1A438B6A1A434E
:101C50000260CA6842600A6882604968C160704771
:101C60000029016803D041F0010101607047490873
:101C7000490001607047002A026802D011430160E8
:101C8000704722EA0101016070470000080002402D
:101C9000040002401C0002403000024044000240A8
:101CA000580002406C0002408000024008040240DC
:101CB000040402401C040240300402404404024078
:101CC000580402404268484B1A400B681A430B798B
:101CD00042EA032242608268444B1A40CB681A43AE
:101CE0008B681A434B7942EA43028260C26A22F44B
:101CF0007002097C491EC9B242EA0151C1627047B3
:101D00000029816803D041F00101816070474908D2
:101D10004900816070470029816803D041F48071D7
:101D20008160704721F4807181607047816841F063
:101D30000801816070478068C00800F001007047AA
:101D4000816841F00401816070478068800800F07C
:101D50000100704770B407240A290BDBC568A1F1A4
:101D60000A0606EB4606B44025EA0404B3402343C2
:101D7000C36008E0056901EB4106B44025EA0404AC
:101D8000B3402343036113461F24072B09DA436B37
:101D9000521E02EB82029440A343914019434163D7
:101DA00014E00D2B09DA036BD21F02EB8202944080
:101DB000A34391401943016308E0C36A0D3A02EB63
:101DC00082029440A34391401943C16270BC7047A2
:101DD0000029816803D041F480118160704721F4AB
:101DE0008011816070470000FFFEF0FFFDF7F1FFFA
:101DF00080B57B4988420BD101214FF4006000F08F
:101E000062FB00214FF40060BDE8044000F05BBBC2
:101E1000B0F1804F09D10121084600F05FFB00219D
:101E20000120BDE8044000F059BB6E49884209D149
:101E30000121022000F052FB00210220BDE80440F5
:101E400000F04CBB6849884209D10121042000F010
:101E500045FB00210420BDE8044000F03FBB63497E
:101E6000884209D10121082000F038FB0021082018
:101E7000BDE8044000F032BB5D49884209D1012130
:101E8000102000F02BFB00211020BDE8044000F0E2
:101E900025BB5849884209D10121202000F01EFBB2
:101EA00000212020BDE8044000F018BB52498842C0
:101EB0000BD101214FF4005000F005FB00214FF43D
:101EC0000050BDE8044000F0FEBA01BD10B4028825
:101ED00002F08F0202800288CB884C8823431A4389
:101EE00002808A8882850A88028502463C4B9A4293
:101EF00002D0414B9A4201D1097A018601218182A7
:101F000010BC704770B4028C4FF6FE731A40028406
:101F1000048C8288038B4FF68C752B400D882B43E5
:101F20004FF6FD752C400D892C434D882C430546FA
:101F30002B4EB54202D0304EB54210D14FF6F77558
:101F40002C404D892C434FF6FB752C408D882C433B
:101F500047F6FF452A408D892A43CD892A4382804E
:101F60000383C9888186048470BC704770B4028C76
:101F70004FF6EF731A400284048C8288038B48F674
:101F8000FF452B400D8843EA05234FF6DF752C40B3
:101F90000D894E88354344EA05140546104EB54276
:101FA00002D0154EB54213D14FF67F752C404D89A6
:101FB00044EA05144FF6BF752C408D8844EA051499
:101FC00047F2FF352A408D89CE89354342EA8502A2
:101FD00082800383C9880187048470BC7047000035
:101FE000002C01400004004000080040000C0040AC
:101FF0000010004000140040003401404FF6FF7113
:10200000818000210180C1804180017270470029D8
:10201000018803D041F001010180704740F2FE3297
:102020001140018070470029B0F8441004D041F4F9
:102030000041A0F8441070474904490CA0F844102E
:102040007047002A828902D011438181704722EAB9
:102050000101818170470029018803D041F080018E
:102060000180704740F27F32114001807047028B3F
:102070004FF6F7731A40114301837047028B4FF2FA
:10208000FF731A4042EA01210183704782884FF6AC
:102090008F731A408280828811438180704710B408
:1020A00050F8041B81B102681218001D50F8043B5F
:1020B000DC0744BFA9F10104E31852F8044B43F8CC
:1020C000044B091FF9D1EBE710BC7047F0B40023B3
:1020D000CC7804F00F02E40601D58C7822430C88FA
:1020E000E4B2002C1CD0046803E0482D00D1066146
:1020F0005B1C082B13D2012505FA03F635460F8821
:102100002F40AF42F4D19D000F27AF40BC4302FAED
:1021100005F52C43CD78282DE7D14661E8E704602A
:102120000B88FF2B1FDD4468002319E0012503F114
:10213000080605FA06F635460F882F40AF420ED145
:102140009D000F27AF40BC4302FA05F52C43CD7824
:10215000282D00D14661CD78482D00D106615B1C49
:10216000082BE3D34460F0BC7047016170474161C4
:102170007047002A01D0016170474161704770B417
:102180001E4A1468C0F3034583B200F44016B6F546
:10219000401F06D124F07064156825F07065156045
:1021A0000FE0C60206D5032606FA05F5AC4344F057
:1021B000706406E0450D2D0103FA05F5AC4344F0CB
:1021C0007064002904D0400D000103FA00F00443BC
:1021D000146070BC704730B401F00302920021F02B
:1021E0000301074BCC580F259540AC43CC50CC583D
:1021F00090402043C85030BC7047000004000140AC
:102200000800014030B40168CB4319498279002AA3
:1022100026D00A4614682340136053680468A34319
:1022200053600379CC18236805682B4323609368B7
:102230000468A3439360D3680468A343D3604379DD
:102240000568102B07D1916829439160D168006817
:102250000843D06009E0CC1820682843206004E0DF
:1022600000790C1820681840206030BC70470000CE
:10227000000401401C4908431C490860704770B4C1
:1022800003781A460121C478002C1DD0174B1B6817
:1022900003F4E063C3F5E0631B0A4478C3F104056B
:1022A000AC4085780F2626FA03F32B4023431B010D
:1022B0000F4C1355007842110E4B00F01F0001FA2D
:1022C00000F043F8220006E050110B4A03F01F0310
:1022D000994042F8201070BC7047084A11400843EA
:1022E00007490860704700000000FA050CED00E0A7
:1022F00000E400E000E100E080E100E080FFFF1F7B
:1023000008ED00E08448016841F001010160416886
:10231000824A114041600168814A114001600168B0
:1023200021F480210160416821F4FE0141604FF4F5
:102330001F018160704778490A6822F480320A6080
:102340000A6822F480220A60B0F5803F03D0B0F51D
:10235000802F05D07047086840F4803008607047CF
:10236000086840F4A0200860704710B582B00020D3
:1023700000900446312000F0BCF80099491C0091FF
:102380000099B1F5A06F01D00028F3D0312000F002
:10239000B0F8002800D00124204616BD614A136819
:1023A00023F47C1318430843106070475E490860AB
:1023B00070475C490A68920850EA820008607047DA
:1023C0005848006800F00C00704756490A6822F02F
:1023D000F00210430860704752490A6822F4E06234
:1023E0001043086070474F490A6822F4605242EA7D
:1023F000C0000860704710B44A490A6802F00C0235
:10240000082A18D10A6802F470120B6803F48033AA
:10241000920C921C002B03D1444B5A4302600CE0F7
:102420000B689B0303D5414B5A43026005E0404BC8
:102430005A43026001E03E4A02600A6802F0F0037B
:102440003C4A1B099B5C046824FA03F343600C6854
:1024500004F4E064240AA45CE34083600B6803F4A2
:102460006053DB0A9B5C446824FA03F3C360096889
:1024700001F4404102EB9131097CB3FBF1F10161C0
:1024800010BC70472C4A0029116802D00843106024
:10249000704721EA000010607047284A002911683F
:1024A00002D008431060704721EA000010607047B6
:1024B000234A0029116802D008431060704721EABE
:1024C0000000106070471F4A0029116802D00843BD
:1024D0001060704721EA0000106070471A4A002916
:1024E000116802D008431060704721EA00001060B4
:1024F00070474109084A012901D1116804E0022905
:1025000001D1116A00E0516A00F01F0021FA00F0C9
:1025100000F0010070470000001002400000FFF8CA
:10252000FFFFF6FE041002406000424200093D0039
:1025300000127A00580000201410024018100240C7
:102540001C1002400C10024010100240DFF8F8107E
:102550000A6802F03802104308607047DFF8E8109C
:102560000A6822F010020A600A6810430860704787
:10257000DFF8D800DFF8D8100160DFF8D81001606C
:10258000704770B5054640F6FF76304600F068F8B3
:10259000042814D1DFF8C040206840F00200206019
:1025A0006560206840F040002060304600F058F838
:1025B000052804D0216841F6FD721140216070BDEC
:1025C00070B582B006460C46002000900F2000F047
:1025D00047F8042822D1204D286840F001002860E7
:1025E00034800F2000F03CF8014604290FD1B01CC4
:1025F0000090200C009908800F2000F031F8052889
:102600000CD0296841F6FE721140296076BD05297B
:1026100004D0296841F6FE721140296076BD0F4949
:102620000860704704200D490A68D20701D50120CF
:1026300070470A68520701D5022070470968C90629
:1026400000D5032070470000002002400420024013
:1026500023016745AB89EFCD102002400C200240DA
:1026600010B50446FFF7DEFF04E000F00BF8FFF7BB
:10267000D9FF641E012801D1002CF6D1002C00D115
:10268000052010BD81B000200090FF20009002E0E6
:102690000098401E009000980028F9D101B07047C2
:1026A00030B585B004460D46208A4CF6FF710840CF
:1026B000E98808432082A0894EF6F3110840A988D2
:1026C00008432989084369890843A081A08A4FF6F5
:1026D000FF410840A9890843A08200A8FFF78BFEAC
:1026E0000F48844201D1039800E002981921484321
:1026F00029688900B0FBF1F06421B0FBF1F1090118
:102700000A09642303FB1200000132301A46B0FBB1
:10271000F2F000F00F000843208105B030BD00004A
:1027200000380140DFF89C034FF47A71A0F8741070
:10273000704710B582B00446B4F80411FFF7EAF808
:10274000ADF80000B4F80401411CA4F804119DF890
:1027500001100155B4F80401411CA4F804119DF8BE
:102760000010015513BD0020DFF85C230146481C12
:10277000C9B2895C0029F9D1C0B2704738B50446A6
:102780000025FFF7F0FFA4F80401A070EDB2294680
:102790000A19DFF83433CB5CD3706D1C8142F5D15C
:1027A000B4F80401801CA4F804012046BDE83240BE
:1027B000BFE780B5C1788DF8001081788DF80110E1
:1027C000BDF80010802906DA0146DFF8F80200F0B3
:1027D00055F8012002BDA1F50052802A0AD2014617
:1027E000BA4800F04BF8B748016849084900016051
:1027F000012002BDA1F54041FF2905D80146B4489A
:1028000000F03CF8012002BD002002BD38B5C178BF
:102810008DF8001081788DF80110BDF80010802926
:1028200014DA4178FA2901D1012400E00024A54DF1
:102830000146284600F054F8002C05D04FF47A7079
:10284000A5F87400002032BD012032BDA1F5005270
:10285000802A07D201469D4800F0B4F8FEF72AFD11
:10286000012032BDA1F54041FF2905D80146984815
:1028700000F062F8012032BD002032BD10B483B0F8
:1028800002460846811C4B788DF80030837803F0AF
:102890000F038DF80130BDF800305B00DB0412EB54
:1028A000D342C9784B00A0F804318370B0F80431EA
:1028B000DB1CA0F80431032332F8024BADF80040D2
:1028C000DBB29DF801401C545B1CDBB29DF800405C
:1028D0001C545B1C491EC9B20029EDD11EBC28E75F
:1028E00010B483B002460846811C4B788DF8003046
:1028F000837803F00F038DF80130BDF800305B00E2
:10290000DB0412EBD342C9780723DBB21C5C8DF8E1
:1029100001405B1CDBB21C5C8DF800405B1CBDF809
:10292000004022F8024B491EC9B20029EDD1062110
:10293000A0F804111EBCFCE67CB50C46FEF706FCB4
:10294000A01C41788DF80010A17801F00F018DF8DE
:102950000110604D2E46BDF8001006EB4101C07815
:102960000722D2B2135D8DF80130521CD2B2135D32
:102970008DF80030521CBDF8003021F8023B401E9B
:10298000C0B20028EDD1FE212846FEF7C3FFADF806
:1029900000009DF801008DF804009DF800008DF8FE
:1029A0000500BDF80400A5F8FE0072B6314648489F
:1029B000FEF7B0FB62B60620A4F804012046BDE88D
:1029C0007640B6E62DE9F04383B00C46FEF7BEFB39
:1029D000A01C41788DF80010A17801F00F018DF84E
:1029E00001103C4D2E46BDF8001006EB4101C078A9
:1029F0000722D2B2135D8DF80130521CD2B2135DA2
:102A00008DF80030521CBDF8003021F8023B401E0A
:102A1000C0B20028EDD1FE212846FEF77BFFADF8BD
:102A200000009DF801008DF804009DF800008DF86D
:102A30000500BDF80400A5F8FE0072B6DFF8988026
:102A400031464046FEF766FB204FB9464FF4807191
:102A50002846FEF75FFF002804D131464846FEF7BE
:102A600059FB03E049464046FEF754FB62B6062098
:102A7000A4F804012046FFF75CFE1248016841F00B
:102A80000101016000231A464FF480713846FEF7B9
:102A900041FA012300224FF480713846FEF73AFADA
:102AA000BDE8F74300F0D8B80648B0F87410002924
:102AB00002D1002101847047491EA0F874107047AC
:102AC00000000000B80400206C45000800F0070872
:102AD00000E807080407002000F8070810B50446BE
:102AE000B4F80011FEF716FF002830D12078B4F8B2
:102AF000021188422BD16078032806D010280DD00F
:102B0000112814D0FA2817D01FE02046FFF751FEF5
:102B1000002801D0012010BD002010BD2046FFF785
:102B200075FE002801D0012010BD002010BD2046F8
:102B3000FFF724FE012010BD2046FFF767FE0028A6
:102B400001D0002010BD002010BD002010BD0020CD
:102B500010BD50F8041B61B150F8042BD30744BFDB
:102B6000A9F101039A18002342F8043B091FFAD186
:102B7000EFE7704730B44C688C600C684C6000B272
:102B8000C002086050689060106850600298046845
:102B90000D6885FB0445A40D44EA852440688968D6
:102BA00081FB0001800D40EA812020181C685568D7
:102BB00085FB0445A40D44EA8524001B5B689468EA
:102BC00084FB0345A40D44EA8524001B106030BC3F
:102BD000704738B5394C3A4D05F12800009005F1A1
:102BE000200305F1140205F10801B4F86600FFF7AF
:102BF000C1FF6068C0F3401000282CD12888401C19
:102C0000288069692A6B8A4200DA2963698880B260
:102C1000884220D100202880201D296BC91281857F
:102C200000212963A988274AB2F92A30808D83427E
:102C30000DDA481CA880B2F92C1080B281420ADA61
:102C4000606840F0200060600020A88031BD00294D
:102C500001D0481EA88031BD70B5194C4FF0954584
:102C6000194E706A294600F031F800F09BF8206296
:102C7000B06A294600F02AF800F094F86062F06A21
:102C8000294600F023F800F08DF8A062306B294649
:102C900000F01CF800F086F8E06242F21070B18E8D
:102CA00090FBF1F06080002020632080A060E06055
:102CB00020616061A061E06170BD0000B804002087
:102CC000A806002000F0070800E80708FF2212EA23
:102CD000D05C1DBF12EAD153944593422BE09C4433
:102CE000D30780EA01021A4043EA002043EA0121A7
:102CF000A1FB0030410038BF40007CF17F010BDBBD
:102D0000FE294ADA5B0842EAC15153EA006373F1D3
:102D1000004C51EB10207047D1F1080CDCF1200180
:102D20002FDB5B0810FA01F10B4373F1004120FA2D
:102D30000CF05041704794451CBF02EAD1539342B6
:102D400080EA010202F000421DD0400019D0490083
:102D500017D05BB9634514D00902B1FA81F39940E9
:102D6000BCEB030CC00140F00040C1E70002B0FA28
:102D700080FC10FA0CF0B3EB0C0CC90141F00041DF
:102D8000B6E71000704740000AD0490008D010F1A3
:102D9000807F94BF11F1807F02E042F0FF407047D6
:102DA000D04370474100090E7F3915D4D1F11F017E
:102DB00014D4400007D2C00140F00040C84048BFD2
:102DC0006FF000407047C00140F00040C8404CBF69
:102DD0004FF00040404270470020704700424FF0E3
:102DE000004058BFC04370471CB5DFF830450FF2B4
:102DF0007D1001900FF27910009004F108030F226A
:102E00000021084600F0B4FA0FF2691001900FF2A9
:102E1000AD10009004F118030F220021084600F0C5
:102E2000A7FA0FF2D91001900FF2D510009004F11B
:102E300028030F220021084600F09AFA0FF2C5106D
:102E400001900FF2CD10009004F138030F22002101
:102E5000084600F08DFA0FF2C51001900FF2F51040
:102E6000009004F148030F220021084600F080FA88
:102E70000FF2E91001900FF22520009004F15803A1
:102E80000F220021084600F073FA0FF26120019032
:102E90000FF24920009004F168030F220021084638
:102EA00000F066FA0FF2812001900FF25D20009091
:102EB00004F178030F220021084600F059FA00239C
:102EC00022461021184600F03DFADFF8540401684C
:102ED000DFF85024114041F40071016013BD38B592
:102EE000DFF83C44DFF8345405F10801A07A00F023
:102EF000010000F049FA05F11801A07A00F0020083
:102F000000F042FA05F12801A07A00F0040000F078
:102F10003BFA05F13801A07A00F0080000F034FA1D
:102F200005F14801A07A00F0100000F02DFA05F13B
:102F30005801A07A00F0200000F026FA05F168019F
:102F4000A07A00F0400000F01FFA05F17801206837
:102F5000800C00F0010000F017FADFF8CC0300F05D
:102F6000F5F92846BDE8324000F0F0B9704700009E
:102F700070470000DFF8A8030168C1F34032002A5F
:102F80001AD1C1F34052002A16D14268C2F340025E
:102F9000002A11D1C1F38042002A0DD1C1F3404271
:102FA000002A09D141F400110160DFF88023D28B9F
:102FB000828441F40031016070470000DFF8600353
:102FC0004168C1F34001002916D10168C1F3804274
:102FD000002A11D1C1F34052002A0DD021F408116A
:102FE0000160DFF84813828CCB8B9A4204D0022216
:102FF0001E312430FEF7B4B87047000000F021BB4A
:1030000070470000C648016841F4005101607047F4
:10301000C348016821F4005101607047C048818CA9
:103020000268C2F34043002B13D0520302D5827AC8
:1030300052060ED4491CBD4A138C89B2994200D362
:1030400019468184B54801210180918C4180B8499D
:1030500041607047B148002101807047B048B0F925
:1030600024100268C2F34043002B16D0520302D54D
:10307000827A520611D4491E09B2002900D50021D6
:10308000AA4A538C8B4200DB19468184A348012154
:103090000180918C4180A749416070479F48002181
:1030A000018070479E48016841F4007101609F49AA
:1030B000898BA0F85A10704799489F494988828C9B
:1030C000914205D30121026861F346120260704704
:1030D0000221026861F3461202607047904800685E
:1030E000C0F38040002800D0DCE770478C480168BE
:1030F000C1F38041002905D08F4900220A80408C0D
:103100004880D9E7704700008548016821F4023102
:1031100001608649CA8B82840FF25903824A498A28
:10312000012000F00FB9000010B5804C0FF24503EC
:103130007D4A618A002000F005F9794801687F4ADC
:10314000114041F4007101604268C2F34002002A5C
:103150000FD1C1F3804100290BD1818CE28B9142C8
:1031600007D0022204F11E012430BDE81040FDF713
:10317000F7BF10BD3CB46A480168C1F34042002A61
:103180001CD14268C2F34002002A17D1664A674C3C
:10319000038BE58AAB420AD241F4023101600FF29F
:1031A0003D03218B012002B030BC00F0CBB8644B52
:1031B000618A012002B030BC00F0C4B833BC704753
:1031C00057480121026861F3461202605A48002103
:1031D00001805649898A41807047000010B5504CE3
:1031E000206840F400302060FFF7EAFF206820F4F8
:1031F000006020604D48C08BA08410BD30B44849A9
:103200000A68C2F34013002B0FD04B4B1C68474D8C
:10321000ED8C641B1C605B888C8CA34203D222F073
:103220002000086014E0038012E0C2F38013002B3A
:103230000ED0414B1C683D4DED8C2C191C605B88F9
:103240008C8C9C4203D222F04000086000E0038096
:1032500030BC704738B5324C2068010B41EAD020B1
:10326000216860F3CF312160304800F114052168F6
:10327000C1F34052002A03D0A08CADF8000023E037
:10328000C1F3C032002A05D0808AADF80000FFF7F4
:1032900009FF19E011F0600F05D000A8FFF7AEFF9D
:1032A000FFF700FF10E0288FC0070AD5A07A40067C
:1032B00007D5C1F34020002803D1608CADF8000091
:1032C00002E0A08CADF80000206820F4C0702060FF
:1032D000A989BDF800208A4204D3ADF8001040F45B
:1032E00080702060E889BDF80010884205D3ADF8F1
:1032F0000000206840F0800020602068C0F300508B
:10330000002807D0288CBDF80010884202D2288CF3
:10331000ADF80000BDF80000E08431BD5805002084
:10332000B80400209FE7FDFFE806002000F0070832
:103330001D3000085D300008F00600209FF7FDFFFB
:103340007531000810805180536070470188002952
:103350000DD0418800290AD0491E418089B2002938
:1033600005D1002101804068010000D0004770476E
:1033700030B4029C039D18801973DA81104658807E
:103380005C609D6030BC70470A880873824212D02E
:103390004B885B1E4B809BB2002B0ED1CB894B80A0
:1033A0000880002A03D14868010006D000478868D9
:1033B000010002D00047C8894880704741E1B34806
:1033C000B3490968090A01F0010181F001010268AD
:1033D00061F310420260AF498989428A914203D267
:1033E000416841F4007141607047A848817AC9077B
:1033F0001BD44168C1F34002002A16D1026802F4CE
:10340000C003B3F5800F10D1A24BB3F84C309B072B
:1034100003D5C1F30021002907D142F480410160A6
:10342000018941F0020101817047016821F4804166
:10343000016001894FF6FD72114001817047934888
:103440000168C1F30052002A10D14268C2F3002281
:10345000002A0BD1904A114208D18E49B1F84C1084
:1034600001894FF6FB72114001817047018941F0DB
:1034700004010181704710B484484168026840F239
:103480001123194228D1C2F30043002B24D111F09B
:10349000240F21D17F4BB3F84C40E40603D5C1F390
:1034A000C014002C18D1B3F84C40240703D5C1F345
:1034B0008014002C10D1B3F84C305B0703D5C1F356
:1034C000C003002B08D121F00201416001894FF6B1
:1034D000FE721140018109E041F002014160018961
:1034E00041F00101018122F40811016010BC704714
:1034F00010B56A48654C2168C1F3404100294FF47A
:10350000804102D04161C04601E00161C04620898E
:10351000A18D604A528C914203D340F00800208173
:1035200010BD4FF6F7710840208110BD10B45C4803
:103530005649584AD38F0C8BA3420AD20288002ADC
:1035400002D0511E018006E0486840F0100048603B
:1035500001E0118A018010BC704752484B490A684B
:10356000C2F3C032002A0AD00288002A02D0511EBB
:1035700001807047486840F0040048607047454942
:10358000C9890180704710B440490A68500C00F0A6
:103590000103454804789C4203D04FF47A74848038
:1035A0000370D30B03F0010344789C4203D04FF423
:1035B0007A74848043708388002B05D0591E8180E3
:1035C0003449098D418024E00B8C41F21114A3424F
:1035D00003D13049098D41801BE0C2F34042002AEB
:1035E00012D04A8A314BB3F856309A420CD24288F4
:1035F000002A02D0511E41800BE08068C8614868F3
:1036000040F08000486004E0C96981602149098D6B
:10361000418010BC704780B51D480068FFF786FFE9
:10362000FFF79BFFC046C046FFF7ADFFFFF7C7FEA1
:10363000FFF721FFFFF7D9FEFFF701FFBDE80140CB
:1036400056E710B51A4C4FF4007120460161C04690
:103650000E484168174A11404160026822F48032E6
:10366000026021F0EC01416022F4E352026021F09B
:103670000201416022F4001101604FF40071204604
:10368000BDE81040FEF773BD00000000B804002044
:103690000810014000F0070880010800000C0140FC
:1036A000F8060020FA060020DC06002000E80708E3
:1036B00000100140EEFDFFFF10B59E480021018182
:1036C0004FF6FF7141819C4C402120460161C0466C
:1036D000802120464161C0464FF40071204641617F
:1036E000C046802120460161C0464FF4007120464B
:1036F0000161C046402120464161C046BDE81040FE
:1037000022E070B504460D468B4E4FF48071304672
:103710000161C0460120A0402946014204D0102189
:1037200030460161C04603E0102130464161C04689
:103730004FF4807130464161C0464FF4807130468D
:10374000BDE87040FEF711BD38B57B4C40212046E6
:10375000FEF70DFD4FF4007120460161C046754D26
:1037600029890020FFF7CDFF29890120FFF7C9FF34
:1037700029890220FFF7C5FF29890320FFF7C1FF30
:1037800029890420FFF7BDFF29890520FFF7B9FF2C
:1037900029890620FFF7B5FF29890720FFF7B1FF28
:1037A00029890820FFF7ADFF29890920FFF7A9FF24
:1037B00029890A20FFF7A5FF29890B20FFF7A1FF20
:1037C00029890C20FFF79DFF29890D20FFF799FF1C
:1037D00029890E20FFF795FF29890F20FFF791FF18
:1037E000802120464161C046802120460161C046BB
:1037F00080212046BDE83440FEF7B9BCF8B5054647
:103800000C4626784C4F4FF4005138460161C046B3
:103810000120A840B968890401D5304301E026EAB7
:1038200000002070F1BD70B504460D46424E0821DF
:1038300030464161C046082130460161C0462946F4
:103840002046BDE87040D9E770B582B03B4C0421FA
:1038500020460161C046384D082128460161C04616
:10386000374E4FF4805130460161C0464FF400514D
:1038700028460161C046042120464161C04604211A
:1038800020460161C0464FF4805130464161C04638
:1038900000A90020FFF7B2FF00A90120FFF7C3FF36
:1038A00000A90220FFF7BFFF00A90320FFF7BBFF1D
:1038B00000A90420FFF7B7FF00A90520FFF7B3FF19
:1038C00000A90620FFF7AFFF00A90720FFF7ABFF15
:1038D0000DF101010020FFF7A6FF0DF1010101200C
:1038E000FFF7A1FF0DF101010220FFF79CFF0DF191
:1038F00001010320FFF797FF0DF101010420FFF7FD
:1039000092FF0DF101010520FFF78DFF0DF101017F
:103910000620FFF788FF0DF101010720FFF783FF65
:103920004FF4805130460161C0460248BDF8001096
:10393000418173BDB8040020000C01400014014017
:103940000010014070477047FEE7FEE7FEE7704752
:1039500070477047894801884FF6FE721140018018
:10396000704710B5864C00212046FEF750FB002022
:103970002082A0844FF49041824A83480368DB068A
:103980000DD5106820F00C001060A2F87610A2F897
:10399000781001212046BDE81040FEF738BB0368CF
:1039A00023F00203036002234361136823F004033E
:1039B0001360A2F8761075490988C90707D4102149
:1039C000016001212046BDE81040FEF720BB10BD7C
:1039D00010B56E4C00212046FEF719FB0020208216
:1039E000A0846949086820F0080008600820486140
:1039F0006448026822F0080202604FF49042A0F886
:103A000078205F480288D20709D410220A6000217A
:103A1000018281840121BDE81040FEF7F8BA10BD93
:103A200010B55B4804882046800701D5FDF788FC67
:103A3000600703D5BDE81040FDF71DBE10BD80B581
:103A40005448016841F00F01016000F058F9BDE8E9
:103A50000140FFF7BEB838B5494C00212046FEF7BB
:103A6000D6FA00202082484802214161016821F0F5
:103A7000020101604349484A538FCD8AAB420DD2BF
:103A8000928F0B8B9A4209D2A28CA1F87620002249
:103A9000A2840A6842F004020A6009E00A6822F07F
:103AA00004020A604FF49042A1F876200021A1841C
:103AB00036490988C9070AD41021016000202082F4
:103AC000A08401212046BDE83440FEF7A0BA31BDF4
:103AD00038B52E4C00212046FEF799FA00202082AE
:103AE000294908204861086820F008000860254836
:103AF000294A538FC58AAB420DD2D28F438B9A424B
:103B000009D2A28CA0F878200022A284026842F098
:103B10000802026009E0026822F0080202604FF425
:103B20009042A0F878200020A08415480288D2078F
:103B300009D410220A600021018281840121BDE89C
:103B40003440FEF764BA31BD38B50F4C10206061C7
:103B5000002020600A4D01462846FEF758FA002052
:103B60002882A8840A20206001212846FEF74FFA07
:103B700001210648BDE83440FEF749BA1004004070
:103B8000000C0040B8040020000401400010004078
:103B9000100000400400024000E8070830B48648E6
:103BA00086490A1D026001F206024260844A02F15F
:103BB0001C03836002F22603C36002F21203036156
:103BC00002F22A0343617F4B03F164048461C36101
:103BD0005C1C046201F10804446201F20A0484627C
:103BE00003F26604C46200245C70146824F4003498
:103BF0001460754C04F246055D6002F236059D6066
:103C000002F16005DD6002F10C051D615C6104F2EA
:103C100012059D6104F14805DD6102F232051D6265
:103C200002F262055D6202F20E059D62A51CDD6274
:103C300004F114051D6304F24A055D6302F23A05BE
:103C40009D6302F16405DD6302F110051D64251D0D
:103C50005D6404F216059D6404F14C05DD6402F216
:103C60003E051D6502F266055D6502F212059D6561
:103C700004F20605DD6504F118051D6604F1500324
:103C8000036302F24603436302F26A03836302F2B0
:103C90001603C36304F20A03036404F11C034364C0
:103CA00004F25203836402F24A03C36402F16C0318
:103CB000036502F11803436504F10C03836504F204
:103CC0001E03C36500205085C88B90840020D061FE
:103CD000C2F83200C2F83600C2F83A00C2F83E001C
:103CE000C2F84200C2F84600C2F84A00C2F84E00CC
:103CF000C2F85200C2F85600108430BC704738B584
:103D0000304C201D00F00CF904F11C0000F008F903
:103D100004F1340000F004F904F14C0000F000F963
:103D2000254D05F1300000F0FBF805F1480000F0EA
:103D3000F7F823480168490C01F001016170008C1B
:103D400041F2111188420BD1002020701F48002140
:103D500001804FF400611E48BDE83440FEF705BA0B
:103D6000284600F039F8BDE8314018B414494A8DAE
:103D700012480389934200D20289164B18888007A3
:103D800017D518884FF6FD74204018801048096830
:103D9000C1F34041002905D09A844FF4006114BC5E
:103DA000FEF7E5B9002199844FF4006114BCFEF7D9
:103DB000DCB911BC704700004806002000F007087D
:103DC000B8040020E005002000E80708342C01407A
:103DD00000080140102C0140F0B486B000242546B4
:103DE000CDE90245816809680291C168B1F9001006
:103DF0000269B2F90020891AADF80410BDF9041067
:103E0000002917D5C16922460A70816909780029FD
:103E10000AD1DDE90267BDF904104A42D317B21A8C
:103E200067EB0303CDE902230399002918D0CDE9FC
:103E3000024515E0816922460A70C16909780029A6
:103E40000ED1DDE90245BDF90420D317A2186B415C
:103E5000CDE9022304D04FF0FF320023CDE9022345
:103E60008168029A0A60DDE9024541680A88A2FB7E
:103E7000046702FB0577CDE902673946002903D1C3
:103E8000314611F1004F04D36FF000420023CDE919
:103E900002230299BDF9042002EB11410091C1688F
:103EA0000988002903D0016A0978002906D1002178
:103EB0000091816800220A60C1690A700099002996
:103EC00001D5002100910099B1F5803F02D34FF652
:103ED000FF71009100990268128851430091816935
:103EE000826A1388009CA34204D3128800920122A4
:103EF0000A7001E000220A70C169426A009B1488BE
:103F0000A34204D31288009201220A7001E0002229
:103F10000A704069BDF80010018006B0F0BC70471F
:103F200018B48168098802691288891A0A0400D5C0
:103F300000214269128851430A0AB2F5805F01D319
:103F400040F6FF7243681968C468B4F90040121B58
:103F5000ADF80020BDF900201204BDF9002004D501
:103F60005242891A07D5002105E0511811F0704F0F
:103F700001D06FF070411960026812885143C06827
:103F8000090C018011BC70474648016841F400717A
:103F9000016045498A8BA0F85A20CA8B4284434A63
:103FA00001F24A01516000F29A01916000F276013B
:103FB000D160126102F11C01516102F21E01916196
:103FC0000021C0F89A10704738B5384C201D00F019
:103FD00071F837492088B1F84420821A00D50022B0
:103FE00092B2B2F5105F01DA4FF41052B2F5D84F29
:103FF00001DD4FF4D8422B480285B0F85A20002A40
:104000000CD0511EA0F85A1089B2002949D1818CD8
:104010004184016821F40071016031BD827A520649
:104020003FD50268C2F3C043002B3AD14368C3F3C3
:104030000023002B35D1C2F38043002B31D0C2F3D3
:104040004043002B2DD0C2F38002002A29D0164B0A
:1040500003F21A02558EED0723D56588002D02D094
:10406000681E608031BDD58D65805B8B048DA34259
:1040700008D2D188428C914202D3511C418431BD77
:10408000418431BD038BD48BB1F8581009198B4290
:10409000EFDB1189428C8A4202D3511E418431BD2B
:1040A000418431BDB804002000F007080000002062
:1040B00000E80708F0B486B081680A880024254625
:1040C000CDE9004541680B680093C3681B88D21A8C
:1040D0000492049A002A0DD5DDE90067049A524241
:1040E000D317B21A77EB0303CDE9002310D0CDE943
:1040F00000450DE0DDE90045049AD317A2186B4195
:10410000CDE9002304D04FF0FF320023CDE9002396
:10411000009A0A60DDE9004501680A88A2FB04678D
:1041200002FB0577CDE900673946002904D04FF03E
:10413000FF320023CDE90023C0680099090C0180FB
:1041400006B0F0BC7047FEE74B48016821F48021BF
:1041500041F400510160416821F008014160474984
:10416000474A528F0A80474A128F4A800168464A5E
:1041700011400160704740480168C1F34032002A95
:104180004268C2F3C00210D0002A03D021F480217B
:1041900001607047394A1388002B02D0581E1080E6
:1041A000704721F4802101607047002A02D021F479
:1041B00080210160704710B500F01DF82E4801689D
:1041C0002F4AC1F38043002B0AD1D38E048BA34224
:1041D00002D241F480210160508F2849088010BD2F
:1041E000008B118F884202D2BDE81040C3E7508F88
:1041F0002249088010BD00211F480268C2F3804395
:10420000002B00D00121C2F34032002A01D041F03E
:104210000201002905D0022918D00BD3032921D08F
:1042200070471649174A128F4A80416821F00801E9
:104230004160704711494A88002A02D0501E4880C8
:104240007047416841F00801416070470B494A8856
:10425000002A02D0501E48807047416841F0080192
:10426000416070470549074A128F4A80416821F032
:104270000801416070470000B8040020F4060020E7
:1042800000F0070800E80708DF67FFFF10B500F03F
:1042900081F8FBF74DFF3B4C94F85C00C00702D55A
:1042A000FCF79AFCFCE7FEF73DFAFFF705FAFFF78B
:1042B00075FC00F075F800F0BDF8FFF77FF8FEF729
:1042C00093FDFFF741FF00F0F1F8FFF75DFE4FF4BB
:1042D0009040A4F87600A4F87800206840F001002F
:1042E0002060FEF7B9FCFFF7AFFAFFF72DFA00F0F8
:1042F00022F82068C0F34000002815D0FFF78BF9A2
:10430000FEF7EDFD00F068F800F0B0F8FFF753FF9E
:10431000FEF7A0FF00F0D4F8FFF756FEFEF7C4FB4F
:10432000206820F002002060FCF756FCFDF719F829
:10433000FDF7B2F9D7E718B413481249134A0B8AAC
:10434000B2F84040A34212D20B6823F480030B6002
:10435000B2F842200260120202600020C8614FF4ED
:1043600000610B4814BCFDF700BF11BC7047026828
:10437000002A02D0521E0260EFE7086840F4800075
:104380000860F2E7B80400206C00002000E807088D
:10439000000801400148002101607047B804002076
:1043A0001F480021C0F8521081851E491E4A0A602C
:1043B00000F252024A6000F212028A6000F12C02FE
:1043C000CA6001F118020A6101F21A024A61016829
:1043D00021F010110160704780B51248FFF7A0FD71
:1043E0000F48818D0268114BDB8E8B4203D242F065
:1043F0001002026002E022F0100202600C4A138EEA
:104400008B4204D2016841F48011016001BD528EDB
:10441000914203D2016821F48011016001BD0000C6
:10442000B8040020200000202EF0070800E807084C
:1044300000F0070819480021C0F85610C185184936
:10444000184A0A6000F256024A6000F118028A60B7
:1044500000F22E02CA6001F118020A6101F21A028A
:104460004A61416821F040014160704780B50C48C5
:10447000FFF756FD09480C49CA8FC38D9A4204D2F2
:10448000416841F04001416001BD91F84C100907BD
:1044900003D4416821F04001416001BDB80400200F
:1044A0003C0000203CF0070800F007082D48416858
:1044B00021F480714160016821F40121016070479D
:1044C00010B5284CE08A2849B1F84020824208D231
:1044D000606820F480706060206820F40020206014
:1044E00021E040314A8882421DD36268C2F3002332
:1044F000002B03D0236843F4002323608B8883427E
:1045000007D222F480706060206840F400202060B0
:1045100009E0C988814206D342F480706060206857
:1045200020F4002020602068C0F3C04100290AD197
:10453000C0F30030002805D0FEF742FE206820F4CA
:104540008050206010BD00F40811B1F5003FF5D196
:104550006168C1F300210029F0D140F4805020604F
:1045600010BD0000B804002000F0070878787878C3
:10457000787878782044455847424C2076302E3061
:10458000302032382E30332E323031322077777768
:104590002E696E746D6173682E72750010B50749CF
:1045A00079441831064C7C44163404E00A68081D2E
:1045B000511888470146A142F8D110BD08000000FB
:1045C000280000008FE5FFFF940600007000002027
:1045D00000000000CBDAFFFF700000006800000060
:1045E000000000200000000070470448F3468047A8
:1045F000034981F308884FF001005847E945000856
:10460000080A0020FFF7F1FF002801D0FFF7C6FFDE
:104610000020FFF73BFE00F000F800F001B80000BA
:104620000746384600F002F8FBE700000149182071
:10463000ABBEFBE726000200C046C046C046C046EF
:10464000FFF7E0FF00000000000000000000000095
:10465000000000000000000000000000000000005A
:104660000000000100000000000000000000000049
:104670000000000000000000000000000000000139
:10468000000000000000000000000000000000002A
:104690000000000000000000000000010000000019
:1046A00001020304010203040607080902040608C4
:0446B0000000010005
:020000040807EB
:10E800000000030000000000000000000000000005
:10E8100000000001000100010001000100010001F1
:10E82000000100010484F6BF3DDA7C3FD270C93B91
:10E83000D270C9BB90010001B80B1000100010008D
:10E840009000100000000002000100010001000122
:0CE85000000100010001000108000000B0
:10F000000107010780000001C05D0D00FF0FFF0F29
:10F01000FF0FF0000008FF0F8000FF0FFF0F00043C
:10F02000FF030000080001000100FF0F881310001B
:10F030000008000400064000200000041000340214
:10F040001000100010001000100010000000000060
:10F8000000000000000000000000000000000000F8
:10F8100000000000000000000000000000000000E8
:10F8200000000000000000000000000000000000D8
:10F8300000000000000000000000000000000000C8
:10F8400000000000000000000000000000000000B8
:10F8500000000000000000000000000000000000A8
:10F860000000000000000000000000000000000098
:10F870000000000000000000000000000000000088
:10F880000000000000000000000000000000000078
:10F890000000000000000000000000000000000068
:10F8A0000000000000000000000000000000000058
:10F8B0000000000000000000000000000000000048
:10F8C0000000000000000000000000000000000038
:10F8D0000000000000000000000000000000000028
:10F8E0000000000000000000000000000000000018
:10F8F0000000000000000000000000000000000008
:040000050800463970
:00000001FF
