:020000040800F2
:100000001848002081DD000855B9000857B90008DC
:1000100059B900085BB900085DB90008000000008C
:100020000000000000000000000000005FB90008B0
:1000300061B900080000000063B9000865B9000854
:10004000B1E40008B5E40008B9E40008BDE4000824
:10005000C1E40008C5E40008C9E40008CDE40008D4
:10006000D1E40008D5E40008D9E40008DDE4000884
:10007000E1E40008E5E40008E9E40008EDE4000834
:10008000F1E40008F5E40008F9E40008FDE40008E4
:1000900001E5000805E5000809E500080DE5000890
:1000A00011E5000815E5000819E500081DE5000840
:1000B00021E5000825E5000829E500082DE50008F0
:1000C00031E5000835E5000839E500083DE50008A0
:1000D00041E5000887B500080F7400084DE50008E9
:1000E00051E5000855E5000859E500085DE5000800
:1000F00061E5000865E5000869E500086DE50008B0
:1001000071E5000875E5000879E500087DE500085F
:1001100081E5000885E500082DB80008FB7300089C
:1001200091E5000895E5000899E500089DE50008BF
:10013000A1E50008A5E50008A9E50008ADE500086F
:10014000B1E50008B5E50008B9E50008BDE500081F
:10015000C1E50008C5E50008C9E50008CDE50008CF
:10016000D1E50008D5E50008D9E50008DDE500087F
:10017000E1E50008E5E50008E9E50008EDE500082F
:10018000F1E50008F5E5000800F5E070026891422D
:1001900003D343681A44914202D380680028F5D102
:1001A00070471849086880B94FF4805048604FF490
:1001B00080324FF0FF30C86008610420124B8A6023
:1001C0004861C3F8BC01114808600120704701F183
:1001D000080313F0070F0EBF0023C3F1080303F059
:1001E00007031944D21A8161C26042F001034B60D7
:1001F000091D4FF0280C41F802C0024A1369C3617F
:100200007047000018420020543100206859883C93
:100210002DE9F84F84B00646AFF30080F52E1E4D51
:1002200080F013820B2E31BF10260B36F608F60035
:100230002868F408E04010F0030F4AD0C04300F0F3
:100240000100041905F1280000EBC408E700D8F804
:1002500008607068C008C000B84218BF01F0F6F925
:10026000D6F80890464508BF01F0F0F94E4508BFA2
:1002700001F0ECF97068C008C000B84218BF01F086
:10028000E5F9C8450AD12868012101FA04F420EAF9
:1002900004042C6010E000BF54310020286981451F
:1002A00008D3D9F80C10B14204D1C8F80890C9F8A5
:1002B0000C8001E001F0CAF947F00300311D7060C5
:1002C000301DCA5942F00102C25106F1080800F07F
:1002D0001DBFA968B14280F0A883002800F0A28069
:1002E0004FF0010808FA04F1490000FA04F448420A
:1002F00001430C4060420440641E200B00F01000DB
:10030000C440610901F00801CC40A20802F00402D7
:10031000D440630803F002030818DC401018C4F34B
:10032000400718183818FC40241805F1280000EB85
:10033000C40AE700DAF80890D9F80400C008C00041
:10034000B84218BF01F082F9D9F808B0D14508BF0A
:1003500001F07CF9D94508BF01F078F9D9F804001B
:10036000C008C000B84218BF01F070F9DA4506D1E4
:10037000286808FA04F420EA04042C600DE02969D6
:100380008B4508D3DBF80C00484504D1CAF808B007
:10039000CBF80CA001E001F059F9BF1B46F00300B7
:1003A00009F10402C9F8040047F00101915109EB79
:1003B00006020192D751AC684FEAD40ABAF11F0F76
:1003C00088BF01F043F934B3CDF800A005F128004F
:1003D0006E6900EBCA0AD346102C38BF01F036F91B
:1003E0002968009821FA00F2D30704D408FA00F033
:1003F0000843286007E0DAF80800296988422CBF22
:10040000834601F023F9CAF80860CBF80C60C6F8FF
:1004100008B0C6F80CA0AF6009F10808019868613F
:1004200000F074BE6868002800F020834142084054
:10043000401E010B01F01001C840420902F0080201
:10044000D040830803F00403D840440804F00204B9
:100450005118E0405918C0F34007611805F5987825
:100460007918F840401858F820104868C008C000B3
:100470008A46A0EB060B08E001464868C008C000A9
:10048000801B58453CBF83468A4608690028F3D143
:1004900049690029F1D128698245C0F0D380DAF892
:1004A0000410C90806EB0B09C900494518BF01F043
:1004B000CDF80AEB06008245019080F0C380DAF89F
:1004C0000C40DAF8187054450DD0DAF808002969A4
:1004D000884223D3C268524504BFA16851451DD14B
:1004E000C460A0601CE00AF114010C6834B90AF180
:1004F00010010C68A4B101E011460C6804F114026B
:100500001068002802BF04F1100210680028F3D11F
:100510002869814202D300220A6001E001F096F8C6
:10052000002F38D0DAF81C0008EB80010A689245E9
:100530000AD11CBB6A68012303FA00F022EA00001A
:1005400068600020086026E029698F4213D338696B
:10055000504514BF7C613C61ECB129698C4218D3D1
:10056000A761DAF8100058B1884226BF2061846183
:1005700001F06CF804E001F069F8EDE70C60ECE7DD
:10058000DAF8140038B12969884202D360618461C5
:1005900001E001F05BF8BBF1100F0ED249F003004F
:1005A0000AF10401CAF804000AF1040051F8092014
:1005B00042F0010240F809203EE046F003010AF152
:1005C0000402CAF804104BF001009051019941F85F
:1005D0000BB0A8680090C4081F2C88BF01F036F843
:1005E000009828B305F1280000996F6900EBC40852
:1005F000C146102938BF01F029F8286820FA04F113
:10060000CA0705D4012101FA04F404432C6007E071
:10061000D8F80800296988422CBF814601F016F8F5
:10062000C8F80870C9F80C70C7F80890C7F80C80B3
:10063000C5F808B0019868611AF1080800F0F58162
:1006400000F064BD01F002F8EFE116F1400F28BFA1
:100650004FF0FF3680F0E9810B36F6086B68F60044
:10066000002B00F0E2810027300AC6F1000908BF24
:10067000002423D0B0F5803F28BF1F241ED2A0F550
:100680008071090C01F008018840A0F58052120C1D
:1006900002F004029040A0F58044240CC1F10E0148
:1006A00004F00204891A091BA04001EBD031C81DD7
:1006B00026FA00F404F0010404EB410405F59878EF
:1006C00058F8240030B31F2C0FBFB4464FEA540C27
:1006D000CCF1190C06FA0CFCBE46494601E04FEA83
:1006E0004C0C4268D208D200921B8A4202D21100FE
:1006F00007460CD0426910304FEADC7950F82900E7
:10070000002A1CBF824296460028E8D170468946DE
:10071000A8BBB7BB012101FA04F4640060420443A2
:10072000234000F08281584203405B1E180B00F00A
:100730001000C340590901F00801CB409A0802F0AB
:100740000402D3405C0804F002040818E3401018C7
:10075000C3F3400C2018604423FA0CF31B1858F81C
:1007600023000CE008464168C908C900891B4945B7
:100770003CBF8946074601690029F3D1406900283A
:10078000F1D1002F00F05181A868801B814580F0D5
:100790004C8129698F42FFF455AF7868C008C000CA
:1007A00006EB0901884218BF00F050FF07EB060B6B
:1007B0005F45BFF447AFFC68D7F818A0BC420CD027
:1007C000B8682969884223D3C268BA4204BFA168C5
:1007D000B9421DD1C460A0601CE007F114010C688F
:1007E00034B907F110010C68A4B101E011460C689E
:1007F00004F114021068002802BF04F1100210680E
:100800000028F3D12869814202D300220A6001E066
:1008100000F01CFFBAF1000F39D0F86908EB800135
:100820000A6897420AD134BB6A68012303FA00F0D0
:1008300022EA000068600020086028E029698A45F3
:1008400016D3DAF81000B84214BFCAF81440CAF838
:100850001040E4B129698C4217D3C4F818A0386954
:1008600058B1884226BF2061846100F0EFFE04E0A9
:1008700000F0ECFEEDE70C60ECE7786938B129692F
:10088000884202D36061846101E000F0DFFEB9F1CB
:10089000100F0CD2B14449F00300391D7860381DA7
:1008A00051F8092042F0010240F80920B9E046F071
:1008B00003013A1D796049F0010090514FEAD900D7
:1008C0004BF809901F2822D805F1280101EBC0043C
:1008D000296821FA00F2D307A04605D4012202FAC2
:1008E00000F00843286006E0A068296988422CBF10
:1008F000804600F0ABFEC4F808B007F10800C8F865
:100900000CB040F8068007F10C018C5189E05FEAD9
:10091000192008BF002123D0B0F5803F28BF1F2138
:100920001ED2A0F58072120C02F008029040A0F5D1
:100930008051090C01F004018840A0F580431B0C94
:10094000C2F10E0203F00203521AD21A984002EBCF
:10095000D032D01D29FA00F101F0010101EB420172
:1009600007F11403CBF81C1000229A5107F1100371
:1009700008EB81009A516A6822FA01F3DC0711D46E
:10098000012303FA01F111436960C0F800B0CBF80C
:10099000180007F1080107F10C0040F806B041F813
:1009A00006B03EE002681F291DBF4908C1F11901C8
:1009B00009FA01F1494600E002465068C008C0004B
:1009C000484518D002F11003C80F03EB800349001B
:1009D00018680028F0D12869834220D3C3F800B0FA
:1009E00007F10C01CBF8182041F806B007F1080018
:1009F00040F806B015E0296990688A4228BF88420D
:100A00000DD3C0F80CB007F10801C2F808B0885146
:100A100007F10C0082510022CBF8182001E000F011
:100A200015FE17F1080840F07183A868B0421DD385
:100A3000811B6A69102909D39319A96041F001004B
:100A40005860595046F0030656600BE00021A9603B
:100A500040F00304111D5460141D0E5846F00106A9
:100A6000265000236B6102F108084FE3E8688642D4
:100A7000C0F03C83DFF8CC9BD9F8000008B9FFF741
:100A800090FBD9F8081088192F30491E20EA01017F
:100A90008E4280F0398305F5D877B86838B13A6866
:100AA00089188A4280F030838842C0F02D8300F09C
:100AB000EDFD00281CBFD0F8008010F1010F00F000
:100AC000238339687A68414439608A4238BF796043
:100AD000AC6904BB296909B1884200D228610021B0
:100AE0003861C7F81480F9614FF0FF31D9F8002060
:100AF0006A62296205F1280200219260D26002F147
:100B0000080353611361891C10321F29F5D9A8F11C
:100B1000280201461DE005F5E0710A46814600E025
:100B20009268D2B11068536803449945F8D1107B9C
:100B3000030712D413689C420FD3D2F804C0634455
:100B40009C420AD2C444C2F804C02146E86808EBBB
:100B500000022846FFF73BFBC5E22869814538BF04
:100B6000C5F8109009EB080000E08968002900F042
:100B7000C1810A688242F8D1087B020700F1BA817C
:100B80000868C1F800904A6842444A6009F10801C7
:100B900011F0070F08BFCDF8049006D0C1F108018D
:100BA00001F0070109EB0102019200F1080111F0C7
:100BB000070F04D0C1F1080101F007010844804685
:100BC0000198A8EB00018419A1EB060B274646F01B
:100BD00003064660474528BF00F038FD98F804003A
:100BE000C10758BF00F032FDBBF1100F38BF00F055
:100BF0002DFDA869804508D1E9688B44C5F80CB083
:100C0000AF614BF00100786070E1686980450AD1FE
:100C1000A9686F618B44C5F808B04BF0010078609B
:100C200047F80BB062E1D8F8040000F00301012995
:100C300040F0BC80C008C000C1081F29039040D804
:100C4000D8F808200092D8F80C600291B04508BF8F
:100C500000F0FCFC0098804508BF00F0F7FCD8F8D5
:100C600004000299C008C000B0EBC10F18BF00F02B
:100C7000EDFC0299009A05F1280000EBC1008242C8
:100C800008D011462A699142C0F08B80CA6842455B
:100C900040F0878000998E4206D102982A6801238D
:100CA00083409A432A607EE0864205D029698E42BD
:100CB00077D3B068404574D10098C6600099B160A0
:100CC00071E0D8F818000090D8F80C6046450DD0B7
:100CD000D8F808002969884223D3C268424504BF76
:100CE000B16841451DD1C660B0601CE008F1140137
:100CF0000E6836B908F110010E68A6B101E0114680
:100D00000E6806F114021068002802BF06F11002F6
:100D100010680028F3D12869814202D300220A60BA
:100D200001E000F093FC009800283CD0D8F81C00AB
:100D300005F5987101EB80010A6890450AD12EBB38
:100D40006A68012303FA00F022EA000068600020CC
:100D5000086028E000992869814214D30869404559
:100D600014BF4E610E61F6B129698E4219D3009805
:100D7000B061D8F8100058B1884226BF3061866152
:100D800000F064FC04E000F061FCECE70E60EBE7CF
:100D9000D8F8140038B12969884202D3706186619D
:100DA00001E000F053FC039988448B44D8F8041008
:100DB00049084900C8F804104BF0010078604FEA78
:100DC000DB0647F80BB01F2E22D805F1280000EBF8
:100DD000C604A146BBF1100F38BF00F037FC2868ED
:100DE00020FA06F1CA0705D4012101FA06F60643E6
:100DF0002E6006E0A068296988422CBF814600F079
:100E000025FCA760C9F80C70C7F80890FC606DE07D
:100E10005FEA1B2008BF002123D0B0F5803F28BF28
:100E20001F211ED2A0F58072120C02F00802904021
:100E3000A0F58051090C01F004018840A0F5804321
:100E40001B0CC2F10E0203F00203521AD21A984090
:100E500002EBD032D01D2BFA00F101F0010101EBC1
:100E60004201F961002305F598727B6102EB810074
:100E70003B616A6822FA01F3DE0707D4012303FA13
:100E800001F1114369600760B8611DE002681F2924
:100E90001DBF4908C1F119010BFA01F1594600E0E3
:100EA00002465068C008C000584510D002F1100337
:100EB000C80F03EB8003490018680028F0D12869A7
:100EC000834211D31F60BA61FF60BC600EE02969E4
:100ED00090688A4228BF884206D3C7609760B8608E
:100EE000FA600020B86101E000F0B0FB019800F169
:100EF00008080BE121462846FFF746F901684068DB
:100F000008440090A0F1270111F0070000980EBFDF
:100F10000021C1F1080101F007010844A0F12F0BE5
:100F200004F110018B4538BFA3460BF118020021D4
:100F300002920191A8F1280249462846FFF747F995
:100F40000BF1080010F0070F18BF00F07FFB1B200B
:100F5000CBF8040005F5E07292E809500BF10801A6
:100F600081E8095000210BF10800F961B861009A8D
:100F700002980199C7F81090C7F81480072300E081
:100F8000001D491C00F1080797424360F8D301296E
:100F9000D8BF00F05BFBA34500F0A580ABEB040BD2
:100FA000201D221D50F80B104908490042F80B1073
:100FB0004BF0010060604FEADB0944F80BB0B9F177
:100FC0001F0F22D805F1280000EBC907B846BBF176
:100FD000100F38BF00F03AFB286820FA09F1CA0761
:100FE00005D4012101FA09F10843286006E0B86838
:100FF000296988422CBF804600F028FBBC60C8F8F5
:101000000C40C4F80880E7606DE05FEA1B2008BF71
:10101000002123D0B0F5803F28BF1F211ED2A0F5AC
:101020008072120C02F008029040A0F58051090C69
:1010300001F004018840A0F580431B0CC2F10E02B0
:1010400003F00203521AD21A984002EBD032D01D9C
:101050002BFA00F101F0010101EB420105F5987254
:10106000002302EB8100E161636123616A6822FA77
:1010700001F3DF0707D4012303FA01F1114369608B
:101080000460A0611DE002681F291DBF4908C1F16D
:1010900019010BFA01F1594600E002465068C008F8
:1010A000C000584510D002F11003C80F03EB8003B5
:1010B000490018680028F0D12869834211D31C60C8
:1010C000A261E460A4600EE0296990688A4228BFAA
:1010D000884206D3C4609460A060E2600020A061F2
:1010E00001E000F0B3FAE86886420DD2801BA969DE
:1010F000E8608A19AA6140F00100506046F00306DA
:101100004E6001F1080801E04FF00008AFF30080E5
:10111000404605B0BDE8F08F002800D170472DE9AA
:10112000F047A0F10805AFF30080DFF81C653169D6
:101130008D42C0F08482686800F00302012A00F04A
:101140007E82C2084FEAC209C20705EB090839D4FA
:101150002C6810F0030F00F06E82604205448D424F
:10116000A144C0F06C827069854200F0DE80E40822
:10117000202C72D2D5F80CA0AF68554508BF00F0FE
:1011800065FABD4208BF00F061FA6868C008C00097
:10119000B0EBC40F18BF00F059FA06F1280000EBBD
:1011A000C400874205D031698F4253D3FA68AA42FE
:1011B00050D1BA4540D13068012101FA04F420EA47
:1011C00004043460454580F03A82D8F80440E007D2
:1011D00040F13582A10700F18381B069804540F07C
:1011E000B780F168B5618944C6F80C9049F00100F8
:1011F000686071698D4202D100207061B060F16950
:10120000494580F01882DFF83C24106808B9FEF7E1
:10121000C8FFB169002900F00E82F068292824BFB8
:101220003046FEF7B1FFF069F168884280F0038232
:101230004FF0FF30F061FEE1824506D03069824513
:1012400008D3DAF80810A94204D1C7F80CA0CAF8EC
:101250000870B7E700F0FAF9B4E7EC68AF69AC42A0
:101260000BD0A868884222D3C168A94204BFA268F3
:10127000AA421CD1C460A0601BE005F114021468EE
:1012800034B905F1100214689CB101E01A461468E3
:1012900004F114031868002802BF04F11003186851
:1012A0000028F3D18A4202D30021116001E000F04E
:1012B000CDF9002F86D0E86906F5987101EB800121
:1012C0000A6895420AD124BB7268012303FA00F030
:1012D00022EA000070600020086073E731698F42E5
:1012E00014D33869A84214BF7C613C61002C3FF4E0
:1012F00069AF31698C42ADD3A761286958B1884282
:1013000026BF2061846100F0A1F904E000F09EF99D
:10131000ECE70C60EDE7686900283FF453AF3169F2
:10132000884297D3606184614CE798F8040000F02C
:10133000030003287FF446AFC6F8089049F0010186
:10134000D8F8040040084000C8F8040069600AE0CA
:10135000706980450AD1B16875618944C6F8089002
:1013600049F00100686045F8099064E1E408E40090
:10137000A144E408202C3AD2D8F80CA0D8F8087080
:10138000D04508BF00F062F9B84508BF00F05EF92B
:10139000D8F80400C008C000B0EBC40F18BF00F0BC
:1013A00055F906F1280000EBC400874207D03169E7
:1013B0008F42C0F08880FA68424540F08480BA4588
:1013C00007D13068012101FA04F420EA04043460F2
:1013D0007BE0824506D03069824574D3DAF8081084
:1013E000414570D1C7F80CA0CAF808706DE0D8F874
:1013F0000C40D8F8187044450DD0D8F80800316971
:10140000884223D3C268424504BFA16841451DD12B
:10141000C460A0601CE008F114010C6834B908F144
:1014200010010C68A4B101E011460C6804F114022B
:101430001068002802BF04F1100210680028F3D1E0
:101440003069814202D300220A6001E000F0FEF818
:10145000002F3AD0D8F81C0006F5987101EB8001F6
:101460000A6890450AD11CBB7268012303FA00F098
:1014700022EA000070600020086026E031698F4297
:1014800013D33869404514BF7C613C61ECB13169CC
:101490008C4218D3A761D8F8100058B1884226BFF3
:1014A0002061846100F0D2F804E000F0CFF8EDE7AD
:1014B0000C60ECE7D8F8140038B13169884202D3E7
:1014C0006061846101E000F0C1F849F001006860EA
:1014D00045F8099071698D420BD1C6F80890AAE0D1
:1014E00064086400C8F8044049F00100686045F8E9
:1014F00009904FEAD907202F22D206F1280000EBED
:10150000C704A046B9F1100F38BF00F09FF830684B
:1015100020FA07F1CA0705D4012101FA07F70743AA
:10152000376006E0A068316988422CBF804600F031
:101530008DF8A560C8F80C50C5F80880EC607AE01A
:101540005FEA192008BF002123D0B0F5803F28BFF3
:101550001F211ED2A0F58072120C02F008029040EA
:10156000A0F58051090C01F004018840A0F58043EA
:101570001B0CC2F10E0203F00203521AD21A984059
:1015800002EBD032D01D29FA00F101F0010101EB8C
:10159000420106F59872002302EB8100E9616B615C
:1015A0002B61726822FA01F3DC0707D4012303FAE6
:1015B00001F1114371600560A8611DE002681F29F7
:1015C0001DBF4908C1F1190109FA01F1494600E0BE
:1015D00002465068C008C000484510D002F1100310
:1015E000C80F03EB8003490018680028F0D1306968
:1015F000834211D31D60AA61ED60AD600EE03169D8
:1016000090688A4228BF884206D3C5609560A8606A
:10161000EA600020A86101E000F018F8306A401E7E
:1016200008D13062D6F8C80100E080680028FCD1FB
:101630004FF0FF303062AFF30080BDE8F08700F07C
:1016400005F8F8E71842002054310020012000F08E
:1016500033B830B4002513E050F8042BD30744BF4F
:10166000A9F101039A18091F042942F8045BFAD270
:1016700013468C0744BF15809B1CC90748BF1D70CB
:1016800050F8041B0029E7D130BC704707490868AF
:1016900008B1002070470648C008C000086005492E
:1016A000C908C900091A0160704700BF60420020E4
:1016B0001F4800201868002080B5AFF30080024A60
:1016C00011001820ABBEFBE7260002002DE9F04711
:1016D0005FF0000800250026DFF89C7B3888DFF8E3
:1016E0009C1B08803888012816D002284AD004287C
:1016F00062D0082870D0102800F0F880202800F070
:101700007581402800F08082802800F09E82B0F52C
:10171000807F00F0078324E3DFF8640B00780F2854
:1017200000F02183DFF85C1B0878002825D1DFF862
:10173000582B9079012820D1D079938818188046A9
:101740004046538880B2984202D35088B8EB0008D4
:10175000DFF8383B1278D020424303EB02004246C8
:1017600092B200EB4200083006003088C00402D577
:1017700000203880F7E2022008700120DFF8101BFB
:101780000870EEE2DFF8F80A00780F2800F0EB822C
:10179000DFF8F01A0878002809D1DFF8F80A90F885
:1017A0000C2112F0FD0280F80C21032008700120AA
:1017B000DFF8DC1A0870D4E2DFF8C41A08780028D1
:1017C00002D10F20087006E0002008704FF400607E
:1017D000DFF8C41A0880C4E2DFF8A40A00780F28F2
:1017E00000F0C182DFF89C1A0878002833D1DFF8B6
:1017F000989A99F80000002873D099F806000028FC
:1018000003D0002089F806006BE0012089F8080069
:10181000DFF8781A99F80020D020424301EB02004B
:1018200001F06FF999F8000000280FD1DFF86C0A79
:1018300090F80C1111F0FD0180F80C11DFF8600A2E
:1018400090F80C1111F0FD0180F80C110020DFF868
:10185000541A088045E00878012802D10020087059
:101860003FE00878042802D10020087039E00878A9
:10187000052802D10420087033E00878032802D13B
:10188000002008702DE00878022802D1002008709E
:1018900027E00878062824D100200870DFF8E899AE
:1018A000012089F80800DFF8E41999F80020D02019
:1018B000424301EB020001F024F999F800000028EE
:1018C0000FD1DFF8D80990F80C1111F0FD0180F864
:1018D0000C11DFF8CC0990F80C1111F0FD0180F823
:1018E0000C110120DFF8A81908703AE2DFF890091E
:1018F00000780F2800F03782DFF888190878002870
:1019000033D1DFF8841948880500280080B2082800
:1019100001DB07200500887900280FD1888800287E
:1019200003D08888401E88805BE028004A8880B207
:10193000904256D24888401E888052E0C8790028DC
:1019400003D0C879401EC8714BE08888002803D0B6
:101950008888401E888044E028004A8880B29042EF
:101960003FD24888401E88803BE00878012801D19A
:10197000012000E000200A78052A01D1012200E0C0
:101980000022C0B2D2B21043002803D0012000F0E0
:10199000ECF926E00878062823D1DFF8C81B087880
:1019A000322802DA0878401C0870DFF89C0B0078B7
:1019B000012801D1012200E000220878002801D08E
:1019C000012000E00020D2B2024202D00878401E7E
:1019D0000870DFF8840B90F80C1111F0FD0180F80D
:1019E0000C110120DFF8A8180870BAE1DFF89008A0
:1019F00000780F2800F0B781DFF8889899F8000088
:101A0000002840F0AB80DFF880A89AF80600002894
:101A100003D101208AF80600F1E09AF80700BAF82D
:101A20000410081880464046BAF8021080B2884276
:101A300003D3BAF80200B8EB0008D020DFF84C1846
:101A40009AF8002042430A4443469BB202EB430209
:101A5000083216003288D20455D532881205120D8C
:101A6000DFF8E83A1B789A4213D1062089F8000083
:101A70000120DFF8E01A08700020DFF8E81A08708B
:101A8000DFF8D40A90F80C1111F0FD0180F80C1168
:101A9000B5E032881205120DDFF8B43A1B789A428D
:101AA00013D1062089F800000020DFF8A81A08707A
:101AB0000020DFF8B01A0870DFF89C0A90F80C11CB
:101AC00011F0FD0180F80C1199E032881205120D19
:101AD00000FB02F0084401F014F89AF80000002816
:101AE00040F08D80DFF8B40790F80C1111F0FD0183
:101AF00080F80C11DFF8A80790F80C1111F0FD0127
:101B000080F80C117BE0DFF8541A32881C20424325
:101B100001EB02000400A07B072803D1042089F810
:101B200000006CE0607E012814D1DFF8780700889F
:101B3000DFF82C1AB1F86010884203D1200001F0C0
:101B40001BF903E0DFF8F40B01F016F9012089F826
:101B5000000054E000208AF8060050E099F80000E8
:101B6000012801D1012000E0002099F8001005298A
:101B700001D1012100E00021C0B2C9B20843002810
:101B80000DD000F0F7FC99F80000052803D10420DF
:101B900089F8000033E0002089F800002FE099F870
:101BA000000004282BD1DFF8E016C8798A881018C5
:101BB000804640464A8880B2904202D34888B8EBBB
:101BC0000008DFF8C8260978D020414302EB010065
:101BD000414689B200EB410008300600DFF87C196D
:101BE00032881C20424301EB02000400607E012881
:101BF00005D1200001F0C0F8052089F8000001207F
:101C0000DFF88C160870ACE0DFF8740600780F2857
:101C100000F0A980DFF86C160878012801D10120B6
:101C200000E000200978052901D1012100E0002110
:101C3000C0B2C9B20843002802D0002000F034FB33
:101C40000120DFF84C1608708BE0DFF834060078CE
:101C50000F2800F08880DFF82C160878002834D18F
:101C6000DFF8241648880500280080B2082801DB28
:101C700007200500887900280ED128004A8880B204
:101C800090424AD28888401C888088884A8890423E
:101C900043D10020888040E0C8792A0092B2521EC9
:101CA000904203DAC879401CC87136E028004A889F
:101CB00080B2904231D28888401C888088884A88C7
:101CC00090422AD10020888027E00878012801D19D
:101CD000012000E000200A78052A01D1012200E05D
:101CE0000022C0B2D2B21043002803D0002000F07E
:101CF0003CF812E0087806280FD1DFF86818087859
:101D0000002802D00878401E0870DFF84C0890F8D0
:101D10000C1111F0FD0180F80C110120DFF8701595
:101D200008701EE0DFF8580500780F281BD0DFF898
:101D300054150878012801D1012000E0002009781D
:101D4000052901D1012100E00021C0B2C9B2084338
:101D5000002802D0012000F0A7FA0120DFF830159A
:101D6000087000203880BDE8F0872DE9F14F83B07E
:101D7000DFF888CA9CF80A108DF805109CF80B0053
:101D800010F00F0000210022002300250295DCF84E
:101D9000204000268DF804600025002600279DF8CD
:101DA00005E0BEF1000F1ED19CF81880DCF810E0B1
:101DB0001EEA0808DCF810E01EEB0808DCF810E06A
:101DC0001EEA08089CF818E0DCF81090D9F1FF0929
:101DD00019EA0E0E8CF818E09CF818E018EB0E08C3
:101DE0008CF8188045E29DF80CE0BEF1010F40F040
:101DF0004E819DF805E0BEF1010F2DD0BEF1020F1E
:101E000000F0A680BEF1030F26D0BEF1040F00F053
:101E10009F80BEF1050F1FD0BEF1060F00F0988025
:101E2000BEF1070F00F00981BEF1080F14D0BEF11A
:101E3000090F45D0BEF10A0F42D0BEF10B0F0BD0F7
:101E4000BEF10C0F00F0C180BEF10D0F00F0168145
:101E5000BEF10F0F40F00D82DCF818E071468646A7
:101E60005FFA8EFEBEF1010F0BD111EB040EBEF531
:101E7000807F24D2DCF818E014EB0E0ECCF818E0CA
:101E80001DE086465FFA8EFEBEF1020F0BD111EB0C
:101E9000040EBEF5803F12D2DCF818E014EB0E0EF3
:101EA000CCF818E00BE086465FFA8EFEBEF1040F18
:101EB00005D1DCF818E014EB0E0ECCF818E0D8E1F0
:101EC000DCF818E0714686465FFA8EFEBEF1010F1F
:101ED00016D1A0465FFA88F87FEA08088DF80480DA
:101EE0009DF804E051FA8EFEBEF5807F2FD2DCF81B
:101EF00018E09DF804805EFA88FECCF818E026E031
:101F000086465FFA8EFEBEF1020F11D1A6461FFA79
:101F10008EFE7FEA0E0E754611FA85FEBEF5803FF5
:101F200015D2DCF818E01EFA85FECCF818E00EE0B9
:101F300086465FFA8EFEBEF1040F08D17FEA040EDA
:101F40007646DCF818E016EB0E0ECCF818E090E1BF
:101F500086465FFA8EFEBEF1010F0FD19CF918E0A4
:101F6000724696464FFA8EFE4EFA84FEBEF1800F00
:101F70002ADA44FA82FECCF818E025E086465FFAB9
:101F80008EFEBEF1020F0FD1DCF818E073469E46BC
:101F90000FFA8EFE0EFA84FEBEF5004F14DA04FA34
:101FA00083FECCF818E00FE086465FFA8EFEBEF1A5
:101FB000040F09D1DCF81880CDF80880DDF808E0BE
:101FC00014EB0E0ECCF818E053E15FF0000EF04673
:101FD0005FFA88F8B8F10A0F2EDA5FF05008DFF8E0
:101FE0002098DCF818A0CDF800A0DCF810A008FBC1
:101FF0000AFA09EB0A0BF2465FFA8AFA5BF83AA092
:10200000DDF800B0D34514D1F2465FFA8AFABAF18E
:10201000090F0DDA1EF1010EDCF810A008FB0AF81A
:10202000C844F1465FFA89F958F83980CCF818802D
:1020300002E01EF1010ECAE71BE1DCF824E077465E
:10204000DCF820E07446BE465FFA8EFEE6449EF859
:1020500018E0714614EB010EBEF5807F0DD2BE462E
:102060005FFA8EFEE6449EF818E014EB0E0EB846BA
:102070005FFA88F8C4448CF818E0FAE09CED060A90
:10208000DCED080A30EE200A8CED060AF1E09DF83E
:1020900005E0BEF1010F29D0BEF1020F41D0BEF123
:1020A000030F23D0BEF1040F3BD0BEF1050F1DD0AE
:1020B000BEF1060F35D0BEF1070F00F0B480BEF1BF
:1020C000080F13D0BEF1090F1CD0BEF10A0F19D0B2
:1020D000BEF10B0F0AD0BEF10C0F6CD0BEF10D0F8C
:1020E00000F0BF80BEF10F0F40F0C380DCF818E0B5
:1020F0007146A14205D3DCF818E0BEEB040ECCF823
:1021000018E0B6E0DCF818E071467FEA040E764687
:10211000B14205D3DCF818E0BEEB060ECCF818E0AF
:10212000A7E086465FFA8EFEBEF1010F15D19CF93D
:1021300018E0724690464FFA88F8A6464FFA8EFE8F
:10214000B8EB0E0818F1800F34DB96464FFA8EFE7E
:10215000BEEB040ECCF818E02CE086465FFA8EFE4B
:10216000BEF1020F15D1DCF818E0734698460FFA5D
:1021700088F8A6460FFA8EFEB8EB0E0818F5004F49
:1021800018DB9E460FFA8EFEBEEB040ECCF818E06C
:1021900010E086465FFA8EFEBEF1040F0AD1DCF82D
:1021A0001880CDF808809E460FFA8EFEBEEB040E16
:1021B000CCF818E05DE05FF0000EF0465FFA88F8BA
:1021C000B8F10A0F2EDA5FF05008DFF83496DCF829
:1021D00018A0CDF800A0DCF810A008FB0AFA09EB63
:1021E0000A0BF2465FFA8AFA5BF83AA0DDF800B013
:1021F000D34514D1F2465FFA8AFABAF1000F0DD036
:10220000BEF1010EDCF810A008FB0AF8C844F14644
:102210005FFA89F958F83980CCF8188002E01EF18D
:10222000010ECAE725E0DCF824E07746DCF820E080
:102230007446BE465FFA8EFEE6449EF818E071468C
:10224000A1420DD3BE465FFA8EFEE6449EF818E02A
:10225000BEEB040EB8465FFA88F8C4448CF818E068
:1022600007E09CED060ADCED080A30EE600A8CED12
:10227000060ABDE8FF8F0000684200206C42002083
:10228000774200207D4200203C4200206800002070
:102290007E420020D03700201A040240B0350020D2
:1022A000C03600206A4200202DE9F0412DED028B5E
:1022B0000400DFF8487597F80A80FD7A15F00F05DD
:1022C0009FEDA98A00262000C0B2012840F0DD80E1
:1022D0004046C0B201281DD0022878D0032819D06A
:1022E000042874D0052815D0062870D0072800F0DF
:1022F0009D8008280ED0092839D00A2837D00B280D
:1023000008D00C2800F091800D2800F09A800F284A
:1023100040F016812800C0B2012809D10A20396A8C
:102320004143FF2922D2396A00FB01F038621DE0E7
:102330002800C0B202280BD10A20396A41434FF667
:10234000FF72914212D2396A00FB01F038620DE04F
:102350002800C0B2042809D10A20396A414311F18A
:10236000010F03D0396A00FB01F03862E8E0386AF7
:10237000C04306002800C0B2012809D10A2000FB92
:1023800006F1FF2922D200FB06F0C04338621DE0AF
:102390002800C0B202280BD10A2000FB06F14FF63C
:1023A000FF72914212D200FB06F0C04338620DE08A
:1023B0002800C0B2042809D10A2000FB06F111F15F
:1023C000010F03D000FB06F0C0433862B8E02800DC
:1023D000C0B2012809D10A20396A41437F2923D29A
:1023E000396A00FB01F038621EE02800C0B2022802
:1023F0000BD10A20396A414347F6FF72914213D24A
:10240000396A00FB01F038620EE02800C0B20428EF
:102410000AD10A20396A41437FF00042914203D237
:10242000396A00FB01F038628AE089E0386A642882
:1024300002D10120386203E0396A0A20414339623F
:102440007EE0B88AD0F1050001F05CF841EC110B98
:102450009FED460B01F06FF851EC100B01F074F892
:1024600008EE100A97ED080AB4EE480AF1EE10FAE9
:102470000AD5386A01F09CF80022DFF8883301F0B1
:10248000BBF801F061F838625AE04046C0B2401E25
:1024900005280CD9801F1ED0401E08D0401E0128E0
:1024A0000ED9801E03D0801E1FD0801E48D1386AEE
:1024B000022804D3386A0A21B0FBF1F038623FE009
:1024C000386AC0430600022E04D30A20B6FBF0F09F
:1024D000C043386234E0786A032802D10020786271
:1024E00002E0786A401C78622AE0B88A01F056F966
:1024F00041EC110B9FED1D0B01F01DF851EC100B81
:1025000001F022F800EE100AF7EE000A80EE800AD1
:10251000F868D0ED000A80EE200AB0EE408A97ED10
:10252000080AB4EE408AF1EE10FA09D5386A01F0D3
:102530003FF80022B34B01F03FF901F005F8386293
:10254000BDEC028BBDE8F081784200207F42002084
:102550008042002088420020003B0020B40C002074
:1025600000000A0881420020000000000000000076
:10257000000024402DE9F041A04CE57A15F00F054C
:1025800027893E05360D380080B210F47040B0F552
:10259000805F02D100F0D4F8CEE0380080B2D228BB
:1025A00000F0CA8038004AF6AA2180B2884218D1C9
:1025B000DFF85482B8F8000042F2CE7188420CD1A4
:1025C0000020A061A069A8F8000041F25C00208111
:1025D00040F20F20608100F0B3F8A069A8F8000075
:1025E000AAE0380080B210F47040B0F5704F06D108
:1025F00020208649887001208549087010E0380045
:1026000080B210F47040B0F5604F06D1C0207F4911
:10261000887001207F49087002E000207B498870A3
:102620007A49CE70C878C0B24008C8702800C0B2DD
:10263000002801D1012000E000202A00D2B2012AA6
:1026400001D1012200E00022C0B2D2B21043002822
:1026500051D0F80727D5207EC871380080B210F419
:102660007040B0F5704F07D16B48320092B2104401
:1026700010F8010C08723AE0380080B210F4704093
:10268000B0F5604F07D16548320092B2104410F89F
:10269000010C08722BE06248320092B2104410F82C
:1026A000010C087223E0380080B210F47040B0F5DD
:1026B000704F06D15848320092B210444078C87129
:1026C00013E0380080B210F47040B0F5604F06D1CE
:1026D0005248320092B210444078C87105E0504828
:1026E000320092B210444078C871207E08720220F5
:1026F0004C4A10701AE02800C0B2022807D1607E50
:10270000C871207E08720220464A10700EE0280030
:10271000C0B204280AD1607EC871207E0872E07EB3
:102720004872A07E887204203E4A107091F80C0115
:1027300010F0FD0081F80C01BDE8F081980C00203C
:102740002DE9F0412D4F3C892405240DFE7A16F029
:102750000F06354D280001F0F1F93000C0B2012814
:1027600005D1387E3149220092B2885426E03000EB
:10277000C0B202280AD12D48397E220092B281547B
:10278000797E220092B21044417017E03000C0B24E
:10279000042813D12548397E220092B28154797ED3
:1027A000220092B202445170B97E220092B20244D9
:1027B0009170F97E220092B21044C1701B4F4FF409
:1027C0008071380001F038FA72B6DFF864803900A1
:1027D000404601F015F94FF48071404601F00AFAC5
:1027E000002804D13900280001F00AF903E029008B
:1027F000404601F005F962B6BDE8F081D8410020FD
:1028000094220020000024406A420020E03800208A
:102810005029002051290020442600204427002070
:10282000442500208442002000000A08284000209F
:1028300000000C0810B50400DFF8480C00780028F0
:1028400009D0022818D014D304281BD017D3062887
:102850001BD00ED320E0DFF8300C0078012803D124
:10286000092000F075F903E02000C0B200F070F913
:1028700012E000F0E3FA0FE000F0BEFC0CE000F024
:1028800063FC09E000F00CFD06E0DFF8041CDFF853
:10289000040C007800F07FFD10BD3CB40300DFF8AD
:1028A000F84B1800C0B20028012805D9801E3CD082
:1028B000801E00F0918021E1080080B210F4704089
:1028C000B0F5704F09D1DFF8D40B0D00ADB22D0576
:1028D0002D0D405D8DF8000026E0080080B210F458
:1028E0007040B0F5604F09D1DFF8B40B0D00ADB208
:1028F0002D052D0D405D8DF8000015E0080080B21B
:1029000010F47040B0F5805F07D1080080B2000578
:10291000000D205C8DF8000006E0DFF8880B0D004C
:10292000ADB2405D8DF80000E8E0080080B210F420
:102930007040B0F5704F11D1DFF8600B0D00ADB2F3
:102940002D052D0D455D8DF800500D00ADB22D0506
:102950002D0D284440788DF801003CE0080080B23D
:1029600010F47040B0F5604F11D1DFF8340B0D005A
:10297000ADB22D052D0D455D8DF800500D00ADB2A9
:102980002D052D0D284440788DF8010023E0080026
:1029900080B210F47040B0F5805F0FD1080080B2B3
:1029A0000005000D205C8DF80000080080B20005D5
:1029B000000D204440788DF801000CE0DFF8E40AB7
:1029C0000D00ADB2455D8DF800500D00ADB228444C
:1029D00040788DF8010091E0080080B210F470405A
:1029E000B0F5704F21D1DFF8B40A0D00ADB22D055E
:1029F0002D0D455D8DF800500D00ADB22D052D0D4E
:102A000005446D788DF801500D00ADB22D052D0DEA
:102A10000544AD788DF802500D00ADB22D052D0D99
:102A20002844C0788DF8030068E0080080B210F4F4
:102A30007040B0F5604F21D1DFF8640A0D00ADB2EF
:102A40002D052D0D455D8DF800500D00ADB22D0505
:102A50002D0D05446D788DF801500D00ADB22D059A
:102A60002D0D0544AD788DF802500D00ADB22D0549
:102A70002D0D2844C0788DF803003FE0080080B297
:102A800010F47040B0F5805F1FD1080080B20005DF
:102A9000000D205C8DF80000080080B20005000DDC
:102AA000204440788DF80100080080B20005000D38
:102AB000204480788DF80200080080B20005000DE7
:102AC0002044C0788DF8030018E0DFF8D8090D0025
:102AD000ADB2455D8DF800500D00ADB205446D7886
:102AE0008DF801500D00ADB20544AD788DF802505F
:102AF0000D00ADB22844C0788DF80300009836BCB4
:102B0000704710B4DFF88029117A002904D0517879
:102B100011700021517003E011785170C18811705B
:102B2000002191710021D171DFF87C391478D02116
:102B30004C4303EB040189885180002191800021DE
:102B400011721178002901D10121917110BC7047D7
:102B50002DE9F84F96B00400DFF82C59DFF848193A
:102B60002A78D020424301EB02008088002800F040
:102B700000810026DFF830192A78D020424301EB8B
:102B80000200083003905FF0000A00272000C0B266
:102B9000092805D107208DF808000820060008E064
:102BA0002000C0B20C2804D105208DF808000B20AD
:102BB000060068889DF8081089B2884202D26888A9
:102BC0008DF808005FF0000948469DF80810C0B273
:102BD000884280F0AC80A88819EB0000070038001C
:102BE000C0B2698880B2884201D368883F1A0398CE
:102BF0003900C9B200EB41008246BAF80000C004B7
:102C000019D5DFF8A418BAF800201205120DD0204B
:102C100042438A5887A106A801F020F806A801902F
:102C20002000C0B2009000237F223100C9B20120F1
:102C300001F04CF877E0DFF87418BAF800201C2097
:102C4000424301EB0200804698F80E000F2826D17F
:102C50000FF2E01BDFF85828594606A800F0FEFFE7
:102C600006A801902000C0B2009000235722310036
:102C7000C9B2012001F02AF8DFF83828594606A821
:102C800000F0ECFF06A801902000C0B200900023E5
:102C90007F223100C9B25C2001F018F843E0D8F877
:102CA0000830D8F80020DFF8101806A800F0D6FF8A
:102CB00006A801902000C0B20090002357223100E6
:102CC000C9B2012001F002F800200490D8F81420C5
:102CD00092B2B8F80C1098F80F0010F00F00FFF740
:102CE000DCFD049098F80E0007281CD006A801907F
:102CF000D8F814000090B8F80E30D8F8100090ED15
:102D0000000A98F81820DDE9040101F058FB06A834
:102D100001902000C0B2009000237F223100C9B290
:102D20005C2000F0D3FFA61919F101094CE7A8793E
:102D300000281ED02000C0B209280BD109237F2211
:102D4000E9792000C0B241430831C9B2002001F046
:102D5000B0F90EE02000C0B20C280AD10C237F226B
:102D6000E9792000C0B241430B31C9B2002001F023
:102D7000A0F917B0BDE8F08F38B52DED028B040037
:102D80009FED2D8ADFF8345720682860A0686860BE
:102D9000A0892881E08968812069E86060692861EC
:102DA000207EA88228894AF6AA21884204D1DFF829
:102DB00010070088A86108E02A6992B22989E87A98
:102DC00010F00F00FFF769FDA861012028620020C4
:102DD0006862A87A0D281CD1A88A00F0DFFC41ECBB
:102DE000110B9FEDD70B00F0A6FB51EC100B00F080
:102DF000ABFB00EE100AF7EE000A80EE800AE868EE
:102E0000D0ED000A80EE200AB0EE408A85ED088AF7
:102E10000CE0A87A092803D17FF00100286205E0C0
:102E2000A87A0A2802D17FF001002862BDEC028B4B
:102E300031BD000025730000000000002DE9F843BB
:102E4000B4B00927DFF87C26BCA11BA800F006FF60
:102E50001BA801903800C0B2009000237F220821F7
:102E6000282000F033FF3B00DBB27F220821002046
:102E700001F01FF9DFF80C060078052840F0A48067
:102E8000DFF83886D8F80020DFF83C161BA800F0E1
:102E9000E5FE1BA801903800C0B2009000237F22FD
:102EA00017F10A01C9B2012000F010FF02A8019039
:102EB000D8F810000090B8F80A30D8F80C0090ED5F
:102EC000000AB8F81420D2B2D8E9060101F077FA66
:102ED00002AAC8A11BA800F0C1FE1BA801903800DF
:102EE000C0B2009000237F22F9190A31C9B2012033
:102EF00000F0ECFED8F8240004000120060002A82F
:102F00000190D8F8100000903300D8F80C0090ED34
:102F1000000AB8F81420D2B22000290001F04FFABC
:102F2000DFF8A89502ABDFF8A82549461BA800F0FA
:102F300095FE1BA801903800C0B2009000237F22AC
:102F400017F12801C9B2012000F0C0FED8F8200016
:102F5000040098F80A00042810D102A8019000206B
:102F600000903300D8F80C0090ED000AB8F8142057
:102F7000D2B22000290001F022FA10E002A801904C
:102F8000D8F8100000903300D8F80C0090ED000A3B
:102F9000B8F81420D2B22000290001F010FA02ABD8
:102FA000DFF8302549461BA800F058FE1BA8019009
:102FB0003800C0B2009000237F2217F13201C9B25D
:102FC000012000F083FEB6E0DFF8F08402A8019053
:102FD000D8F810000090B8F80A30D8F80C0090ED3E
:102FE000000AB8F81420D2B2D8E9060101F0E7F9D6
:102FF00098F80A000F2815D102ABD8F80020DFF8A6
:10300000D8141BA800F02AFE1BA801903800C0B2FB
:10301000009000237F2217F11401C9B2012000F0B3
:1030200055FE17E002A80090D8F80430D8F8002028
:10303000DFF8A8141BA800F011FE1BA801903800AF
:10304000C0B2009000237F2217F11401C9B2012001
:1030500000F03CFE98F80A00002815D18EA3DFF896
:103060007424DFF868141BA800F0F8FD1BA8019079
:103070003800C0B2009000237F2217F12801C9B2A6
:10308000012000F023FE56E098F80A000C2815D124
:1030900082A3DFF84024DFF834141BA800F0DEFD23
:1030A0001BA801903800C0B2009000237F2217F1C6
:1030B0002801C9B2012000F009FE3CE098F80A009E
:1030C000042811D102A8019000200090B8F80A301D
:1030D000D8F80C0090ED000AB8F81420D2B2D8E964
:1030E000080101F06CF911E002A80190D8F8100075
:1030F0000090B8F80A30D8F80C0090ED000AB8F843
:103100001420D2B2D8E9080101F059F902ABDFF876
:10311000C423DFF8B8131BA800F0A0FD1BA8019082
:103120003800C0B2009000237F2217F12801C9B2F5
:10313000012000F0CBFD35B0BDE8F0832573200001
:10314000000000000000244070B5C2B0092408252A
:1031500028A6DFF88C23310002A800F07FFD02A82A
:1031600001902000C0B2009000237F222900C9B244
:10317000012000F0ABFD6519DFF86823310002A8DB
:1031800000F06CFD02A801902000C0B20090002366
:103190007F222900C9B2012000F098FD6519DFF8EF
:1031A0004823310002A800F059FD02A80190200038
:1031B000C0B2009001237F222900C9B2012000F093
:1031C00085FD2600F6B2062046430836DFF81C23AC
:1031D000AAA102A800F042FD02A801902000C0B2FE
:1031E000009000237F223100C9B2012000F06EFD63
:1031F00042B070BD257300002DE9F041A8B0A2498E
:10320000C8798A881418002520004A8880B2904224
:1032100001D34888241AA44A0978D020414302EBFC
:103220000100210089B200EB410010F108069F491E
:1032300032881C20424301EB02075FF00908AC4AC8
:103240008FA102A800F00AFD02A801904046C0B27A
:10325000009000237F220821282000F037FD4346FC
:10326000DBB27F220821002000F023FF7B683A6850
:10327000A04902A800F0F2FC02A801904046C0B2AA
:10328000009001237F2218F10A01C9B2012000F049
:103290001DFD28B0BDE8F081EDE5F2003100000031
:1032A0002DE9F84FCEB07849C8798A8814180025DE
:1032B00020004A8880B2904201D34888241A7A4A72
:1032C0000978D020414302EB0100210089B200EBD4
:1032D000410010F10806754932881C20424301EB79
:1032E00002075FF00908844A65A128A800F0B6FC2F
:1032F00028A801904046C0B2009000237F220821F8
:10330000282000F0E3FC4346DBB27F2208210020A6
:1033100000F0CFFE7A6992B2B989F87B10F00F0005
:10332000FFF7BBFA82460FF264193A68494628A8AB
:1033300000F094FC28A801904046C0B20090002301
:103340007F2218F10A01C9B2012000F0BFFC02A8D7
:10335000019078690090FB89386990ED000A574820
:10336000828AD2B25046594601F029F802AA49464B
:1033700028A800F073FC28A801904046C0B2009035
:1033800000237F2218F11401C9B2012000F09EFC35
:103390004FB0BDE8F08F2DE9F84FA2B004000D004A
:1033A000002602A85549802201F01AFA00275FF092
:1033B000000800205FF000095FF0080A2100C9B290
:1033C000012902D13F210E0005E02100C9B20029E8
:1033D00001D17F210E005FF0000B58463100C0B2D2
:1033E000C9B2884246D25846C0B2285C3B2801D1B7
:1033F000012000E000205946C9B2695C212901D1B1
:10340000012100E00021C0B2C9B20843002829D040
:10341000D846B94648464146C0B2C9B288420CD2E5
:103420004846C0B2295C02AA4B46DBB23800C0B2A3
:103430001B1AD15419F10109ECE702A801900920E7
:10344000009000237F225146C9B2012000F03EFCCB
:103450002B4A0EA102A800F001FC18F101000700A0
:103460001AF1090A5846C0B2285C212802D01BF183
:10347000010BB2E723B0BDE8F08F000020257300F8
:10348000257320007D4200203C420020257300006F
:10349000442800208842002000000A08442600201A
:1034A000442700204425002068000020B40C0020A0
:1034B00050DD000804E400080CE40008D8410020B6
:1034C0006A420020B0E1000814E400081CE400088F
:1034D00024E400082CE4000834E40008BCE10008FF
:1034E000DCDA000860DD0008283F002070DD0008FD
:1034F0003CE4000844E40008C8E100088CBC000873
:10350000048E0008C11768B14840401AB0FA80F232
:103510009040D21CC907C2F5846241EA025202EB14
:10352000D021400570470268531C0360117070473A
:1035300041EC100B01BD80B553EC112B51EC100B7D
:1035400001F092F9F4E7200001F000428B1AA3F198
:103550006051B1F5801F0ADBB1F17F6F1FD242EAE3
:10356000C102C10071F1004142EB507070470B1570
:10357000C3F10903212B10D2890241EA9051800244
:103580000128494141F0004121FA03F0C3F1200331
:10359000994071F1004150417047100070476FF041
:1035A000000013EB103F5CBF000E42EAC0507047B2
:1035B000C0F3C75181B1FF2906D0C110400721F0E7
:1035C000E04101F16051704741020CBF40F4E0015D
:1035D0006FF000410020704700F0004100020AD067
:1035E000B0FA80FC00FA0CF001F16051A1EB0C5133
:1035F00001EBD02140057047B0B581EA030C0CF017
:10360000004C40F2FF7515EA11541DBF15EA13571F
:10361000AC42AF4239E0E41923EA455343F4801346
:10362000C90241F0004141EA505EC7021100A7FB08
:10363000020200284FF00000EEFB01204FF00001D5
:10364000E3FB072118BF42F0010240180021494165
:10365000E3FB0E01A4F580640F0302D25200404147
:10366000494154F101046CDD470872F1004250F108
:10367000000051EB0451A1F580115CBF41EA0C013F
:10368000B0BD4CEA05510020B0BD05EA1357AC426D
:1036900014BFAF4241E050EA410E1CBF52EA430E54
:1036A00002E061460020B0BD24423C441BD15FEAE9
:1036B000070EF6D0090302BF01460020AEF1140E3A
:1036C000B1FA81F7AEEB070401FA07FE0C37C7F138
:1036D000200100FA07F7C8404EEA000E23EA4553DE
:1036E00043F48013A2E733F00043B3FA83F704BF37
:1036F000B2FA82FE77440B3FE41BB7F1200E2FBFD6
:1037000002FA0EF3BB40C7F1200E22FA0EFE38BFBC
:1037100043EA0E03BA40641C82E750EA410E14BF2C
:1037200052EA430E6FF000014FF4001717EB430FFE
:103730008ABF194617EB410FB5E74CEA0551002047
:10374000B0BDD4F10104B4F120070FDAC4F12007B1
:10375000520828BF42F0010210FA07F501FA07F7F4
:10376000E1BF2A43E0403843E1400FE0352C98DCCC
:10377000C7F1200452EA400220FA07F218BF42F0D3
:10378000010231FA07F0A1400A43002172F1004220
:1037900050F1000051EB0C01B0BD2500014648B1CD
:1037A000B0FA80F18840C91CC1F58461090501EBBC
:1037B000D021400570474100F0B540F2FF7581EA25
:1037C000030C0CF0004C15EA11541DBF15EA1357F9
:1037D000AC42AF42E5E0BC41C1F31301C3F31303B4
:1037E000801A994143F4801304D2641E4000494179
:1037F00080185941C90241EA5051B1FBF3F603FB6D
:103800001611A2FB0675D7EBC020A94102D2761E85
:1038100080185941C90241EA5051B1FBF3FE03FB44
:103820001E11A2FB0E75D7EBC020A94103D2AEF149
:10383000010E80185941890241EA9051760546EA05
:103840008E2EB1FBF3F603FB1611A2FB0675D7EB28
:103850008020A94102D2761E80185941C90241EA4E
:1038600050514EEA060EB1FBF3F603FB1611A2FB14
:103870000675D7EBC020A94102D2761E80185941A7
:10388000C90241EA5051B1FBF3F703FB1711A2FB48
:103890000735D3EBC020A94167F100070CBF0042F8
:1038A00047F0010766F3D5274FEA1E31B80814F533
:1038B000806412DDBD0775F1004250EB0E5051EBF4
:1038C000045111F5801F5CBF41EA0C01F0BD4CF0C2
:1038D0007F6141F0E0410020F0BDBD076D0840EA86
:1038E0000E5041F48011D4F10104B4F120060ADA3B
:1038F000C4F120060200E04001FA06F3E14018435B
:10390000B24015430EE0342C13DCC6F1200445EA26
:1039100040056D0820FA06F2154321FA06F0A14091
:103920000D43002175F1004250F1000051EB0C01F4
:10393000F0BD00205FEA0C01F0BDCFB992185B41E9
:10394000B3FA83F704BFB2FA82F6BF190B3FB7F19F
:1039500020062FBF02FA06F3BB40C7F1200622FA69
:1039600006F638BF3343BA401CB1E419641E33E78E
:103970007F4231F00041B1FA81F404BFB0FA80F621
:10398000A4190B3CB4F120062FBF00FA06F1A140A8
:10399000C4F1200620FA06F638BF3143A0403C1B94
:1039A0001AE7AC421ABF05EA1357AF4212E050EAD9
:1039B00041061CBF52EA4306BFE750EA41073046C2
:1039C00061461CBF41EA0551F0BD52EA430C08BFF5
:1039D000C143F0BD00204FF4001616EB410F98BF15
:1039E00016EB430F08BF16EB410F24BFC14305E0A0
:1039F00016EB430F0CBF61464CEA0551F0BD730056
:103A0000F8B505000E0040246C4F387810F0010026
:103A1000002840F0928072B601F088FA684801F000
:103A200005FB2800B0F1006F21D06649884225D0FF
:103A30006549884229D0654988422DD06449884229
:103A400031D06449884235D06349884239D06349CE
:103A500088423DD06249884241D06249884245D07F
:103A60006149884249D0614988424DD052E00221E3
:103A7000002001F070FA8DF800004BE002210820D0
:103A800001F069FA8DF8000044E00221102001F0F5
:103A900062FA8DF800003DE00221182001F05BFA87
:103AA0008DF8000036E00221202001F054FA8DF854
:103AB00000002FE00221282001F04DFA8DF80000CF
:103AC00028E00221302001F046FA8DF8000021E0C4
:103AD0000221382001F03FFA8DF800001AE002219F
:103AE000402001F038FA8DF8000013E00221482050
:103AF00001F031FA8DF800000CE00221502001F0B5
:103B00002AFA8DF8000005E00221582001F023FA7E
:103B10008DF80000002C09D03168280001F063FA0C
:103B20008DF800002D1D361D641EF3E701F00CFA20
:103B300062B6387850F002003870F1BD2C4A40214E
:103B4000002905D003681360001D121D491EF7E708
:103B50007047F8B504000D00184E3078C0F38000AF
:103B6000C0B2002828D1224F39002800FFF748FFB3
:103B70004FF48071280000F03DF8002818D139007A
:103B80002000FFF73DFF307810F0F70030704FF461
:103B90008071200000F02EF8002804D1307810F059
:103BA000FB00307008E0307850F00400307003E023
:103BB000307850F008003070F1BD000089420020DC
:103BC000F3000100004000080080000800C0000869
:103BD00000000108000002080000040800000608B8
:103BE0000000080800000A0800000C0800000E0889
:103BF0002840002070B40300FF2004000A00511E7A
:103C0000002A0DD02600F6B21A78564035005B1C0B
:103C1000074A525D42401400064A525D1000EDE72B
:103C2000E4B2C0B250EA042080B270BC7047000019
:103C30008CBA00088CBB000838B504000D00A91E22
:103C40002000FFF7D7FF0100090A04EB050202F884
:103C5000021C04EB050101F8010C31BD0CB430B5B8
:103C600083B00A4606A902910446002501940095F6
:103C700002AB01A9084878441E3001F013FA019AFA
:103C8000157000284EBF04460198041B204603B05F
:103C900030BC5DF80CFB00BF8FF8FFFFDFF850066B
:103CA000704710B4002008280EDA0021802909DAB4
:103CB0000022DFF83C36802404FB00F423445A54ED
:103CC000491CF3E7401CEEE710BC70472DE9FD4F9F
:103CD00084B08C4611985FF0000E00215FF0000860
:103CE00000220023202400268DF8086000250027EC
:103CF0008DF80570BDF81460BDF81070BE4203D396
:103D00006646F6B2402E00DBD0E1E1465FFA89F963
:103D1000082799FBF7F607FB1696BDF810709DF87B
:103D20004090B9F1090F09D15FF000088DF80480C7
:103D3000DFF8C0E5DFF8C085C8F800E09DF840E096
:103D4000BEF10C0F09D15FF003088DF80480DFF895
:103D5000ACE5DFF8A485C8F800E090F800E0BEF11B
:103D6000000F00F0A381DFF890E5DEF80080D8F8BE
:103D7000009090F800A0A0465FFA88F8BAEB080A15
:103D800019F82A804246DEF80080D8F8009090F8B2
:103D900000A0A0465FFA88F8BAEB080A09EB8A0887
:103DA000B8F80280414688461FFA88F8B8F1000F3B
:103DB0000AD15FF001098DF80590B9468DF8089099
:103DC00010F10108454603E05FF000098DF8059009
:103DD000BDF8148091465FFA89F919FA87F9C84548
:103DE00049DA9DF81880B8F1010F43D19DF805809C
:103DF000B8F1000F03D1B9468DF8089005009DF881
:103E0000408018EB0C0CBDF810804746E0465FFA86
:103E100088F85FF0080998FBF9FA09FB1A8846460A
:103E20002800DEF80080D8F8009090F800A0A046A6
:103E30005FFA88F8BAEB080A19F82A804246DEF8D9
:103E40000080D8F8009090F800A0A0465FFA88F8AB
:103E5000BAEB080A09EB8A08B8F802804146E04646
:103E60005FFA88F85FF0080998FBF9F8B8F1090FD4
:103E700001D11BE11AE15FF00008434698465FFA62
:103E800088F891465FFA89F919F10109C84580F26D
:103E90000B81984691465FFA88F85FFA89F9C84520
:103EA00008D15FF000098DF806905FF000098DF8E9
:103EB00007901EE0DEF80080D8F8048099465FFA8B
:103EC00089F95FEA490919FA81F918F809908DF81A
:103ED0000690DEF80080D8F8048099465FFA89F9E8
:103EE0005FEA490919FA81F9C84498F801908DF8F8
:103EF00007909DF806908DF80C909DF807908DF82E
:103F00000D90DDF80C9019FA06F99DF8048039FA45
:103F100008F9CDF80C90E0465FFA88F85FF00809E0
:103F200098FBF9F8B8F1000F2DD1DFF8C483E14612
:103F30005FFA89F95FF0080A99FBFAFA5FF08009E5
:103F400009FB0AFA08EB0A09BA461FFA8AFACDF801
:103F500000A0E3465FFA8BFB5FF0080A9BFBFAFBCD
:103F60005FF0800A0AFB0BFAD044BA461FFA8AFABD
:103F700018F80A809DF80DA05AEA0808DDF800A09C
:103F800009F80A808DE0E0465FFA88F85FF00809DA
:103F900098FBF9F8B8F1080F2CD1DFF85493E046FC
:103FA0005FFA88F85FF0080A98FBFAFA5FF0800879
:103FB00008FB0AFA09EB0A08BA461FFA8AFAC24451
:103FC000E0465FFA88F85FF0080B98FBFBFB5FF0B8
:103FD000800808FB0BFB09EB0B08B9461FFA89F9AF
:103FE000C84418F8809C9DF80C8058EA09090AF822
:103FF000809C56E0DFF8F882E1465FFA89F95FF0CD
:10400000080A99FBFAFA5FF0800909FB0AFA08EB43
:104010000A09BA461FFA8AFACA44E1465FFA89F9E0
:104020005FF0080B99FBFBFB5FF0800909FB0BFBC2
:1040300008EB0B09BB461FFA8BFBD94419F880BC6F
:104040009DF80C9059EA0B0B0AF880BCE1465FFA28
:1040500089F95FF0080A99FBFAFA5FF0800909FB19
:104060000AFA08EB0A09BA461FFA8AFACDF800A044
:10407000E3465FFA8BFB5FF0080A9BFBFAFB5FF0FD
:10408000800A0AFB0BFAD044BA461FFA8AFA18F8DB
:104090000A809DF80DA05AEA0808DDF800A009F88A
:1040A0000A807F1C5B1CE9E6401C56E607B0BDE8B1
:1040B000F08F2DE9F04304005FF0000C10002600A3
:1040C00080B2B6B2B04203D30800C0B2402800DBD1
:1040D000D2E01800C0B2092806D100200500DFF8A0
:1040E0001402DFF8146230601800C0B20C2806D148
:1040F00003200500DFF80402DFF8FC6130600F00E8
:10410000FFB2082097FBF0F600FB1676200080B285
:104110001700BFB27F1CB84280F2AE800800C0B268
:10412000082790FBF7F0002822D1DFF8C4710800BF
:10413000C0B25FF0080C90FBFCFC802000FB0CFC84
:10414000BC44A6461FFA8EFE0800C0B25FF0080805
:1041500090FBF8F8802000FB08F807EB0800270028
:10416000BFB2C05DFF27B74078400CF80E0081E079
:104170000800C0B2082790FBF7F008282BD1DFF821
:1041800070710800C0B25FF0080C90FBFCFC80204E
:1041900000FB0CFC07EB0C00A4461FFA8CFC8444CB
:1041A0000800C0B25FF0080E90FBFEFE802000FB0E
:1041B0000EFE07EB0E002700BFB2384410F8800C4B
:1041C000FF27D6F1070EBEEB050E57FA0EF7784023
:1041D0000CF8800C4EE0FF27DFF814C10800C0B2D5
:1041E0005FF0080E90FBFEFE802000FB0EFE0CEB45
:1041F0000E00A6461FFA8EFE86440800C0B25FF08D
:10420000080890FBF8F8802000FB08F80CEB080089
:10421000A0461FFA88F8404410F8800CB6EB050859
:1042200017FA08F898EA00000EF8800C0800C0B2EF
:104230005FF0080E90FBFEFE802000FB0EFEE644C1
:10424000A0461FFA88F80800C0B25FF0080990FB8A
:10425000F9F9802000FB09F90CEB0900A4461FFACC
:104260008CFC10F80C00D6F1070C57FA0CF74740FD
:104270000EF80870641C49E7BDE8F0832DE9F047AB
:1042800004000D001A4E1E4F4FF4807239003000AA
:1042900001F0DBFE2000C0B2002826D05FF0080A43
:1042A0005FF000085FF000095046C0B200281CD043
:1042B0005046C0B27F2110FB01F050FA8AF0401E38
:1042C0008046BAF1010A5146C9B27F20414351FAF2
:1042D0008AF081468022484680B206EB00014046C3
:1042E00080B2384401F0BCFEDEE7BDE8F087000094
:1042F0005429002004000020484200200C00002027
:10430000542D002038B52DED028BB0EE408A04000C
:104310000D002000C0B2002808D002281DD010D304
:10432000042832D025D305283BD045E018EE100AEA
:10433000FFF73EF902000B00AAA12800FFF78EFC50
:104340003AE018EE100AFFF733F902000B00DFF82D
:1043500050142800FFF782FC2EE018EE100AFFF739
:1043600027F902000B00DFF83C142800FFF776FC69
:1043700022E018EE100AFFF71BF902000B00DFF82D
:1043800028142800FFF76AFC16E018EE100AFFF761
:104390000FF902000B00DFF814142800FFF75EFC91
:1043A0000AE018EE100AFFF703F902000B00DFF82D
:1043B00000142800FFF752FCBDEC028B31BD2DE943
:1043C000FC412DED028B82B004000D001600B0EE12
:1043D000408A0C9FDDF834809DF8140000281ED020
:1043E000401E05280FD9801F21D0401E24D0401E1A
:1043F0002CD0401E33D0401E05D0401E3AD0401E67
:104400003ED0801E45D100974346B0EE480A3200A8
:10441000D2B221009DF8150000F040F839E0434683
:104420003A0021009DF8150000F06CF931E041469A
:10443000200000F04BF92CE043463A00B0EE480A69
:104440003100C9B2200000F01DF922E04246B0EE72
:10445000480A3100C9B2200000F09AF819E043463A
:10446000B0EE480A3200D2B221009DF8150000F0EB
:10447000BBF80EE042463900200000F05FF908E08A
:104480004346B0EE480A3200D2B22000290000F0C4
:104490005FF802B0BDEC028BBDE8F3812DE9F04777
:1044A0002DED048B82460C001500B0EE408A1E00F4
:1044B0000C9FDFEDB98A5FF000085FF000099FED07
:1044C000B69A5FEACA6006D400EE104AB8EE400A17
:1044D000F0EE408A2AE05046C0B210F00F00C0B2A1
:1044E000012804D002280DD0042816D01EE0E01BBD
:1044F0008046404640B200EE100AB8EEC00AF0EE28
:10450000408A13E0E01B8146484600B200EE100AE4
:10451000B8EEC00AF0EE408A08E0E01B00EE100A98
:10452000B0EE409AB8EEC90AF0EE408AB5EE408A85
:10453000F1EE10FA01D068EE888A31002800C0B28E
:10454000B0EE680AFFF7DEFEBDEC048BBDE8F08735
:10455000F8B52DED028B04000D001600B0EE408A78
:104560001F009FED8D0A200008EE900AB5EE408AEC
:10457000F1EE10FA01D068EE888A39003000C0B23E
:10458000B0EE680AFFF7BEFEBDEC028BF1BD000085
:1045900070B52DED048B04000D00B0EE408A1600BE
:1045A0009FED7D0A0020E14309EE101AF8EE490A5A
:1045B000B5EE408AF1EE10FA01D060EE880AB0EE56
:1045C000000A20EE800AF7EE000AC0EE808A310071
:1045D0002800C0B2B0EE680AFFF794FEBDEC048B71
:1045E00070BD0000252E6600F8B52DED048B04008B
:1045F0000D001600B0EE408A1F009FED670A9FED88
:10460000669A2000C0B210F00F00C0B2012806D098
:1046100024D3032815D00AD304281AD01EE075F03D
:10462000FF00C04300EE900AB0EE609A16E045F03D
:104630007F4050F47F00C04300EE900AB0EE609AD5
:104640000CE055F07F40C04300EE900AB0EE609A57
:1046500004E0E84300EE900AB0EE609AF8EE498A72
:10466000B5EE408AF1EE10FA01D068EE888A390082
:104670003000C0B2B0EE680AFFF744FEBDEC048B18
:10468000F1BD000038B52DED048B08EE100A0C00CA
:10469000F0EE408A09EE102A1D009FED3F0AF8EE69
:1046A000480AB8EE491AC1EE209AF5EE408AF1EEBA
:1046B00010FA01D069EEA89A29002000C0B2B0EE2D
:1046C000690AFFF71FFEBDEC048B31BD2DE9FE43E7
:1046D00004000D002600360E27003F0CA0465FEABE
:1046E0001828A1464846C0B201904046C0B200908A
:1046F0003B00DBB23200D2B22E492800FFF7AEFAFF
:10470000BDE8F78310B4C4060BD5114204D07F2452
:104710001C7000245C700FE080241C7000245C700E
:104720000AE0114204D080241C7000245C7003E075
:104730007F241C7000245C7010BC70472DE9F04190
:1047400004000D00160015A71B4A39003000FFF7C2
:1047500085FA5FF000084046C0B20A281ADA5020F5
:10476000164900FB05F20A444346DBB252F83320F7
:1047700094420CD100FB05F008444146C9B200EB5D
:10478000C100426839003000FFF768FA02E018F112
:104790000108E0E7BDE8F08100000000257300009B
:1047A000D4E10008DCE10008E4E10008ECE10008E5
:1047B000F4E1000890DD0008FCE1000894220020EC
:1047C00062B38B0708D0521E11F8013B00F8013B81
:1047D00000F024808B07F6D1830740F0208000BFD3
:1047E000103A07D330B4B1E83810103AA0E83810C6
:1047F000F9D230BC530724BFB1E80810A0E8081074
:1048000044BF51F8043B40F8043BD20724BF31F8C1
:10481000022B20F8022B44BF0B7803707047121F45
:1048200017D35B0009D151F8043B20F8023B1B0C65
:10483000121F20F8023BF6D20BE051F8043B00F8BF
:10484000013B1B0A20F8023B1B0C121F00F8013B26
:10485000F3D238BF121D521E24BF11F8013B00F8DD
:10486000013BF8D8704756002DE9F04D2DED0A8B2D
:1048700043EC182B55EC184B24F0000635F000479C
:1048800008BF002E84B041EC190B00F0F38253EC0A
:10489000192B0020DFF8641601F0EEFB00F0EA822D
:1048A00051EC180B8A460020DFF8E41501F0E4FB18
:1048B00008D14FEA4A004015401C08BF5FEA0A31A0
:1048C00000F0D88251EC190B8B464FEA4B00401593
:1048D000401C00F0FE8157EC196B37F0004308BF15
:1048E000002A00F0F6814FEA4A004015401C00F013
:1048F000F081690041EAD4716000002908BF0028F6
:1049000004D1B0EE48AAF0EE68AA1BE040F23342B0
:10491000A2EB5150352806DB04F0000005F0004101
:1049200041EC1A0B0EE0202803DD2038C5408540FD
:1049300000E001D1002403E00028C4BFC44084404B
:1049400045EC1A4BF80F0BD053EC182B51EC1A0B0B
:1049500001F092FB04D0AFF300809FED3B9B8BE214
:1049600027F00041B1F5801F09D2002000906A466F
:1049700051EC190B01F090FB41EC190B0CE0DFF846
:104980001455DFF88C253D40DFF80C7502EB115013
:104990002F43009047EC196B51EC190BC80F36D020
:1049A00021F0004053EC192B034643EC192B51EC3A
:1049B0001A0B4B0043EAD0734200002B08BF002AB9
:1049C00004D1B0EE4A0AF0EE6A0A19E040F234442B
:1049D000A4EB5352352A04DB00F0000001F0004143
:1049E0000CE0202A03DD203AD140914000E001D1C3
:1049F000002003E0002AC4BFD040904041EC100BDF
:104A000053EC1A2B51EC100B01F036FB01D10026B0
:104A100000E00126009801281ED151EC190BDFF8A7
:104A20007C24DFF87C3401F06FFB15D253EC192B9A
:104A300000204FF08041FEF7DFFD00279FED04BB13
:104A400041EC190B28E000BFFFFFFFFFFFFFFF7FD6
:104A5000000000000000F03F53EC192B0020DFF8AD
:104A60004414FEF7C9FD9FED76AB53EC1A2B01F011
:104A700063FB01F01FFCA0F120042046FEF742FD7D
:104A80000022DFF82434FEF7B7FD53EC1A2B01F0B7
:104A900053FB41EC1B0B670151EC190B53EC1B2B27
:104AA00001F026FC41EC1A0B53EC192B51EC1B0BBB
:104AB00001F042FB02460B4651EC1A0BFEF77CFE5E
:104AC00041EC190B53EC192BFEF796FD41EC1C0B36
:104AD00053EC1C2BDFF8D403DFF8D413FEF78CFD66
:104AE000DFF8D023DFF8D03301F026FB53EC1C2B8A
:104AF000FEF782FDDFF8C423DFF8C43301F01CFBAE
:104B000053EC1C2BFEF778FDDFF8B823DFF8B83341
:104B100001F012FB53EC1C2BFEF76EFDDFF8AC230B
:104B2000DFF8AC3301F008FB53EC1C2BFEF764FDFF
:104B3000DFF8A023DFF8A03301F0FEFA53EC1C2BC2
:104B4000FEF75AFDDFF89423DFF8943301F0F4FA0E
:104B500053EC1C2BFEF750FD53EC1A2B01F0C8FB55
:104B600004460D460020DFF8941353EC1B2B01F094
:104B7000BFFB00224FF08043FEF73EFD22462B464E
:104B800001F0DAFA53EC192BFEF736FD41EC100B6D
:104B9000DFF85003784400F55370074453EC1A2BA8
:104BA00051EC100B01F0C8FA41EC190B0098FEF71C
:104BB000A9FCD7E9002301F0BFFA41EC1A0B53EC32
:104BC000192BC948C949FEF717FD53EC1A2B01F000
:104BD000B3FA53EC182BFEF70FFD0022C44B01F083
:104BE00093FA41EC1B0B68D30122C24B01F0F2FB9C
:104BF00060D9C80F53EC1B2B1ABF0020BE49A64931
:104C000001F09AFA01F056FB0022BC4BCDE90123DA
:104C10008046CDF8008053EC192B51EC180BFEF7B1
:104C2000EBFC04460D46D7E90201D7E9042301F065
:104C300083FA53EC182BFEF7DFFC9FEDB1BB03E0CA
:104C4000000000000000E03F53EC1B2BFEF7D4FCFB
:104C500022462B4601F070FA07468B4653EC1A2B7E
:104C600051EC180BFEF7C8FC04460D464046FEF713
:104C700049FC02460B462046294601F039FB53EC1D
:104C80001B2BFEF7B9FC3A465B4601F055FADDE90D
:104C9000012301F0B7FB41EC190B31F0004108BFD3
:104CA00000280AD051EC190B48004015401C06D1D1
:104CB000090304D19FED9B9B01E09FED969B002E85
:104CC00000F0DA8051EC190B81F0004141EC190B36
:104CD000D2E04FEA4B00401510F1010803D15FEA22
:104CE0000B3040F0C9804FEA4A077F157F1C07D17F
:104CF0005FEA0A3004D0B0EE489AF0EE689ABBE062
:104D00004FEA4A0001264015401C63D02946204640
:104D10004B0043EAD0734200002B08BF002A04D1A5
:104D2000B0EE48AAF0EE68AA1AE040F23342A2EBD5
:104D30005352352A04DB00F0000001F000410DE081
:104D4000202A04DDA2F12000C140814000E001D111
:104D5000002003E0002AC4BFD040904041EC1A0B71
:104D600053EC182B51EC1A0B01F086F918BF0026F2
:104D70004B0043EAD0734200002B08BF002A04D145
:104D8000B0EE4A0AF0EE6A0A1AE040F23442A2EBB0
:104D90005352352A04DB00F0000001F000410DE021
:104DA000202A04DDA2F12000C140814000E001D1B1
:104DB000002003E0002AC4BFD040904041EC100B1B
:104DC00046B153EC1A2B51EC100B01F055F90CBF06
:104DD00000260126B8F1000F08BF5FEA0B3006D1AC
:104DE00051EC190BC80F1CD1EC0F40D037E0002F4D
:104DF00008BF5FEA0A301AD153EC192B23F00041A7
:104E0000B1F5801F22F000001DD20022002908BF4A
:104E1000002800921BD06A4651EC190B01F03CF9B6
:104E200015E0EC0F01D1002E1DE0C6B108E0002E08
:104E30001ABF51EC190BC80F0020EC0F12D170B142
:104E40009FED319B18E0324E06EB11500090EC0FB5
:104E5000009802D100280ADC01E0002807DD9FED60
:104E60002D9B09E0002818BF9FED2C9B04D19FEDDE
:104E70002D9B01E09FED049B04B051EC190BBDECA0
:104E80000A8BBDE8F08D00BF000000000000F03F7D
:104E90000000F0BFFFFF0F800000E03FCD3B7F66CA
:104EA0009EA0E63F000050400000903FF7DE29BF83
:104EB000D8F8C23FF4B3FECC1A99C33F62CB68D98D
:104EC0006F46C73FC6C912DAC471CC3F4AE98A941B
:104ED0002449D23FF75F97999999D93FBC555555C9
:104EE0005555E53F9C3F0000FE822B654715F73F77
:104EF0000000E0C00000E0400000E0BF0000F03F24
:104F0000EF39FAFE422EE63F00000000000000806C
:104F100002FCFFFF00000000000000000000000095
:104F20000000F0FF000000000000F07FDFF8380113
:104F30000068002807D5DFF83401DFF8341101607C
:104F4000DFF8301101607047DFF81C01016851F093
:104F50000041016070472DE9F04104000D00002080
:104F600008262900C9B2002901D100270FE0290035
:104F7000C9B2012902D14FF4807708E02900C9B2F3
:104F8000022902D14FF4007701E04FF4407700F09E
:104F900075F880464046C0B2082820D1DFF8C860C6
:104FA000306830F4407030603068384330603068CA
:104FB00030F0F8003060316854F002000143316095
:104FC000306850F48030306000F058F88046306827
:104FD00030F002003060306830F0F8003060404659
:104FE000C0B2BDE8F081F8B504000D00082700F05C
:104FF00045F806003000C0B2082814D11A4F3868AE
:1050000030F440703860386850F4007038603868A8
:1050100050F001003860256000F030F80600386874
:105020004008400038603000C0B2F2BD124908604C
:105030007047082110480268D20301D5012010E012
:105040000268D20601D505200BE0026812F0EF0FCE
:1050500001D0062005E00068800701D5072000E0A8
:105060000820C0B270470000103C0240043C0240DF
:1050700023016745AB89EFCD0C3C024080B5082089
:105080008DF80000FFF7D5FF8DF800009DF80000B7
:10509000012804D1FFF7CDFF8DF80000F6E79DF859
:1050A000000002BD2DE9F14FB0B0924604910DF120
:1050B00042013A9A2B9199464A7000200AE01AF868
:1050C000011B0498309A90470028049000F0A686AF
:1050D0000D98401C0D909AF8000050B12528EED193
:1050E000002100220791089209910A920B910C92DB
:1050F00004E00D9800F094BE41F001011AF8010F90
:105100002028F9D023280CD02B2804D02D2805D016
:10511000302809D00BE041F00201EFE741F0040133
:10512000ECE741F00801E9E741F01001E6E72A2841
:105130000FD1D9F8002052F8040BC9F8002000283C
:105140000F9003D540420F9041F004010AF1010A8B
:1051500014E00F92DFF824380AE00F98984205DA3D
:1051600000EB800402EB4402303A0F920AF1010A8C
:105170009AF80020A2F130000A28EED39AF8000035
:105180002E2803D04FF0FF320E9229E01AF8010FBB
:105190002A2809D1D9F8000050F8042BC9F80000DA
:1051A0000E920AF1010A1BE02D280CBF0AF1010A38
:1051B000002000220E92DFF8C4470BE040B90E9A9F
:1051C000A24205DA02EB820503EB4503303B0E9366
:1051D0000AF1010A9AF80030A3F130020A2AEDD34D
:1051E000ADF84010DFF89807784400F294709AF810
:1051F000001001F0DDFA08B11AF8010B8DF8420039
:105200009DF84200682805D19AF8000068280CD162
:10521000622106E06C2804BF9AF800006C2804D1D3
:1052200071218DF842100AF1010A12A806901AF8AD
:1052300001BBBBF125012CD01C3900F0CF81091F27
:10524000022940F2CB81133900F01385093900F0AF
:10525000C581891E00F0A885491E00F05585491EAC
:10526000022940F2BB81091F00F04E85491F00F062
:105270002881491E00F0FD84491E00F0D080C91E1F
:105280000DD0891E00F0F584C91E00F0F28400F0F4
:1052900096BD25238DF84830012100F09BBDD9F83B
:1052A000000050F8044BC9F80000002C059440F0B1
:1052B000A3802B994878002800F099804FF0FF34A4
:1052C0000FF6643001F080FA201A40F0A78500F054
:1052D00082BD6D1E40F099853096079D12AF75B165
:1052E000309E17F8012B02A9304600F063FE00281B
:1052F00001D46D1EF5D10028309640F08F850A9DAF
:105300003020002D8DF804000CDD309E012301AA11
:1053100002A9304600F05EFE002840F07F856D1E39
:10532000F4D13096059F089D75B1309E17F8012B7A
:1053300002A9304600F03EFE002801D46D1EF5D1D2
:105340000028309640F06A850B9D3020002D8DF8A6
:1053500004000CDD309E012301AA02A9304600F0B2
:1053600039FE002840F05A856D1EF4D1309605981C
:105370000899099D471875B1309E17F8012B02A9AD
:10538000304600F017FE002801D46D1EF5D100282C
:10539000309640F043850C9D3020002D8DF80400A0
:1053A0000CDD309E012301AA02A9304600F012FE56
:1053B000002840F033856D1EF4D130969DF84000F2
:1053C00041077FF588AE2020002C8DF804007FF780
:1053D00082AE309D012301AA02A9284600F0FAFD01
:1053E000002840F01B85641EF4D1309573E60FF65B
:1053F0004440059000F0EFBC0E9D002D04D52046E2
:1054000001F002FA044607E02A46204601F018FAA5
:10541000002814BF041B2C46089400F0DCBCD9F80B
:10542000001051F8040BC9F8001020F0000400210E
:1054300021F0FF3512ABCDE902450593DDE90223EA
:1054400006993C2413B90AB90E9898B102F00F05D9
:105450003035641EEEB23A2EA8BF2735120942EA53
:1054600003721B090D5508BF002A03D005980D19BA
:10547000A842EBD308190590C4F13C020E9808929B
:1054800082420ADABDF84010821A4FF6EF700140EE
:105490000A92ADF8401000F09EBC002840F19B84B9
:1054A0009DF8400000F01400102840F094840F9BF9
:1054B00007990A985B1A1B1A9A1A002A40F38B84E0
:1054C000D5E32B99487820B14FF0FF340FF63430F4
:1054D000F8E69DF84200622861D0682817D06A2853
:1054E0003FD06C2806D0712847D074282CD07A2859
:1054F0001DD064E0D9F8001051F8040BC9F8001071
:10550000002868D14FF0FF340FF61030DAE6D9F8F2
:10551000001051F8040BC9F8001020B94FF0FF3407
:105520000FF6F820CEE60D99018000F054BCD9F8B2
:10553000001051F8040BC9F8001000284BD14FF0AF
:10554000FF340FF6D820BDE6D9F8001051F8040B4F
:10555000C9F8001000283ED14FF0FF340FF6BC20F0
:10556000B0E6D9F8001051F8040BC9F8001080B962
:105570004FF0FF340FF6A420A4E6D9F8001051F83C
:10558000040BC9F8001020B94FF0FF340FF68C203F
:1055900098E60D9AD317C0E9002300F01CBCD9F897
:1055A000001051F8040BC9F8001020B94FF0FF3477
:1055B0000FF6682086E60D99017000F00CBCD9F852
:1055C000001051F8040BC9F8001020B94FF0FF3457
:1055D0000FF6482076E60D990160FCE3D9F800202B
:1055E000D21D22F00702C9F80020D2E900010832DA
:1055F000C9F80020CDE90201C80F02D007982D217B
:105600000AE0BDF84000810702D507982B2103E08E
:10561000C00705D50798202112AA1154401C0790F5
:1056200012A807994BF020024318DDE90201CDE9E9
:105630002C01612A059321AC0BD00E98002802D5CD
:1056400006200E9005E001BF4BF0200067280121E5
:105650000E91DDE9020148004015401C0A460DD1BB
:1056600009030BD0ABF1610503201A2D089002D27B
:105670000FF6C4110DE00FF6C4110AE070B9120361
:105680000CD1ABF1610503201A2D08901AD30FF647
:10569000B41103221846FFF793F89CE3DDE90201F9
:1056A000CDE92E01DDE92E2323F00047B7F5801F59
:1056B00022F000060DD20022002F08BF002E00921B
:1056C00003D116E00FF67811E3E76A4600F0E4FC38
:1056D0000FE0DFF8C008DFF8C01800EB17500090AB
:1056E000DDE92E234FF0FF301940DFF8B07810408D
:1056F0003943CDE902014BF0200061280DD1059816
:1057000030210170821CBBF1610F05920CBF782122
:10571000582141700798801C0790DDE9020120F0B4
:10572000000231F0004308BF002A02D10026002504
:1057300068E14BF02008B8F1610F40F0B4800E989A
:10574000002847BF21210191401C0190019FDDE904
:105750002C017F1C00220023DDE9024500F0D4FC6F
:1057600000998DF8842038BF85F00045091F002F6F
:1057700000910DF1850653DD2046294600220023C5
:1057800000F028FE4CD24800400D00F11C0312D05E
:10579000002B10DD40F2FF70834206DBDFF80018BB
:1057A00005F000421143002011E06FF31E5141EA61
:1057B000035120460BE024F0000035F0004108BF03
:1057C00000280FBF29461C22294601F065F804462F
:1057D0000D4600F06FFDFF1F002F804609DDFDF72D
:1057E00091FE02460B462046294600F081FD044604
:1057F0000D46F01D0721B8F1000F0CDD491E5EBFFC
:1058000008F00F0200F8012D4FEA2818F3D502E046
:10581000002200F8012D491EFAD5C61D002FABDC71
:105820000DF18500361A01988642D8BF304600280F
:105830000DF1850430D4B04206DA0DF185010A5C21
:10584000082AA8BF0F2100DA0021024621AB134429
:1058500000E0401E13F80159521E8D42F9D00F2965
:1058600004D10DF185018B5C5B1C8B54002A04D59F
:105870000099091D21AC401C0091411E0CD46218F6
:10588000ABF13A0613783033DDB23A2DA8BFF318E6
:10589000491E02F80139F5D50E99002940F1B08072
:1058A000421E0E92ACE00099DFF8F82647F29750BE
:1058B000414391FBF2F2DDE92C45009225F00045D1
:1058C000D2F1070204DD2046294600F040FB0BE040
:1058D00052420020DFF8D01600F039FB02460B469A
:1058E00020462946FDF768FF0446B8F1660F0E987A
:1058F00006BF009F0A3706273F18142FC8BF14277A
:1059000030200D468DF884000DF18506002F39DD1D
:105910002046294601F05EF801460A4606F10803D2
:1059200004200A26B2FBF6F606EB860EA2EB4E0228
:10593000303203F8012C0A22B6FBF2F202EB820E9F
:10594000A6EB4E063036401E03F8026DE9D1083F43
:10595000002F03F10806D9DD0846FDF71FFF0246B8
:105960000B462046294600F0C3FC0022DFF83C36F7
:10597000FDF742FE04460D46CAE700BFCBCCCC0C77
:10598000CC8A00000DF18500361A0DF1850404E083
:105990000098401E761E0090641C20783028F7D0B6
:1059A000B8F1660F02D10099491C04E0B8F1650F07
:1059B0000CBF012100210E9808188642B8BF701E46
:1059C00000281DD4B04204DA215C3429C8BF392133
:1059D00000DC30210246631E9D1800E0401E15F8D1
:1059E0000169521E8E42F9D0392902D1A15C491CAD
:1059F000A154002A04D50099491C1C46401C009162
:105A00000646009D0E9F30B2002802DC01260FF2F0
:105A100038644BF02000662808BF6D1C15D067283D
:105A20000FFA85F841D118F1040F44DBB84542DA8A
:105A30009DF840006D1C010703D430B2B842B8BFD6
:105A4000074628B23F1A48BF00270FFA85F8B8F179
:105A5000000F00F3AF800898411C0891302205998F
:105A60000A54002F03DC9DF84000010705D5089873
:105A7000411C08912E2205990A5417EB080FB8BF54
:105A80007D4228B2C51932B2414295420B91B8BF4E
:105A90002E46059B089836B2099632462146184490
:105AA000FEF78EFEAD1B0C95CCE0BBF1610F15D15E
:105AB0004FF0700B17E030B2B84204DA9DF8401096
:105AC0000A0758BF07467F1E48BF0027BBF1670F74
:105AD00014BF4FF0450B4FF0650B04E0BBF1410FD5
